:020000041000EA
:1000000000B5324B212058609868022188439860DF
:10001000D860186158612E4B002199600221596106
:100020000121F02299502B49196001219960352056
:1000300000F044F80222904214D00621196600F024
:1000400034F8196E01211966002018661A6600F04E
:100050002CF8196E196E196E052000F02FF8012189
:100060000842F9D1002199601B49196000215960AB
:100070001A491B48016001219960EB211966A021F2
:10008000196600F012F800219960164914480160C1
:100090000121996001BC002800D000471248134993
:1000A000086003C880F30888084703B5996A0420EC
:1000B0000142FBD001200142F8D103BD02B5186610
:1000C0001866FFF7F2FF186E186E02BD00000240BE
:1000D000000000180000070000035F00212200005C
:1000E000F4000018222000A00001001008ED00E03C
:1000F00000000000000000000000000074B24E7A12
:1001000000200420F7010010C3010010C5010010F9
:10011000C1010010C1010010C1010010C101001097
:10012000C1010010C1010010C1010010C701001081
:10013000C1010010C1010010C9010010CB01001065
:10014000CD010010CD010010CD010010CD01001037
:10015000CD010010CD010010CD010010CD01001027
:10016000CD010010CD010010CD010010CD01001017
:10017000CD010010CD010010CD010010CD01001007
:10018000CD010010CD010010CD010010CD010010F7
:10019000CD010010CD010010CD010010CD010010E7
:1001A000CD010010CD010010CD010010CD010010D7
:1001B000CD010010CD010010CD010010CD010010C7
:1001C00000BE00BE00BE00BE00BE00BE00F04BF888
:1001D000103800BEF2EB887154850210748502104D
:1001E0003402001090A31AE700202149086006C8D5
:1001F00081F3088810471F48006800282FD10DA4FC
:100200000ECC002902D000F012F8F9E71A491B4A77
:10021000002000E001C19142FCD1194988471949E9
:1002200088471949884700BEFDE701C901C29A42C3
:10023000FBD3704774850210C0000020D01C002042
:1002400084A10210000004200000042084A10210F8
:1002500000100420001004200000000070470B482C
:100260000AF09CFC0047EFF30580C0B27047000025
:1002700008ED00E0000000D0D01C0020D05C002081
:100280008D940010BD0500104994001057560000D1
:1002900006005250ABB3605348D4011006005250D0
:1002A000861C030258D40110060052505422A29D0D
:1002B00064D4011005005250DE65F46884A1021078
:1002C000F8B5C04610B5064C2378002B07D1054B76
:1002D000002B02D0044800E000BF0123237010BDB2
:1002E000D81D00200000000020C30110044B10B5F1
:1002F000002B03D00349044800E000BF10BDC046F6
:1003000000000000DC1D002020C3011070B582B089
:1003100005000E1E0DD0941B01940F2C0ED82868DA
:10032000012C14D0002C14D0220031000CF068FCF9
:100330000FE09142EFD00B4812F018FE002201A905
:10034000280013F023F82860019BAB60E7E73378BF
:100350000370019A6A602B689B1800221A7002B021
:1003600070BDC04620C30110F0B5CE46474680B5EB
:1003700099B004000E0001280AD0002C03D16F4B65
:100380009E4200D1D3E019B0C0BCB946B046F0BD22
:100390006A4B9942F1D103ABD92203925D3A0492A0
:1003A000363A05926D462A0083CB83C2644B654A78
:1003B00004C32A0083CA83C36D2306935133079372
:1003C0002B330893DD3B99461A0006A928000CF050
:1003D00017FC5D4B5D4A04C32A0083CA83C309AB83
:1003E0007D22099234320A92143A0B922A0083CB6E
:1003F00083C2574B574A04C32A0083CA83C3A92325
:100400000C931B3B0D932F330E934A460CA92800E7
:100410000CF0F6FB504B514A04C32A0083CA83C335
:100420000FABA7220F921A3210926F3A11922A0044
:1004300083CB83C24A4B4B4A04C32A0083CA83C37B
:10044000852312931E3313930933984614934A4617
:1004500012A928000CF0D4FB434B444A04C32A00E1
:1004600083CA83C315ABDF22159242461692603AC7
:1004700017922A0083CB83C23D4B3E4A04C307CD6B
:1004800007C300230B2235213B4811F0FBFB3B4DFA
:1004900080235B002B80813B6B802F1D384A00211D
:1004A00038000CF0A7FB374BEF50374BE818102201
:1004B00000210CF09FFB354B0022EA50344B354AAB
:1004C000EA520721344B002923DB00221A70A520B1
:1004D000800058800120404298800225DD8004354C
:1004E0001D815881023098812C48D8811A825A6126
:1004F0009A611A77DA831A625A629A62DA62302053
:10050000023D1D5401301A5483301A50BC33013956
:10051000D9E71A4A224B0221D1542248030008335A
:1005200003600023204A1149FFF7F0FE25E71D482C
:1005300012F04AFF11480FF0D5FF24E7FFFF00003B
:10054000E42400204CC301102425002054C30110D2
:10055000042500205CC301106425002064C3011041
:10056000442500206CC30110C424002074C3011072
:10057000A42400207CC30110285600200C2C00204D
:10058000182400001C240000202400003024000057
:1005900034240000FF2F000044500020FF7F0000A3
:1005A000182A0000F41D002078C3011010B502497C
:1005B0000120FFF7D9FE10BDFFFF000010B5204C51
:1005C000A5440CF0E1FC1F4C20000FF0DBFF1E4A9D
:1005D000210001A806F030FF01A800F095F91521CF
:1005E000184810F093FD002820D11A21154810F06A
:1005F0008DFD00281FD1144C002300220021200073
:1006000011F000FB200011F0E1F91B210D4810F062
:100610007DFD0028E3D101A800F0D4F90A4909487A
:1006200010F01AFD0A2008F0F5FAD8E70749054846
:1006300010F004FDD9E70649024810F0FFFCDAE7A4
:1006400060D5FFFF0C2C0020285600200AD7233C41
:100650000AD723BC002383600160024BC360024BB6
:1006600083607047D113001085060010002383605B
:100670000160024BC360024B83607047F1120010AF
:10068000A5060010012A02D1016000207047022A4D
:1006900005D0032AF9D0012AF7D10160F5E70B68EC
:1006A0000360F2E7012A02D1016000207047022AAC
:1006B00005D0032AF9D0012AF7D10160F5E70B68CC
:1006C0000360F2E7F0B5DE4657464E464546E0B5D4
:1006D00099B0012806D019B0F0BCBB46B246A94675
:1006E000A046F0BD564B9942F5D103ABD9220392F7
:1006F0005D3A0492363A05926C46220023CB23C21F
:10070000504B9946504A04C3220023CA23C36D2389
:100710000693513307932B330893DD3B9B461A0016
:1007200006A920000CF06CFA484B9846484A04C3CE
:10073000220023CA23C309AB7D22099234320A92D4
:10074000143A0B92220023CB23C2424F3B00424A71
:1007500004C3220023CA23C3A9230C931B3B0D937C
:100760002F330E935A460CA920000CF049FA3B4E49
:1007700033003B4A04C3220023CA23C30FABA72282
:100780000F921A3210926F3A1192220023CB23C299
:10079000344B354A04C3220023CA23C38523129352
:1007A0001E33139309339A4614935A4612A9200014
:1007B0000CF026FA2D4B9C462D4A04C3220023CA76
:1007C00023C315ABDF22159252461692603A179258
:1007D000220023CB23C2274B9A46274801C323CCB0
:1007E00023C3264B1C00484626C826C40068206048
:1007F0000434404626C826C4006820601800203013
:1008000016CF16C03C6804601800303016CE16C0F3
:100810003468046018004030124D16CD16C02C68A4
:10082000046018005030614634C934C00968016062
:100830006033524613CA13C312681A604BE7C046AE
:10084000FFFF0000F42400204CC3011034250020D9
:1008500054C30110142500205CC30110742500202E
:1008600064C30110542500206CC30110D42400205F
:1008700074C30110B42400207CC301103424002070
:1008800084B070B5050005AC05910692079300236E
:10089000836014200CF0BAF9030046CC46C306CCA2
:1008A00006C32860044BEB60044BAB60280070BCAF
:1008B00008BC04B01847C046C5130010C10800109A
:1008C00070B50400012A03D10B680360002070BDDD
:1008D000022A06D0032A0FD0012AF7D10B68036041
:1008E000F4E70D6814200CF091F9030046CD46C3DF
:1008F00006CD06C32060E9E700680028E6D0142191
:100900000CF090F9E2E70000F0B595B005002A4838
:100910000CF07CF90400291D284BEA18002306F08E
:1009200039FE2C60290003A8FFF794FE03A92000DC
:1009300006F0B8FF059B002B03D0032203A9080093
:1009400098471F4C00E010341D4B70339C421DD063
:100950002E680B950CAB220083CA83C312681A6001
:100960000EAB6A4603CB03C20B990C9A0D9B07A8EA
:10097000FFF786FF07A9300006F094FF099B002BC4
:10098000E1D0032207A908009847DCE72C6829007A
:1009900010A8FFF76BFE10A9200006F083FF129B42
:1009A000002B03D0032210A908009847286806F0FE
:1009B000C1FE15B0F0BDC0466C2A0000202A000020
:1009C0003424002010B50400006806F097FE20686B
:1009D00006F04AFE10BD10B5080091000CF022F997
:1009E00010BD10B5080091000CF01CF910BDF0B559
:1009F000D6464F464646C0B50700884692469946B9
:100A00008B000268D658002E26D0346819E0534671
:100A100018686168002A05D01AF0E4FA002803D1AA
:100A2000012317E0012315E0002313E02568002DC2
:100A30001AD07968686A0AF005F92600884511D14C
:100A40002C00636A9945F1D153465A68A3689A42CB
:100A5000DDD00023002BE9D03000E0BCBA46B1461F
:100A6000A846F0BD0026F7E72E00F5E7F0B583B005
:100A7000140028200CF0CAF805000600002308C660
:100A8000246801940C306860236827000837BB4253
:100A90000DD06B60A368B360636873602760002348
:100AA00063602372B361F361280003B0F0BD1022CC
:100AB00039000CF0A5F8EFE7F8B5040016008D003A
:100AC00003685B59002B05D01B68136003685B59F2
:100AD0001A60F8BD8368136082601368002B06D02B
:100AE0000768586A61680AF0ADF889007E5023688B
:100AF00008345C51EDE7F0B5D6464F464646C0B5E2
:100B000007008846924699468B000268D658002E08
:100B100026D0346819E0534618686168002A05D069
:100B20001AF060FA002803D1012317E0012315E031
:100B3000002313E02568002D1AD07968A86A0AF00E
:100B400081F82600884511D12C00A36A9945F1D17E
:100B500053465A68A3689A42DDD00023002BE9D09F
:100B60003000E0BCBA46B146A846F0BD0026F7E723
:100B70002E00F5E7F0B583B015002C200CF046F8F8
:100B800006000400002308C42D6801950C30706035
:100B90002B682F000837BB4214D07360AB68A3608A
:100BA0006B6863602F6000276F602F722000183021
:100BB0000C2200210CF01EF8A761E76127623000CB
:100BC00003B0F0BD102239000CF01AF8E8E7F8B5D0
:100BD000040016008D0003685B59002B05D01B68CC
:100BE000136003685B591A60F8BD83681360826004
:100BF0001368002B06D00768986A61680AF022F82B
:100C000089007E50236808345C51EDE770B582B0EE
:100C100005000E1E0DD0941B01940F2C0ED82868D1
:100C2000012C14D0002C14D0220031000BF0E8FF6E
:100C30000FE09142EFD00B4812F098F9002201A981
:100C4000280012F0A3FB2860019BAB60E7E7337834
:100C50000370019A6A602B689B1800221A7002B018
:100C600070BDC04620C30110F0B583B017002C2022
:100C70000BF0CCFF04000026050040C53B68019343
:100C800002000C32426019685A688A180023280052
:100C9000FFF7BCFF20001C300C2200210BF0AAFF44
:100CA000AE61EE612E62200003B0F0BD70B580230E
:100CB0009B0599420AD28C0020000BF0A7FF05008B
:100CC000220000210BF096FF280070BD12F03EF9C3
:100CD000F8B5CE46474680B505000F00012907D07C
:100CE000FFF7E4FF8046AC680023AB6099460CE058
:100CF00000238361183398468044F4E7894603E073
:100D0000126822601B681C603400002C18D0266812
:100D10003900606A09F096FF8B0043441A68002A84
:100D2000EED1AA682260AC602A0008321A602368FB
:100D3000002BE3D04B469B004246D4508946E3E764
:100D400029686A682B001833994202D02800FFF7FF
:100D500048FE6F6043462B60C0BCB946B046F8BD44
:100D600010B50022FFF7B4FF10BDF0B5C64600B5C0
:100D700086B0040090461E000C9F4369059303ADA6
:100D8000010010310D9B0093C3684268280012F0E7
:100D9000D5F92B78002B0DD17E623A004146200018
:100DA000FFF78AFEE3680133E360380006B080BCD9
:100DB000B846F0BD05AA04992000FFF7D1FF61688D
:100DC000300009F03FFF8846E6E70000F0B587B045
:100DD00005000C00164A4968206811F037FE06002D
:100DE000696809F02FFF0F00330022002800FFF789
:100DF000FEFD002805D00068002802D01C3007B096
:100E0000F0BD0494029505AB04AA0A492800FFF737
:100E10002DFE039001230193009033003A0021003E
:100E20002800FFF7A2FF002303931C30E7E7C0462A
:100E300007690FC7C8C3011070B580239B0599428D
:100E40000AD28C0020000BF0E1FE050022000021F8
:100E50000BF0D0FE280070BD12F078F8F8B5CE4641
:100E6000474680B505000F00012907D0FFF7E4FFD2
:100E70008046AC680023AB6099460CE00023836198
:100E8000183398468044F4E7894603E012682260EC
:100E90001B681C603400002C18D026683900A06A3A
:100EA00009F0D0FE8B0043441A68002AEED1AA68EC
:100EB0002260AC602A0008321A602368002BE3D05D
:100EC0004B469B004246D4508946E3E729686A684E
:100ED0002B001833994202D02800FFF77CFD6F6089
:100EE00043462B60C0BCB946B046F8BD10B50022E1
:100EF000FFF7B4FF10BDF0B5C64600B586B00400DC
:100F000090461E000C9F4369059303AD010010310C
:100F10000D9B0093C3684268280012F00FF92B78EC
:100F2000002B0DD1BE623A0041462000FFF74FFE74
:100F3000E3680133E360380006B080BCB846F0BD1A
:100F400005AA04992000FFF7D1FF6168300009F07D
:100F500079FE8846E6E70000F0B587B005000C0092
:100F6000164A4968206811F071FD0600696809F0A9
:100F700069FE0F00330022002800FFF7BCFD0028A7
:100F800005D00068002802D01C3007B0F0BD0494E2
:100F9000029505AB04AA0A492800FFF7EBFD039070
:100FA00001230193009033003A0021002800FFF74D
:100FB000A2FF002303931C30E7E7C04607690FC771
:100FC000C8C30110F0B587B005000C00164A496887
:100FD000206811F03BFD0600696809F033FE0F0040
:100FE000330022002800FFF786FD002805D00068A6
:100FF000002802D01C3007B0F0BD0494029505AB68
:1010000004AA0A492800FFF72FFE03900123019349
:10101000009033003A0021002800FFF76CFF002306
:1010200003931C30E7E7C04607690FC7C8C3011028
:10103000F0B5D6464F464646C0B58EB082460092C1
:1010400001936E4B18005044FFF7BCFF0600436845
:1010500002689A1A921093009B1819015B181C02DF
:101060001B191C041C196400A4180023079308937F
:101070000993002C15D0624B9C4210D860000019D7
:1010800080000BF0C3FD05000795089563001C194F
:10109000A4002C1909943368726890460FE011F08F
:1010A00055FF0025F0E711F051FF002027E092CB1B
:1010B00092C28342FBD16A6033000C330C351E00B0
:1010C000434529D0A9465C681A68A21A9210930079
:1010D0009B181C011B191C021B191C041C19640001
:1010E000A41800232B606B60AB60002CDDD0444B58
:1010F0009C42D8D86000001980000BF087FD4B4659
:101100001860586063001C19A40000194B469860D1
:101110002A6833687068CCE70895002500E001353F
:10112000089B079A9A1A921093009B1819015B1852
:1011300019025B1819045B185B009B18A9469D42B5
:1011400040D200244B465B004B449B00079A9446D8
:10115000634459681A68891A89108B005B18180152
:101160001B1818021B1818041B185B005B189C4204
:10117000D5D263001B199B00D31804AA1100C1CB60
:10118000C1C1137A12790499C9B21E488046D0446D
:10119000404610F037FD0C950D9402A96B460A00ED
:1011A00041CB41C2029B5B1902934B681B194B60F8
:1011B00008220AA80BF024FD0AA9404610F0A2FB61
:1011C0000134BFE7079C089D00E00C34A54207D01E
:1011D0002068A368191A0028F7D00BF023FDF4E764
:1011E0000798099B191A002801D00BF01BFD0EB0BF
:1011F000E0BCBA46B146A846F0BDC046602A000031
:10120000AAAAAA0A202A0000F0B58FB00700364D1E
:1012100021E001222CE02E680AAB0893002E54D066
:1012200030001AF0F7F932180023310008A8FFF750
:101230006DF82268636808A93800FFF7F9FE08987E
:101240000AAB984203D00A9B591C0BF0EBFC05201B
:1012500007F0E0FC1035244B70339D4237D02C68EA
:1012600002AB0093002CD4D020001AF0D3F922183E
:10127000002321006846FFF749F86946AA239B012D
:10128000F818FFF7A3FD0400009802AB984203D0C2
:10129000029B591C0BF0C6FC20680BF07DF9FE2167
:1012A00089050BF010F90BF099F920600A30B2DAD9
:1012B0000E4A06ABB958069100210791210041CB97
:1012C00041C1BB580C33BB50A5E70122ACE7074C2A
:1012D00038590BF061F9FE2189050BF0F4F80BF099
:1012E0007DF938510FB0F0BD342400207C2A000075
:1012F00010B50068FFF788FF10BD000070B596B00C
:1013000005000E000023069307930C680AAB0893B0
:10131000002C50D020001AF07DF922180023210063
:1013200008A8FEF7F3FF069A079B08A92800FFF715
:101330007FFE08980AAB984203D00A9B591C0BF019
:1013400071FC0C230E930A3B0F93069B0C33069300
:10135000079B059302330793337B327A3179184820
:1013600084466544280010F04DFC346812AB10939D
:10137000002C22D020001AF04DF922180023210061
:1013800010A8FEF7C3FF012301220292002201925E
:10139000FE22920500925B4206AA10A9280010F0D6
:1013A000CBFB109812AB984203D0129B591C0BF048
:1013B00039FC16B070BD0122B0E70122DEE7C0465D
:1013C000202A000010B5016801C9FFF797FF10BD82
:1013D00070B594B00400066810AD0E95214A110056
:1013E000083900230EA8FEF791FF00230C930D93FC
:1013F00000220EA93000FFF71BFE0E98A84203D072
:10140000109B591C0BF00EFC2068174B9C46604447
:10141000FF23FF22FF2110F0F5FB246808AD06959D
:10142000124AD11F002306A8FEF770FF0C23049375
:101430000A3B0593013B0C4AA018012202920022AC
:101440000192FE22920500925B4204AA06A910F0C6
:1014500073FB0698A84203D0089B591C0BF0E2FBD3
:1014600014B070BD88C30110202A000093C301107E
:1014700070477047F8B5CE46474680B505000F0067
:10148000814231D04B6898460C681E1BB010830017
:101490001B181A019B181A029B181A049B185B0050
:1014A0001B182A689146AA684946521AB24220D3AC
:1014B0006B685A1AB24240D32000FFF7D9FF0400EC
:1014C0004046FFF7D5FF07004846FFF7D2FF3A1B1B
:1014D000BC4202D0210019F0A9FD4846FFF7C9FF20
:1014E0002B689C4666446E602800C0BCB946B04676
:1014F000F8BD002B0ED01B4A934209D85800C018E3
:1015000080000BF083FB8146210040464B4606E0FD
:1015100011F01CFD00239946F6E794C994C381425B
:10152000FBD12868AB68191A002801D00BF07AFBB0
:101530004B462B609F19AF60D2E7A318A34203D09C
:101540002100484619F072FD6A682B68D31A396881
:101550008C466344786801E092CB92C29842FBD1FA
:10156000BEE7C046AAAAAA0AF0B5DE4657464E46CE
:101570004546E0B583B0050001900C009046531A33
:101580009B46981083001B181A019B181A029B187F
:101590001A049B185B001B182A002D689268521BC6
:1015A00059465A4500D374E0854A91420CD8002B25
:1015B0000FD0844A93420AD85800C01880000BF01C
:1015C00025FB81464D4612E07F4811F0E7FC11F003
:1015D000BDFC00239946F5E711F0B8FC002027E098
:1015E000C2CBC2C28342FBD16A600C340C35A04529
:1015F0002AD02E00636822689A1A921093009B18D2
:1016000019015B1819025B1819045B185B009A46F4
:101610009244524600232B606B60AB60002ADDD001
:10162000684B9A42D8D85000504480000BF0EEFA34
:101630003060706053465B0053449B00C018B0603C
:101640002A6823686068CDE7019B1C685D6802E03A
:101650000BF0E8FA0C34A54205D02068A368191AEB
:101660000028F5D1F6E7019B18689B68191A002835
:1016700001D00BF0D7FA4B46019A13604846584404
:101680005060906003B0F0BCBB46B246A946A0468D
:10169000F0BD019B5B685A1B5A452AD343461A1B6F
:1016A000921093009B1819015B181E029B191E04CF
:1016B0009E197600B618002E07DD21002800FFF7DE
:1016C000D9FE0C340C35013EF5E7019B5E68AE4255
:1016D000D8D02C0002E00BF0A5FA0C34A64205D0BD
:1016E0002068A368191A0028F5D1F6E7019B5D6010
:1016F000C8E7019802689A1A9210910089180B01A4
:10170000C9180B02C9180B04C91849008A185300DC
:101710009B189B00E518026891469E109B191901C1
:101720005B1819025B1819045B185B009E19002EE8
:1017300009DD21004846FFF79DFE0C340C239C4632
:10174000E144013EF3E7019B5E6806E011F0FEFB19
:10175000002021E072600C350C36A8452DD0B14632
:101760006B682A689A1A921093009B181C011B1927
:101770001C021B191C041C196400A41800233360EC
:101780007360B360002CE3D00E4B9C42DED8600047
:10179000001980000BF03AFA4B461860586063005D
:1017A0001C19A40000194B46986032682B686868C1
:1017B0008342CFD092CB92C2FAE7019B5E6061E791
:1017C000F8FFFF7FAAAAAA0A94C30110F0B5D64673
:1017D0004F464646C0B5B84CA544050000240294C7
:1017E00003940494059406940794089409940A9425
:1017F0000B940C940D9409230E9306330F93013B25
:101800001093073B1193043312930A2213921494FA
:10181000159416941794189419941A941B941C9464
:101820001D941E941F9420942194763269460820BA
:1018300009188C50C821C900694402AA0A604B608B
:10184000A626F6006E44082230000BF0D9F99B4B17
:101850006B441C60B723DB006B441C60984B6B44EB
:101860001C60346873685F00FF18BF00E619BA1087
:10187000BB1818011B1818021B1818041818400070
:101880008018904A974217D800281AD08E4A904262
:1018900015D84300181880000BF0B8F9874B6B443B
:1018A0001860C719864B6B441F60A6420BD003001B
:1018B00007CC07C31800F8E7844811F06FFB11F05C
:1018C00045FB0020EAE77D4E6E44706000242394BF
:1018D000249425942694279428940E23299309333D
:1018E0002A93033B2B932A222C9233332D93093BCB
:1018F0002E932F921F32309231932A3332934633F4
:101900003393163B3493773B359317333693073B2A
:101910003793389439943A943B943C943D943E9454
:101920003F944094419442944F336A468C2152181C
:10193000D450C921C90069440A600B234B60A62713
:10194000FF006F44082238000BF05AF9F46034614C
:1019500074613C687B685F00FF18BF00E619BA102D
:10196000BB1818011B1818021B181804181840007F
:101970008018544A974219D800281CD0524A9042E5
:1019800017D84300181880000BF040F9B823DB008B
:101990006B441860C719B923DB006B441F60A64273
:1019A0000BD0030007CC07C31800F8E7474811F035
:1019B000F5FA11F0CBFA0020E8E7404E6E443061B2
:1019C0000024449445944694052347930533489353
:1019D000013B499326334A931F334B930B3B4C9364
:1019E0000E3B4D9324334E930E3B4F931433509341
:1019F00042335193163B5293503B539327335493A6
:101A00000E3B5593123B56932D3357930F3B5893F0
:101A100059945A945B945C945D945E945F94609442
:101A200061946294639420336A4688214900521875
:101A3000D450CA21C90069440A600B234B60A62711
:101A4000FF006F44082238000BF0DAF8B461F4614B
:101A500034623C687B685F00FF18BF00E619BA106B
:101A6000BB1818011B1818021B181804181840007E
:101A70008018144A974217D800281AD0124A904268
:101A800015D84300181880000BF0C0F8104B6B44B9
:101A90001860C7190F4B6B441F60A6421CD003008F
:101AA00007CC07C31800F8E7084811F077FA11F0DF
:101AB0004DFA0020EAE7C04608F6FFFFB405000033
:101AC000BC050000F8FFFF7FAAAAAA0A94C3011070
:101AD000CC050000D4050000BB4E6E44F06101232C
:101AE00065930133669367933F22689269216991F8
:101AF0000D396A9146206B9030306C9010386D90A3
:101B00006E913F316F9115397091443971912D313A
:101B100072910F3973917492293275920E3A7692BE
:101B2000303A77921D327892093A79927A93023359
:101B30007B937C9300247D947E947F948094819405
:101B40008294839484947C336A463531FF315218F1
:101B5000D450CB21C90069440A600B234B60A627EF
:101B6000FF006F44082238000BF04AF87462B46238
:101B7000F4623C687B685F00FF18BF00E619BA108A
:101B8000BB1818011B1818021B181804181840005D
:101B900080188E4A974213D8002816D08C4A90425B
:101BA00011D84300181880000BF030F8BB23DB007D
:101BB0006B441860C719BC23DB006B441F600AE04C
:101BC000844811F0EBF911F0C1F90020EEE70300B1
:101BD00007CC07C31800A642F9D17B4E6E44B06211
:101BE000002486948794889489948A948B948C9406
:101BF0008D948E948F9490949194282392931C3377
:101C000093933A2294920B3A95921F32969297931D
:101C1000253B989316339993083B9A930A339B93E9
:101C200025339C930C3B9D93153B9E9327339F93A9
:101C30000C3BA093553BA1934C3AA292A393A4943E
:101C4000A5947F336A46862189005218D450CC214E
:101C5000C90069440A600B234B60A627FF006F444C
:101C6000082238000AF0CCFF34637463B4633C6824
:101C70007B685F00FF18BF00E619BA10BB18180197
:101C80001B1818021B1818041818400080184F4A17
:101C9000974217D800281AD04D4A904215D84300D1
:101CA000181880000AF0B2FF4B4B6B441860C7193C
:101CB0004A4B6B441F60A6420BD0030007CC07C3FE
:101CC0001800F8E7434811F069F911F03FF90020D6
:101CD000EAE73D4E6E4470630024A794A894A9944B
:101CE000AA94AB94AC94AD94AE94AF94B094B194E8
:101CF000B294B394B494B5940623B6930733B793D0
:101D0000013BB8932633B9932233BA930B3BBB9371
:101D1000023BBC932E33BD930F3BBE932F3BBF932F
:101D20002533C0930C3BC193143BC2932733C39319
:101D30000D3BC493553BC5930222C6927E32694641
:101D4000A720800009188B50CD21C9006944A7AB9A
:101D50000B600B234B60A627FF006F44082238005E
:101D60000AF04EFFF463346474643C687B685F007F
:101D7000FF18BF00E619BA10BB1818011B1818028B
:101D80001B181804181840008018104A974213D8DE
:101D9000002816D00E4A904211D84300181880002F
:101DA0000AF034FFBE23DB006B441860C719BF2361
:101DB000DB006B441F6017E0064811F0EFF811F0EC
:101DC000C5F80020EEE7C046B4050000F8FFFF7F2D
:101DD000AAAAAA0A94C30110E4050000EC050000B9
:101DE000030007CC07C31800A642F9D1B94E6E44D0
:101DF00030640024C894C994CA94CB94CC94CD94F4
:101E0000CE94CF94D094D194D294D3942923D493C4
:101E10004422D5921233D6932F21D7911F31D891D6
:101E2000D992253ADA921532DB92063ADC920932DF
:101E3000DD922632DE920D3ADF92E0932733E19372
:101E40000E3BE293533BE3934E3AE492E593E694E0
:101E5000E7947F336A46C82189005218D450CE21B6
:101E6000C90069440A600B234B60A627FF006F443A
:101E7000082238000AF0C4FEB464F46434653C6897
:101E80007B685F00FF18BF00E619BA10BB18180185
:101E90001B1818021B1818041818400080188E4AC6
:101EA000974211D8002814D08C4A90420FD8430092
:101EB000181880000AF0AAFE894B6B441860C719F5
:101EC000884B6B441F600AE0874811F067F811F0F7
:101ED0003DF80020F0E7030007CC07C31800A64236
:101EE000F9D17C4C6C44E064E9AB0122E992013207
:101EF0005A609A604021D9602B3119610F395961BC
:101F0000143999613131D961113919625E205862F1
:101F10009C269E62143EDE62473E1E632C365E6344
:101F200098631F38D86319640E3959642F3999643E
:101F30001C31D9640A3919655A6502329A65DA6525
:101F400000261E665E669E66DE661E675E679E678C
:101F5000DE677C329E50CF21C90069440B600B23A1
:101F60004B60A627FF006F44082238000AF048FEA5
:101F70006665A665E6653C687B685F00FF18BF0084
:101F8000E619BA10BB1818011B1818021B18180400
:101F9000181840008018504A974219D800281CD0C1
:101FA0004E4A904217D84300181880000AF02EFEBF
:101FB000C123DB006B441860C719C223DB006B44EC
:101FC0001F60A6420BD0030007CC07C31800F8E738
:101FD000454810F0E3FF10F0B9FF0020E8E73D4C62
:101FE0006C44A065FFAB2C3300261E605E609E60D3
:101FF0000622DA6003321A615A6124329A611F3272
:10200000DA610A3A1A6235215962243199620E392D
:10201000D9621431196342315963163999635039C1
:10202000D963263119640B3959649A642D32DA6404
:102030000F3A1A655E659E65DE651E665E669E6683
:10204000DE661E675E679E67DE6720329E50D02187
:10205000C90069440B600B234B60A627FF006F4447
:10206000082238000AF0CCFD26666666A6663C6843
:102070007B685F00FF18BF00E619BA10BB18180193
:102080001B1818021B181804181840008018124A50
:10209000974217D800281AD0104A904215D843000A
:1020A000181880000AF0B2FD104B6B441860C71975
:1020B0000F4B6B441F60A6421CD0030007CC07C324
:1020C0001800F8E7084810F069FF10F03FFF002003
:1020D000EAE7C046B4050000F8FFFF7FAAAAAA0AF3
:1020E000FC0500000406000094C301101406000063
:1020F0001C060000CF4C6C446066FFABB03300267A
:102100001E605E609E60DE601E615E610E229A61EE
:102110000932DA61033A1A622A2058624721996229
:102120002A32DA62186359639A632A32DA634632D2
:102130001A64163A5A64783A9A641832DA64083A99
:102140001A655E659E65DE651E665E669E66DE6677
:102150001E675E679E67DE6750329E50D121C900C0
:1021600069440B600B234B60A627FF006F440822D5
:1021700038000AF045FDE666266766673C687B68BE
:102180005F00FF18BF00E619BA10BB1818011B1832
:1021900018021B181804181840008018A64A974205
:1021A00019D800281CD0A54A904217D84300181807
:1021B00080000AF02BFDC423DB006B441860C719B4
:1021C000C523DB006B441F60A6420BD0030007CC85
:1021D00007C31800F8E79A4810F0E0FE10F0B6FECA
:1021E0000020E8E7934C6C442067A623DB006B4497
:1021F00000261E605E609E60DE601E615E619E6104
:10220000DE611E625E629E62DE6209221A63053230
:102210005A63013A9A63063ADA6304321A640A216D
:1022200059649E64DE641E655E659E65DE651E669D
:102230005E669E66DE661E675E679E67DE67802757
:10224000DE51D221C9006944A623DB006B440B6038
:102250004A60033A68460AF0D3FCA667E667E6518F
:10226000009C019B5F00FF18BF00E619BA10BB1865
:1022700018011B1818021B181804181840008018A1
:102280006D4A974219D800281CD06C4A904217D842
:102290004300181880000AF0B9FC6A4B6B441860C0
:1022A000C71980236A4663495218D750A6420BD0FB
:1022B000030007CC07C31800F8E7614810F06EFE72
:1022C00010F044FE0020E8E7C623DB006B441860F2
:1022D000C724E4006C44574F6F4427600B236360AE
:1022E000D426F6006E44D323DB006B441E60564AAE
:1022F000511F0023D320C0006844FEF707F8534B5A
:102300009C466544D323DB006B4419002800FEF78C
:1023100023FE80460822210068460AF071FC002353
:10232000220039004046FFF71FF9D323DB006B443E
:102330001868B04203D03368591C0AF073FCC724F4
:10234000E4006C443B4B6B449C4208D00C3C20683E
:10235000A368191A0028F5D00AF064FCF2E70024FB
:10236000029403940494059406940794012308931B
:1023700009930A930B940C940D940E940F9410945B
:102380001194129413941494159416941794189409
:1023900019941A931B931C931D941E941F942094BC
:1023A00021947F336A4608215218D450D721C9009E
:1023B00069440A600B234B60A626F6006E4408228F
:1023C00030000AF01DFC1B4B6B441C60B723DB0084
:1023D0006B441C601E4B6B441C60346873685F0068
:1023E000FF18BF00E619BA10BB1818011B18180215
:1023F0001B1818041818400080180F4A974211D86B
:10240000002814D00D4A90420FD8430018188000BD
:102410000AF0FCFB074B6B441860C7190C4B6B446C
:102420001F601BE0064810F0B9FD10F08FFD002082
:10243000F0E7C046B4050000F8FFFF7FAAAAAA0A89
:1024400094C301102C06000061C30110602A000033
:10245000BC050000030007CC07C31800A642F9D151
:10246000BC4E6E44706000242394249425942694DA
:10247000279428940E22299214232A9315212B9114
:102480002D312C9117312D9106312E914E392F91EE
:1024900006313091013131913294339434941220C9
:1024A00035903691013137912A3138911731399170
:1024B00006313A913B9205323C923D933E943F94D3
:1024C0004094419442946C336A462C315218D45053
:1024D000D821C90069440A600B234B60A627FF007E
:1024E0006F44082238000AF08BFBF4603461746199
:1024F0003C687B685F00FF18BF00E619BA10BB1884
:1025000018011B1818021B1818041818400080180E
:10251000914A974213D8002816D0904A904211D879
:102520004300181880000AF071FBB823DB006B44ED
:102530001860C719B923DB006B441F600AE08848A4
:1025400010F02CFD10F002FD0020EEE7030007CC98
:1025500007C31800A642F9D17E4E6E4430610024B4
:1025600044944594469447944894499411234A933B
:1025700006334B9301334C936E224D9295214E912D
:1025800009314F91493950911D3151910731529183
:102590005F3953910931549102315591313156913E
:1025A0001D31579107315891599226325A9209326A
:1025B0005B928D3A5C9206325D925E935F9460947A
:1025C00061946294639468336A4696315218D45089
:1025D000D921C90069440A600B234B60A627FF007C
:1025E0006F44082238000AF00BFBB461F4613462D6
:1025F0003C687B685F00FF18BF00E619BA10BB1883
:1026000018011B1818021B1818041818400080180D
:10261000514A974217D800281AD0504A904215D8EC
:102620004300181880000AF0F1FA4E4B6B44186012
:10263000C7194D4B6B441F60A6420BD0030007CC5B
:1026400007C31800F8E7464810F0A8FC10F07EFC1D
:102650000020EAE73F4E6E44F061002465946694E2
:102660006794689469946A9409236B930C226C9222
:1026700004336D933B336E931A336F930633709329
:10268000502071906C2172910A3373931D277497B7
:102690000B377597023776977790789179932B3B24
:1026A0007A9319337B9306337C935E3B7D9303339C
:1026B0007E937F92809481948294839484947432E4
:1026C00069464530FF3009188C50DA21C900694449
:1026D00065AA0A604B60A627FF006F4408223800F5
:1026E0000AF08EFA7462B462F4623C687B685F0040
:1026F000FF18BF00E619BA10BB1818011B18180202
:102700001B181804181840008018134A974219D84B
:1027100000281CD0114A904217D843001818800096
:102720000AF074FABB23DB006B441860C719BC23A2
:10273000DB006B441F60A64218D0030007CC07C320
:102740001800F8E7064810F029FC10F0FFFB002005
:10275000E8E7C046B4050000F8FFFF7FAAAAAA0A6E
:1027600094C30110CC050000D4050000CC4C6C448F
:10277000A062012386930133879388931A2189915C
:1027800023228A9225268B963D208C902F328D9283
:1027900005328E923C3A8F92093290922727919778
:1027A000193792971637939705379497063F959761
:1027B0001D37969707379797373F98971737999709
:1027C00006379A97433F9B979C9603369D969E901B
:1027D00016309F900530A090A191A2920232A39250
:1027E000A4930133A5935A326946C130FF300918CA
:1027F0008B50DB21C900694486AB0B600B234B6017
:10280000A626F6006E44082230000AF0F9F90023EB
:1028100023636363A363346873685F00FF18BF00BA
:10282000E619BA10BB1818011B1818021B18180457
:102830001818400080189B4A974217D800281AD0D1
:10284000994A904215D84300181880000AF0DEF922
:10285000964B6B441860C719954B6B441F60A6429A
:102860000BD0030007CC07C31800F8E7914810F01D
:1028700095FB10F06BFB0020EAE7894C6C44606329
:102880001D21A7912822A8922A239A46A99370274E
:10289000AA979726AB96A020AC903433AD93203303
:1028A000AE930833AF93373BB0931B33B1930733E9
:1028B000B293203BB3931C33B4930733B593083BD7
:1028C0009846B6932633B7930833B893433BB993EE
:1028D0001F33BA9307339C46BB932D3BBC934346AF
:1028E000BD930633BE93153BBF936346C093083335
:1028F000C193C297C396C490C591C69258326B4695
:10290000A72189005B1851469950DC21C900694410
:102910000B600B234B60A626F6006E4408223000A5
:102920000AF06EF90023E363236463643468736818
:102930005F00FF18BF00E619BA10BB1818011B187A
:1029400018021B181804181840008018554A97429E
:1029500019D800281CD0544A904217D843001818A0
:1029600080000AF053F9BE23DB006B441860C719DE
:10297000BF23DB006B441F60A6420BD0030007CCD3
:1029800007C31800F8E74B4810F008FB10F0DEFA18
:102990000020E8E7424C6C4420640223C8930322E1
:1029A000C992CA921A21CB912132CC922620CD9085
:1029B0001730CE905326CF960536D0963D3ED19611
:1029C000D2920332D3921932D4923B36D5961B322F
:1029D000D692D7961D36D8960736D996373EDA96D0
:1029E000DB920632DC92453ADD920932DE921B3EE2
:1029F000DF96E0901530E1900530E290E3910931E7
:102A0000E491E592243AE692E7937F326946C82042
:102A1000800009188B50DD21C9006944C8AB0B60E8
:102A20000B234B60A626F6006E44082230000AF005
:102A3000E7F80023A364E3642365346873685F00E8
:102A4000FF18BF00E619BA10BB1818011B181802AE
:102A50001B181804181840008018124A974217D8FB
:102A600000281AD0104A904215D843001818800048
:102A70000AF0CCF8104B6B441860C7190F4B6B442D
:102A80001F60A6421CD0030007CC07C31800F8E75C
:102A9000084810F083FA10F059FA0020EAE7C0461F
:102AA000B4050000F8FFFF7FAAAAAA0AE405000007
:102AB000EC05000094C30110FC05000004060000B2
:102AC000BB4C6C44E064E9AB0026E9965E609E6016
:102AD000DE601E615E6108229A6103329146DA610E
:102AE0000C21196247205862193098620630D8626A
:102AF0001638844618636C275F632230986312325D
:102B0000DA630B321A6402325A6462469A64DF64F2
:102B100018652A3858651A3098650630D8655F38C8
:102B20001866596601319966DE661E675E679E67A4
:102B3000DE6773315E50DE21C90069440B604B468D
:102B40004B60A627FF006F44483A38000AF058F857
:102B50006665A665E6653C687B685F00FF18BF0098
:102B6000E619BA10BB1818011B1818021B18180414
:102B70001818400080188F4A974213D8002816D0A2
:102B80008D4A904211D84300181880000AF03EF890
:102B9000C123DB006B441860C719C223DB006B4400
:102BA0001F600AE0854810F0F9F910F0CFF9002015
:102BB000EEE7030007CC07C31800A642F9D17C4C0E
:102BC0006C44A065FFAB2C3300261E605E609E60E7
:102BD000DE601E615E6110229A610632DA610232A5
:102BE0001A626E215962942098620930D86247387F
:102BF00018631D305863073098636038D863093014
:102C0000186402305864303098641D30D86407303E
:102C100018655965273199650931D9658D39196666
:102C2000063159669A66DE661E675E679E67DE67D6
:102C300068329E50DF21C90069440B600B234B6052
:102C4000A627FF006F440822380009F0D9FF266646
:102C50006666A6663C687B685F00FF18BF00E619E1
:102C6000BA10BB1818011B1818021B1818041818E2
:102C7000400080184F4A974211D8002814D04E4A7D
:102C800090420FD843001818800009F0BFFF4C4B4A
:102C90006B441860C7194B4B6B441F600AE04748F0
:102CA00010F07CF910F052F90020F0E7030007CC97
:102CB00007C31800A642F9D13D4C6C446066FFABD7
:102CC000B03300261E605E609E60DE601E615E6145
:102CD0000E2199611322DA6101321A62432058628F
:102CE000173098620630D8624E3818630630586341
:102CF00019279F63DE631E645E64083F9F64063786
:102D0000DF6418652A305865173098650630D86535
:102D100019665A6601329A66DE661E675E679E67AE
:102D2000DE676B329E50E021C90069440B600B23C3
:102D30004B60A627FF006F440822380009F060FFAF
:102D4000E666266766673C687B685F00FF18BF0021
:102D5000E619BA10BB1818011B1818021B18180422
:102D6000181840008018134A974219D800281CD020
:102D7000114A904217D843001818800009F046FF06
:102D8000C423DB006B441860C719C523DB006B4408
:102D90001F60A64218D0030007CC07C31800F8E74D
:102DA000064810F0FBF810F0D1F80020E8E7C04624
:102DB000B4050000F8FFFF7FAAAAAA0A94C3011075
:102DC000140600001C060000D34C6C442067A623A8
:102DD000DB006B4400261E605E609E60DE601E614C
:102DE0005E6101229A61DA611A625E629E62DE624F
:102DF0001E635E639E63DE631E645E649E64DE64C7
:102E00001E655E659E65DE651A665A669A66DE66B2
:102E10001E675E679E67DE678027DE51E121C9007D
:102E20006944A623DB006B440B600B234B60082234
:102E3000684609F0E5FEA667E667E651009C019B3F
:102E40005F00FF18BF00E619BA10BB1818011B1865
:102E500018021B181804181840008018AF4A97422F
:102E600013D8002816D0AE4A904211D84300181843
:102E7000800009F0CBFEAB4B6B441860C719802370
:102E80006A46A5495218D7500AE0A74810F086F8BC
:102E900010F05CF80020EEE7030007CC07C3180031
:102EA000A642F9D1C623DB006B441860D624E400A7
:102EB0006C44994F6F4427600B236360E326F60050
:102EC0006E44E223DB006B441E60984A111F00230E
:102ED000E220C0006844FDF719FAE223DB006B44EE
:102EE00019002800FEF738F88046082221006846BD
:102EF00009F086FE0023C722D2006A44390040460A
:102F0000FEF732FBE223DB006B441868B04203D0CB
:102F10003368591C09F086FEC724E4006C447E4BDC
:102F20006B449C4208D00C3C2068A368191A002806
:102F3000F5D009F077FEF2E700240294039404949C
:102F400005940694079404230893099302220A9295
:102F5000033B0B930C930D940E940F941094053334
:102F60001193023312931392153214920432159274
:102F700016931794189419941A941B941C941D94E6
:102F80001E941F942094219478336A460821521885
:102F9000D450E621C90069440A600B234B60A62681
:102FA000F6006E440822300009F02AFE5A4B6B44AA
:102FB0001C60B723DB006B441C605D4B6B441C60E2
:102FC000346873685F00FF18BF00E619BA10BB18B9
:102FD00018011B1818021B18180418184000801834
:102FE0004E4A974217D800281AD04D4A904215D819
:102FF00043001818800009F009FE474B6B44186025
:10300000C7194B4B6B441F60A6420BD0030007CC83
:1030100007C31800F8E744480FF0C0FF0FF096FF11
:103020000020EAE73C4E6E44706000242394249410
:103030002594269427942894252229922D232A9397
:10304000213B2B9368212C9117312D912E92043A1C
:103050002F920732309231933D33329310333393B2
:103060003F3B3493243335930C333693353B3793BE
:10307000389439943A943B943C943D943E943F94D4
:103080004094419442946B336A460D315218D450A7
:10309000E721C90069440A600B234B60A627FF00A3
:1030A0006F440822380009F0ABFDF46034617461AC
:1030B0003C687B685F00FF18BF00E619BA10BB18B8
:1030C00018011B1818021B18180418184000801843
:1030D000124A974219D800281CD0114A904217D89A
:1030E00043001818800009F091FDB823DB006B4401
:1030F0001860C719B923DB006B441F60A64219D0C2
:10310000030007CC07C31800F8E707480FF046FF95
:103110000FF01CFF0020E8E7B4050000F8FFFF7F78
:10312000AAAAAA0A2C06000094C3011078C30110B1
:10313000BC050000BC4E6E443061002444944594AC
:1031400046944794489449944A944B944C944B2306
:103150004D935A224E92313B4F9332215091093177
:1031600051912B39529106315391063154911439B2
:103170005591413156915792589343335993133394
:103180005A93503B5B935C945D945E945F9460941F
:1031900061946294639460336A46C7315218D45084
:1031A000E821C90069440A600B234B60A627FF0091
:1031B0006F440822380009F023FDB461F4613462E1
:1031C0003C687B685F00FF18BF00E619BA10BB18A7
:1031D00018011B1818021B18180418184000801832
:1031E000924A974217D800281AD0914A904215D88F
:1031F00043001818800009F009FD8E4B6B441860DD
:10320000C7198D4B6B441F60A6420BD0030007CC3F
:1032100007C31800F8E789480FF0C0FE0FF096FECC
:103220000020EAE7804E6E44F061002465946694C5
:103230006794689469946A9402236B936C93013B3E
:103240006D9351336E9311336F93453B70934833B5
:10325000719315337293583B7393543374931933AA
:103260007593653B76930E3377930D337893323BAA
:10327000799333337A9310337B933D3B7C931733AD
:103280007D930B337E932A3B7F9380948194829429
:10329000839484946E336A46CA2149005218D450EC
:1032A000E921C90069440A600B234B60A627FF008F
:1032B0006F440822380009F0A3FC7462B462F4621F
:1032C0003C687B685F00FF18BF00E619BA10BB18A6
:1032D00018011B1818021B18180418184000801831
:1032E000524A974213D8002816D0514A904211D81A
:1032F00043001818800009F089FCBB23DB006B44F5
:103300001860C719BC23DB006B441F600AE04B4800
:103310000FF044FE0FF01AFE0020EEE7030007CC8A
:1033200007C31800A642F9D13F4E6E44B062002494
:103330008694879488940623899309218A9103228D
:103340008B920D338C9318278D970C3B98468E9358
:103350005B208F90123090904E3891901B33929357
:10336000063393931C3B94939594969497949897D3
:1033700099909A9143469B9301339C9307399D9171
:1033800078319E911B319F916A39A091A193A293AC
:10339000A392A494A59478336A46EE31FF31521873
:1033A000D450EA21C90069440A600B234B60A62768
:1033B000FF006F440822380009F022FC3463746374
:1033C000B4633C687B685F00FF18BF00E619BA1061
:1033D000BB1818011B1818021B18180418184000F5
:1033E0008018124A974217D800281AD0104A9042E3
:1033F00015D843001818800009F008FC104B6B44E6
:103400001860C7190F4B6B441F60A6421CD0030005
:1034100007CC07C31800F8E708480FF0BFFD0FF00E
:1034200095FD0020EAE7C046B4050000F8FFFF7FE5
:10343000AAAAAA0ACC050000D405000094C3011072
:10344000E4050000EC050000BD4E6E4470630423EB
:10345000A793A893023BA9938022AA929C21AB91A7
:103460002E20AC900231AD912231AE918839AF91CE
:103470003524B0940A34B1942E3CB2940024B39411
:10348000B494B594B694B794B894B994BA94BB94E0
:10349000BC94BD94BE94BF90C0912839C19158315D
:1034A000C2911431C3915739C491C593C693013B5E
:1034B0006946A720800009188B50EB21C900694498
:1034C000A7AB0B600B234B60A627FF006F440822BD
:1034D000380009F095FBF463346474643C687B68DD
:1034E0005F00FF18BF00E619BA10BB1818011B18BF
:1034F00018021B181804181840008018914A9742A7
:1035000019D800281CD0904A904217D843001818A8
:10351000800009F07BFBBE23DB006B441860C719F9
:10352000BF23DB006B441F60A6420BD0030007CC17
:1035300007C31800F8E785480FF030FD0FF006FDCF
:103540000020E8E77E4E6E4430640024C894C9949D
:10355000CA940623CB930333CC930322CD92132139
:10356000CE910531CF911139D0915431D191123191
:10357000D2914E39D3910331D4912920D5901D3861
:10358000D690D794D894D9940F30DA90DB91DC930D
:10359000013BDD931839DE910839DF917A31E091F2
:1035A0001931E1916939E291E393E493E592E6946C
:1035B000E79478336A46C82189005218D450EC2128
:1035C000C90069440A600B234B60A627FF006F44C3
:1035D0000822380009F014FBB464F46434653C68D4
:1035E0007B685F00FF18BF00E619BA10BB1818010E
:1035F0001B1818021B181804181840008018514A8C
:10360000974217D800281AD04F4A904215D8430045
:103610001818800009F0FAFA4D4B6B441860C7196E
:103620004C4B6B441F60A6420BD0030007CC07C372
:103630001800F8E745480FF0B1FC0FF087FC0020B8
:10364000EAE73F4C6C44E064E9AB0026E9965E6033
:103650009E60DE601E615E6102229A61DA61013A5B
:103660001A6251325A6211329A62453ADA6248322B
:103670001A6315325A63563A9A635232DA631A322F
:103680001A64673A5A6410329A640D32DA64323A34
:103690001A6533325A650F329A653E3ADA65193245
:1036A0001A660A325A662A3A9A66DE661E675E67AC
:1036B0009E67DE676E329E50ED21C90069440B6043
:1036C0000B234B60A627FF006F440822380009F047
:1036D00097FA6665A665E6653C687B685F00FF183B
:1036E000BF00E619BA10BB1818011B1818021B18E6
:1036F0001804181840008018124A974219D8002858
:103700001CD0114A904217D843001818800009F0C5
:103710007DFAC123DB006B441860C719C223DB00AC
:103720006B441F60A64217D0030007CC07C31800E4
:10373000F8E706480FF032FC0FF008FC0020E8E73D
:10374000B4050000F8FFFF7FAAAAAA0A94C30110DB
:10375000FC05000004060000D84C6C44A065FFABDB
:103760002C3300261E605E609E60DE601E615E611E
:103770009E61DE611E624A225A6211329A62403AAA
:10378000DA6218321A6309325A632A3A9A630532A6
:10379000DA6305321A64153A5A6444329A640F3275
:1037A000DA64403A1A6543325A6513329A65503AE0
:1037B000DA651E665E669E66DE661E675E679E67EB
:1037C000DE6760329E50EE21C90069440B600B2316
:1037D0004B60A627FF006F440822380009F010FA5A
:1037E00026666666A6663C687B685F00FF18BF00B9
:1037F000E619BA10BB1818011B1818021B18180478
:10380000181840008018AE4A974217D800281AD0DE
:10381000AC4A904215D843001818800009F0F6F918
:10382000A94B6B441860C719A84B6B441F60A64294
:103830000BD0030007CC07C31800F8E7A4480FF02B
:10384000ADFB0FF083FB0020EAE79C4C6C44606604
:10385000FFABB03300261E605E609E60DE601E61BE
:103860005E6125229A612D21D961213919625C316D
:10387000596217319962DA62063A1A6308325A635A
:103880001C3A9A633639D963103119643F39596447
:10389000233199640D31D964353919655E659E65AA
:1038A000DE651E665E669E66DE661E675E679E67F6
:1038B000DE676B315E50EF21C90069440B604A60DE
:1038C000A627FF006F44033A380009F099F9E6662D
:1038D000266766673C687B685F00FF18BF00E619D3
:1038E000BA10BB1818011B1818021B181804181856
:1038F00040008018724A974219D800281CD0714A9B
:10390000904217D843001818800009F07FF9C423AB
:10391000DB006B441860C719C523DB006B441F60D4
:10392000A6420BD0030007CC07C31800F8E768488D
:103930000FF034FB0FF00AFB0020E8E75F4C6C440B
:103940002067A623DB006B4400261E605E609E603D
:10395000DE601E615E6104229A61DA61023A1A62D7
:10396000012159629962DE621E635E639E630531C6
:10397000D963023119645A6415329A640432DA64E4
:10398000143A1A655E659E65DE651E665E669E6615
:10399000DE661E675E679E67DE678027DE51F02168
:1039A000C9006944A623DB006B440B600B234B600A
:1039B0000822684609F024F9A667E667E651009CEC
:1039C000019B5F00FF18BF00E619BA10BB18180171
:1039D0001B1818021B181804181840008018384AC1
:1039E000974219D800281CD0364A904217D8430075
:1039F0001818800009F00AF9364B6B441860C71993
:103A000080236A462D495218D750A6420BD0030096
:103A100007CC07C31800F8E72D480FF0BFFA0FF0E6
:103A200095FA0020E8E7C623DB006B441860E52424
:103A3000E4006C44214F6F4427600B236360F2263F
:103A4000F6006E44F123DB006B441E60224A911F96
:103A50000023F120C0006844FCF758FCF123DB0090
:103A60006B4419002800FDF777FA804608222100F0
:103A7000684609F0C5F80023C722D2006A4439001D
:103A80004046FDF771FDF123DB006B441868B0423E
:103A900003D03368591C09F0C5F8C724E4006C440E
:103AA000064B6B449C4219D00C3C2068A368191A41
:103AB0000028F5D009F0B6F8F2E7C046B4050000DA
:103AC000F8FFFF7FAAAAAA0A140600001C0600003D
:103AD00094C301102C06000072C30110002402944C
:103AE00003940494059406940794089409940A9402
:103AF0000B940C940D940E940F94109411941294B2
:103B000013941494159416941794189419941A9461
:103B10001B941C941D941E941F9420942194802324
:103B20006A4608215218D450F521C90069440A6038
:103B30000B234B60A626F6006E440822300009F0E5
:103B40005FF8D64B6B441C60B723DB006B441C60F2
:103B5000D34B6B441C60346873685F00FF18BF0070
:103B6000E619BA10BB1818011B1818021B18180404
:103B7000181840008018CB4A974217D800281AD04E
:103B8000C94A904215D843001818800009F03EF841
:103B9000C24B6B441860C719C14B6B441F60A642EF
:103BA0000BD0030007CC07C31800F8E7BF480FF09D
:103BB000F5F90FF0CBF90020EAE7B84E6E447060DB
:103BC0000024239424942594269427942894022353
:103BD00029932A932B9344332C9339222D92143218
:103BE0002E923A322F926D213091273131913292BB
:103BF000193A3392273234923E3A359236931A3339
:103C00003793483B3893063B399307333A933B94B9
:103C10003C943D943E943F94409441944294673345
:103C20006A4608395218D450F621C90069440A601E
:103C30000B234B60A627FF006F440822380008F0D2
:103C4000DFFFF460346174613C687B685F00FF18DB
:103C5000BF00E619BA10BB1818011B1818021B1870
:103C600018041818400080188E4A974219D8002866
:103C70001CD08D4A904217D843001818800008F0D5
:103C8000C5FFB823DB006B441860C719B923DB00FC
:103C90006B441F60A6420BD0030007CC07C318007B
:103CA000F8E782480FF07AF90FF050F90020E8E7C2
:103CB0007A4E6E443061002444944594469447946F
:103CC0004894499425234A93073B4B930B334C93D9
:103CD0004A334D93153B4E9321334F93073B5093FB
:103CE000163B519323335293813B539354930133A7
:103CF000559356945794589459945A945B945C9461
:103D00005D945E945F9460946194629463947B3359
:103D10006A46882149005218D450F721C9006944E5
:103D20000A600B234B60A627FF006F44082238006F
:103D300008F066FFB461F46134623C687B685F0040
:103D4000FF18BF00E619BA10BB1818011B1818029B
:103D50001B181804181840008018524A974211D8AE
:103D6000002814D0504A90420FD843001818800001
:103D700008F04CFF4E4B6B441860C7194D4B6B4419
:103D80001F600AE049480FF009F90FF0DFF8002042
:103D9000F0E7030007CC07C31800A642F9D13F4E55
:103DA0006E44F06100246594669467946894699405
:103DB0006A9415236B9311226C9206326D9297329E
:103DC0006E92213A6F92333270928F3A7192093A21
:103DD00072920E3273927494759476941D3A77921F
:103DE00078930833799322337A930B3B7B93123386
:103DF0007C93433B7D937E9301337F93023B80937F
:103E000081938293839484947E336A46CA214900C5
:103E10005218D450F821C90069440A600B234B6042
:103E2000A627FF006F440822380008F0E9FE7462FC
:103E3000B462F4623C687B685F00FF18BF00E6195B
:103E4000BA10BB1818011B1818021B1818041818F0
:103E500040008018134A974219D800281CD0124AF3
:103E6000904217D843001818800008F0CFFEBB23FB
:103E7000DB006B441860C719BC23DB006B441F6078
:103E8000A64219D0030007CC07C31800F8E707487B
:103E90000FF084F80FF05AF80020E8E7B4050000AE
:103EA000BC050000F8FFFF7FAAAAAA0A94C301106C
:103EB000CC050000D4050000BB4E6E44B062002467
:103EC00086948794889489948A948B941F238C93E6
:103ED000063B8D9309338E9384338F931F3B9093CE
:103EE000303391935E3B9293113B93931B339493A6
:103EF000623B9593969397931F339893063B9993C0
:103F000009339A938C339B93213B9C9333339D933A
:103F1000433B9E93193B9F932633A093663BA1930B
:103F2000073BA2930B33A393A494A59457336A46FB
:103F3000862189005218D450F921C90069440A60C9
:103F40000B234B60A627FF006F440822380008F0BF
:103F500057FE34637463B4633C687B685F00FF188A
:103F6000BF00E619BA10BB1818011B1818021B185D
:103F700018041818400080188C4A974211D800285D
:103F800014D08B4A90420FD843001818800008F0D4
:103F90003DFE884B6B441860C719874B6B441F600C
:103FA0000AE086480EF0FAFF0EF0D0FF0020F0E79E
:103FB000030007CC07C31800A642F9D17A4E6E441D
:103FC00070630024A794A894A9940823AA930722B5
:103FD000AB92AC93073BAD93AE930133AF932233D7
:103FE000B093083BB1930A33B293173BB393033BAF
:103FF000B4930433B5937621B6915932B7927333A3
:10400000B8933720B9900A38BA900F30BB9002307D
:10401000BC900B38BD901130BE905E30BF90C09305
:104020001130C190C291C392C493C594C694033B0E
:104030006A46A72189005218D450FA21C900694460
:104040000A600B234B60A627FF006F44082238004C
:1040500008F0D6FDF463346474643C687B685F00E8
:10406000FF18BF00E619BA10BB1818011B18180278
:104070001B1818041818400080184C4A974219D889
:1040800000281CD04A4A904217D8430018188000D4
:1040900008F0BCFDBE23DB006B441860C719BF23CA
:1040A000DB006B441F60A6420BD0030007CC07C3A4
:1040B0001800F8E741480EF071FF0EF047FF0020AE
:1040C000E8E7394E6E4430640024C894C994CA9419
:1040D0004A23CB930D3BCC931533CD93CE94CF9401
:1040E000D094D194D294D394D494D594D694163BAE
:1040F000D7930C3BD8931133D993DA94DB94DC94A7
:10410000DD94DE94DF941433E093103BE193183395
:10411000E2932C33E3931A3BE4932833E593E6943C
:10412000E794173B6A46C82189005218D450FB21F6
:10413000C90069440A600B234B60A627FF006F4447
:104140000822380008F05CFDB464F46434653C680F
:104150007B685F00FF18BF00E619BA10BB18180192
:104160001B1818021B1818041818400080180F4A52
:10417000974211D8002814D00D4A90420FD843001E
:104180001818800008F042FD0D4B6B441860C719E9
:104190000C4B6B441F601BE008480EF0FFFE0EF056
:1041A000D5FE0020F0E7C046B4050000F8FFFF7F11
:1041B000AAAAAA0AE4050000EC05000094C30110B5
:1041C000FC05000004060000030007CC07C318002C
:1041D000A642F9D1B94C6C44E064E9AB0026E996FB
:1041E0005E609E604C22DA600F3A1A6117325A61A3
:1041F00015329A61143ADA61742119624C395962A4
:10420000083999620C31D9621A630F3A5A6318322D
:104210009A633632DA631D3A1A642B325A64753A5D
:104220009A64083ADA640D321A655E659E65DE6549
:104230001E321A6616315966163199660F39D966DB
:104240000D3919675A679E67DE6730329E50FC2130
:10425000C90069440B600B234B60A627FF006F4425
:104260000822380008F0CCFC6665A665E6653C6867
:104270007B685F00FF18BF00E619BA10BB18180171
:104280001B1818021B1818041818400080188C4AB4
:10429000974219D800281CD08A4A904217D8430068
:1042A0001818800008F0B2FCC123DB006B441860D2
:1042B000C719C223DB006B441F60A6420BD003006A
:1042C00007CC07C31800F8E77F480EF067FE0EF032
:1042D0003DFE0020E8E7794C6C44A065FFAB2C3331
:1042E00000261E605E609E600322DA601A61013261
:1042F0005A617B329A61173ADA6124321A620832C3
:104300005A621C3A9A622A32DA62123A1A631A3AEA
:104310005A6329329A63393ADA63512119640A32AD
:104320005A64683A9A640720D8641A65063A5A654E
:104330009A65DA655D30186659661E319966DA66E7
:104340001A675A679E67DE677E329E50FD21C9005C
:1043500069440B600B234B60A627FF006F440822C3
:10436000380008F04DFC26666666A6663C687B68E9
:104370005F00FF18BF00E619BA10BB1818011B1820
:1043800018021B1818041818400080184C4A97424D
:1043900017D800281AD04B4A904215D84300181855
:1043A000800008F033FC494B6B441860C719484B38
:1043B0006B441F60A6420BD0030007CC07C3180054
:1043C000F8E741480EF0EAFD0EF0C0FD0020EAE7F4
:1043D0003A4C6C446066FFABB03300261E605E60F2
:1043E0009E60DE601E615E6102229A61DA611A627D
:1043F00038325A620B3A9A621132DA62323A1A63EE
:104400000A2159639A63DE631E645E649E64DE64FF
:104410001E65023A5A6501399965DA65083A1A66E5
:104420005A669A66DE661E675E679E67DE677C3246
:104430009E50FE21C90069440B600B234B60A627E8
:10444000FF006F440822380008F0DAFBE6662667B2
:1044500066673C687B685F00FF18BF00E619BA100A
:10446000BB1818011B1818021B1818041818400054
:104470008018134A974219D800281CD0114A90423C
:1044800017D843001818800008F0C0FBC423DB00D5
:104490006B441860C719C523DB006B441F60A6423C
:1044A00018D0030007CC07C31800F8E706480EF041
:1044B00075FD0EF04BFD0020E8E7C046B405000096
:1044C000F8FFFF7FAAAAAA0A94C3011014060000ED
:1044D0001C060000CB4E6E443067A623DB006B4405
:1044E00000241C605C609C60DC601C615C619C6101
:1044F000DC611C625C629C62DC621C635C639C63CA
:10450000DC631C645C649C64DC641C655C659C65A9
:10451000DC651C665C669C66DC661C675C679C6789
:10452000DC678027DC51FF21C90069440B600B2345
:104530004B600822684608F063FBB467F467F451E7
:10454000009C019B5F00FF18BF00E619BA10BB1862
:1045500018011B1818021B1818041818400080189E
:10456000A94A974219D800281CD0A84A904217D8C7
:1045700043001818800008F049FBA54B6B441860F5
:10458000C71980236A469F495218D750A6420BD0BC
:10459000030007CC07C31800F8E79E480EF0FEFCA6
:1045A0000EF0D4FC0020E8E7C623DB006B44186063
:1045B000F424E4006C44934F6F4427600B23636042
:1045C000954E6E4480231B016B441E60934AD11F9D
:1045D0000023802000016844FBF798FE80231B0124
:1045E0006B4419002800FCF7B7FC80460822210024
:1045F000684608F005FB0023C722D2006A44390050
:104600004046FCF7B1FF80231B016B441868B042A1
:1046100003D03368591C08F005FBC724E4006C4440
:10462000784B6B449C4208D00C3C2068A368191A54
:104630000028F5D008F0F6FAF2E70024029403947B
:104640000494059406940794089409940A940B948E
:104650000C940D940E940F9410941194129413943E
:104660001494159416941794189419941A941B94EE
:104670001C941D941E941F942094219480236A46B8
:1046800008215218D4508221090169440A600B2381
:104690004B60A626F6006E440822300008F0B0FAFF
:1046A000584B6B441C60B723DB006B441C605C4BB5
:1046B0006B441C60346873685F00FF18BF00E61924
:1046C000BA10BB1818011B1818021B181804181868
:1046D000400080184C4A974211D8002814D04B4A09
:1046E00090420FD843001818800008F08FFA454B0D
:1046F0006B441860C7194A4B6B441F600AE0454879
:104700000EF04CFC0EF022FC0020F0E7030007CC7A
:1047100007C31800A642F9D13A4E6E4470600024D7
:1047200023942494259426942794289429942A94B5
:104730002B942C942D942E9413232F93053B30937C
:104740000A3B319371333293213B33933E3B349395
:104750000B3B359307223692063A379238943994B8
:104760003A943B943C943D943E943F9440944194BD
:1047700042947F3269468C2009188C50294969443B
:1047800023AA0A604B60A627FF006F440822380066
:1047900008F036FAF460346174613C687B685F004D
:1047A000FF18BF00E619BA10BB1818011B18180231
:1047B0001B181804181840008018134A974219D87B
:1047C00000281CD0114A904217D8430018188000C6
:1047D00008F01CFAB823DB006B441860C719B92332
:1047E000DB006B441F60A6421ED0030007CC07C34A
:1047F0001800F8E707480EF0D1FB0EF0A7FB0020E9
:10480000E8E7C046B4050000F8FFFF7FAAAAAA0A9D
:104810002C06000094C30110080800006BC30110AF
:10482000BC05000028080000BE4E6E443061002424
:104830004494459446944794489449944A944B949C
:104840004C9421234D93093B4E93113B4F934C3392
:104850005093163B51932E3B5293AF335393353BBA
:104860005493633B5593AA335693383B57936F3B0E
:104870005893023B59930A3B5A93153B5B935C94C4
:104880005D945E945F9460946194629463947833D1
:104890006A46882149005218D4508321090169448D
:1048A0000A600B234B60A627FF006F4408223800E4
:1048B00008F0A6F9B461F46134623C687B685F007B
:1048C000FF18BF00E619BA10BB1818011B18180210
:1048D0001B181804181840008018934A974217D8DC
:1048E00000281AD0914A904215D843001818800029
:1048F00008F08CF98E4B6B441860C7198D4B6B44D4
:104900001F60A6420BD0030007CC07C31800F8E7CE
:1049100089480EF043FB0EF019FB0020EAE7814EB8
:104920006E44F06100246594669467946894699479
:104930006A943A236B93103B6C931E3B6D93CF3379
:104940006E933C3B6F93743B7093B93371933E3BD2
:104950007293793B739320337493372275923F3B64
:1049600076934B21779178927993BC337A93373B46
:104970007B936A3B7C930D337D930F3B7E931D3B72
:104980007F938094819482948394849476336A464E
:104990004A31FF315218D450684969440A600B23E8
:1049A0004B60A627FF006F440822380008F028F962
:1049B0007462B462F4623C687B685F00FF18BF00F9
:1049C000E619BA10BB1818011B1818021B18180496
:1049D000181840008018544A974213D8002816D05F
:1049E000524A904211D843001818800008F00EF97E
:1049F000BB23DB006B441860C719BC23DB006B448E
:104A00001F600AE04C480EF0C9FA0EF09FFA002031
:104A1000EEE7030007CC07C31800A642F9D1414EC8
:104A20006E44B06200248694879488942A218991E8
:104A30001F238A9308228B9292208C9029388D9084
:104A40004C388E9042308F901B3890903138919036
:104A50007D309290283893904C3894908330959084
:104A60002C38969097933D3098902F3899905F38D6
:104A70009A9016309B9010389C901E389D909330E1
:104A80009E902B389F905238A090A191A293A39210
:104A9000A494A59461336A46EF31FF315218D45083
:104AA0008421090169440A600B234B60A627FF009B
:104AB0006F440822380008F0A3F834637463B463C9
:104AC0003C687B685F00FF18BF00E619BA10BB188E
:104AD00018011B1818021B18180418184000801819
:104AE000114A974217D800281AD0104A904215D878
:104AF00043001818800008F089F8114B6B441860C7
:104B0000C719104B6B441F60A6421DD0030007CC91
:104B100007C31800F8E708480EF040FA0EF016FA3E
:104B20000020EAE7B4050000F8FFFF7FAAAAAA0A5E
:104B3000CC050000D405000094C301103808000023
:104B4000E4050000EC050000BF4E6E4470630024D5
:104B5000A794A894A99480239846AA93223BAB9348
:104B6000453BAC930720AD900421AE91AF94BB338D
:104B7000B0933A3BB1936F3BB2933B27B397B49357
:104B8000203BB593B6970F3FB797B8933D22B992A4
:104B9000BA97BB93A937BC973A3FBD97713FBE9771
:104BA000BF90C091C1947B31C2912339C3914239E6
:104BB000C491C594C6946A46A721890052184146FB
:104BC0005450A24969440A604B60A627FF006F4415
:104BD0000822380008F014F8F463346474643C6804
:104BE0007B685F00FF18BF00E619BA10BB181801F8
:104BF0001B1818021B181804181840008018944A33
:104C0000974219D800281CD0924A904217D84300E6
:104C10001818800007F0FAFFBE23DB006B44186011
:104C2000C719BF23DB006B441F60A6420BD00300F3
:104C300007CC07C31800F8E787480EF0AFF90EF06D
:104C400085F90020E8E7804E6E4430640024C89463
:104C5000C994CA942A23CB930B3BCC930822CD92C0
:104C60009632CE922A3ACF92D0933B3AD192113AD1
:104C7000D2921E3AD392A632D4922F3AD5925F3A6C
:104C8000D6927D32D7922C3AD892D9932032DA92AA
:104C9000283ADB924F3ADC924432DD921B3ADE92A4
:104CA000333ADF928032E092293AE1924C3AE29232
:104CB0000C32E392E493183BE593E694E79479335E
:104CC0006A46C82189005218D450852109016944D7
:104CD0000A600B234B60A627FF006F4408223800B0
:104CE00007F08EFFB464F46434653C687B685F0051
:104CF000FF18BF00E619BA10BB1818011B181802DC
:104D00001B181804181840008018514A974217D8E9
:104D100000281AD04F4A904215D843001818800036
:104D200007F074FF4D4B6B441860C7194C4B6B4434
:104D30001F60A6420BD0030007CC07C31800F8E79A
:104D400045480EF02BF90EF001F90020EAE73E4C41
:104D50006C44E064E9AB0026E9965E609E60DE602C
:104D60001E615E61382199612822DA610A2080463D
:104D70001862CB275F62383F9F62DA62463FBC46CB
:104D80001F6359633F3F9F636046D86316381864BA
:104D90005F64D6379F643E3FDF64793F1F65AE375F
:104DA0005F653C3F9F65743FDF6519665A66424602
:104DB0009A66DE661E675E679E67DE6776329E5085
:104DC000284969440B600B234B60A627FF006F4402
:104DD0000822380007F014FF6665A665E6653C68A2
:104DE0007B685F00FF18BF00E619BA10BB181801F6
:104DF0001B1818021B181804181840008018144AB1
:104E0000974219D800281CD0124A904217D8430064
:104E10001818800007F0FAFEC123DB006B4418600D
:104E2000C719C223DB006B441F60A6421CD00300DD
:104E300007CC07C31800F8E707480EF0AFF80EF0EC
:104E400085F80020E8E7C046B405000048080000E7
:104E5000F8FFFF7FAAAAAA0A94C30110FC0500006C
:104E60000406000058080000CD4C6C44A065FFAB60
:104E70002C3300261E605E609E60DE601E615E61F7
:104E80009E61DE611E6227225A620A3A9A62153AD0
:104E9000DA62C8321A63383A5A636F3A9A639632C2
:104EA000DA63343A1A64653A5A642D329A64163ACF
:104EB000DA642E3A1A6510325A65083A9A65123A3F
:104EC000DA651E665E669E66DE661E675E679E67C4
:104ED000DE677B329E508621090169440B600B23FB
:104EE0004B60A627FF006F440822380007F088FEB9
:104EF00026666666A6663C687B685F00FF18BF0092
:104F0000E619BA10BB1818011B1818021B18180450
:104F1000181840008018A34A974211D8002814D0CE
:104F2000A14A90420FD843001818800007F06EFE87
:104F30009E4B6B441860C7199D4B6B441F600AE081
:104F40009C480EF02BF80EF001F80020F0E703006B
:104F500007CC07C31800A642F9D1914C6C44606697
:104F6000FFABB03300261E605E609E60DE601E6197
:104F70005E619E61DE611E625E629E62DE620B2287
:104F80001A6307215963063999637331D96320394C
:104F900019643D395964053999640639D964083969
:104FA00019655E659E65DE651E665E669E66DE66EA
:104FB0001E675E679E67DE677C315E507E4969448E
:104FC0000B604A60A627FF006F44033A380007F0E1
:104FD00017FEE666266766673C687B685F00FF1819
:104FE000BF00E619BA10BB1818011B1818021B18CD
:104FF00018041818400080186A4A974219D80028E7
:105000001CD0694A904217D843001818800007F056
:10501000FDFDC423DB006B441860C719C523DB000A
:105020006B441F60A6420BD0030007CC07C31800D7
:10503000F8E760480DF0B2FF0DF088FF0020E8E7C8
:10504000574E6E443067A623DB006B4400241C607F
:105050005C609C60DC601C615C619C61DC611C626A
:105060005C629C62DC621C635C639C63DC631C644A
:105070005C649C64DC641C655C659C65DC651C662A
:105080005C669C66DC661C675C679C67DC678027E7
:10509000DC518721090169440B600B234B60082216
:1050A000684607F0ADFDB467F467F451009C019BBE
:1050B0005F00FF18BF00E619BA10BB1818011B18D3
:1050C00018021B181804181840008018354A974217
:1050D00019D800281CD0344A904217D84300181819
:1050E000800007F093FD354B6B441860C71980238F
:1050F0006A462B495218D750A6420BD0030007CC62
:1051000007C31800F8E72B480DF048FF0DF01EFF0D
:105110000020E8E7C623DB006B441860284C6C4491
:105120001F4F6F4427600B236360882636016E444F
:10513000244B6B441E60244AD11E0023214868443E
:10514000FBF7E4F81F4B6B4419002800FBF704FF42
:10515000804608222100684607F052FD0023C7223E
:10516000D2006A4439004046FCF7FEF9154B6B4407
:105170001868B04203D03368591C07F053FDC724A8
:10518000E4006C44064B6B449C421FD00C3C2068EE
:10519000A368191A0028F5D007F044FDF2E7C046CD
:1051A000B4050000F8FFFF7FAAAAAA0A14060000AF
:1051B0001C06000094C30110680800002C060000C3
:1051C00018080000780800007FC301100024029432
:1051D00003940494059406940794089409940A94FB
:1051E0000B940C940D940E940F94109411941294AB
:1051F00013941494159416941794189419941A945B
:105200001B941C941D941E941F942094219480231D
:105210006A4608215218D450DB4969440A600B23BE
:105220004B60A626F6006E440822300007F0E8FC2A
:10523000D64B6B441C60B723DB006B441C60D44B23
:105240006B441C60346873685F00FF18BF00E61988
:10525000BA10BB1818011B1818021B1818041818CC
:1052600040008018CB4A974217D800281AD0CA4A63
:10527000904215D843001818800007F0C7FCC34BB4
:105280006B441860C719C24B6B441F60A6420BD019
:10529000030007CC07C31800F8E7C0480DF07EFEF6
:1052A0000DF054FE0020EAE7B84E6E447060002412
:1052B00023942494259426942794289429942A941A
:1052C0002B9411232C931D332D930D332E930322F6
:1052D0002F92353B30930333319332213291503149
:1052E0003391203134913592369302333793389489
:1052F00039943A943B943C943D943E943F9440942A
:10530000419442947D3269468C2009188C508A2140
:105310000901694423AA0A604B60A627FF006F4475
:105320000822380007F06CFCF460346174613C685A
:105330007B685F00FF18BF00E619BA10BB181801A0
:105340001B1818021B181804181840008018914ADE
:10535000974219D800281CD08F4A904217D8430092
:105360001818800007F052FCB823DB006B4418606B
:10537000C719B923DB006B441F60A6420BD00300A2
:1053800007CC07C31800F8E784480DF007FE0DF0BE
:10539000DDFD0020E8E77D4E6E443061002444943A
:1053A0004594469447944894499428234A933F331C
:1053B0004B9380224C921F3B4D9370334E932D3371
:1053C0004F93DA3B50931A21519108315291113980
:1053D00053911C3154910C31559156943839579151
:1053E0005891233159913B315A9117315B915C941B
:1053F0005D945E945F946094619462946394694652
:105400008820400009188C506549694444AA0A6004
:105410004B60A627FF006F440822380007F0F0FB1E
:10542000B461F46134623C687B685F00FF18BF00C0
:10543000E619BA10BB1818011B1818021B1818041B
:10544000181840008018534A974217D800281AD0DD
:10545000514A904215D843001818800007F0D6FB37
:10546000504B6B441860C7194F4B6B441F60A642EA
:105470000BD0030007CC07C31800F8E747480DF02E
:105480008DFD0DF063FD0020EAE7404E6E44F061B3
:105490000024659466946794152368931E3369937A
:1054A0000D336A930B336B9375336C932F336D937A
:1054B000DC3B6E931D336F930C3370937194729435
:1054C00073947494759476947794789479943A3B21
:1054D0007A9303337B9301337C93023B7D930433B4
:1054E0007E9303337F9380931D22819208328292B0
:1054F000839484945B326946CA20400009188C501A
:105500008B210901694465AA0A604B60A627FF0048
:105510006F440822380007F073FB7462B462F462CF
:105520003C687B685F00FF18BF00E619BA10BB1823
:1055300018011B1818021B181804181840008018AE
:10554000144A974219D800281CD0134A904217D801
:1055500043001818800007F059FBBB23DB006B44A5
:105560001860C719BC23DB006B441F60A6421DD026
:10557000030007CC07C31800F8E708480DF00EFD3C
:105580000DF0E4FC0020E8E798080000B4050000F6
:10559000BC050000F8FFFF7FAAAAAA0A94C3011065
:1055A000A8080000CC050000D4050000C44E6E44DD
:1055B000B0620024869487948894302389937B2258
:1055C0008A921E328B9239218C915B318D912331DD
:1055D0008E91A7398F91173190910B3191910A31AA
:1055E0009291939225329492959496949794963AA8
:1055F00098924132999219329A929B934C339C9390
:105600001E339D93783B9E9337339F931633A0931D
:10561000563BA1932A33A2931233A393A494A59447
:105620002B336A46DD31FF315218D450A549694405
:105630000A600B234B60A627FF006F440822380046
:1056400007F0DEFA34637463B4633C687B685F0020
:10565000FF18BF00E619BA10BB1818011B18180272
:105660001B181804181840008018974A974217D83A
:1056700000281AD0954A904215D843001818800087
:1056800007F0C4FA924B6B441860C719914B6B44F6
:105690001F60A6420BD0030007CC07C31800F8E731
:1056A0008D480DF07BFC0DF051FC0020EAE7844EA4
:1056B0006E4470630024A794A894A9943923AA93F4
:1056C0005B33AB932333AC93893BAD934A33AE93B7
:1056D0001E33AF937A3BB0932E33B1931233B29310
:1056E0001B3BB3936533B4932833B593B694B79407
:1056F000B894883BB9936D33BA932C33BB93D23BA8
:10570000BC931533BD932B22BE921D3ABF92C0931A
:105710000833C1930C3BC2932E33C3931233C4930B
:10572000C594C69422336A46A72189005218D450E2
:105730008C21090169440A600B234B60A627FF00F6
:105740006F440822380007F05BFAF4633464746431
:105750003C687B685F00FF18BF00E619BA10BB18F1
:1057600018011B1818021B1818041818400080187C
:10577000554A974219D800281CD0544A904217D84D
:1057800043001818800007F041FABE23DB006B4489
:105790001860C719BF23DB006B441F60A6420BD003
:1057A000030007CC07C31800F8E74B480DF0F6FBE1
:1057B0000DF0CCFB0020E8E7414E6E44306400243D
:1057C000C894C994CA943123CB934B33CC931E33E2
:1057D000CD935D3BCE935E33CF932633D093B23BD4
:1057E000D1931833D2933022D3921B32D492743295
:1057F000D5922F32D692E23AD7921332D892D993D9
:10580000DA933D33DB931733DC93403BDD935B331B
:10581000DE932633DF93B73BE0930833E193043301
:10582000E2931033E3933333E4931433E593E69434
:10583000E79418336A46C82189005218D450274982
:1058400069440A600B234B60A627FF006F440822BF
:10585000380007F0D5F9B464F46434653C687B68BB
:105860005F00FF18BF00E619BA10BB1818011B181B
:1058700018021B181804181840008018124A974282
:1058800017D800281AD0114A904215D8430018188A
:10589000800007F0BBF9124B6B441860C719114B1D
:1058A0006B441F60A6421FD0030007CC07C318003B
:1058B000F8E709480DF072FB0DF048FB0020EAE71D
:1058C000B4050000B8080000F8FFFF7FAAAAAA0AE2
:1058D000E4050000EC05000094C30110C8080000B6
:1058E000FC05000004060000B94C6C44E064E9AB20
:1058F0000026E9965E609E601321D96030221A610D
:105900000B325A614C2098618732DA612F321A6269
:10591000D83A5A6226329A624E27DF62233F1F63CB
:1059200041375F631B379F63443FDF6368371F6402
:105930002A375F64B83F9F642D37DF6413371F65D4
:10594000453F5F6525379F65D8651D381866493026
:1059500058661C309866D9661F3119675A679E676A
:10596000DE6741329E508D21090169440B600B2393
:105970004B60A627FF006F440822380007F040F96B
:105980006665A665E6653C687B685F00FF18BF003A
:10599000E619BA10BB1818011B1818021B181804B6
:1059A0001818400080188B4A974213D8002816D048
:1059B000894A904211D843001818800007F026F950
:1059C000C123DB006B441860C719C223DB006B44A2
:1059D0001F600AE081480DF0E1FA0DF0B7FA0020EF
:1059E000EEE7030007CC07C31800A642F9D1784CB4
:1059F0006C44A065FFAB2C3300261E605E609E6089
:105A0000DE601E615E6126229A615F21D9611831D4
:105A100019622E395962733199622E31D9621A6333
:105A20003A325A6318329A635A3ADA6331321A6454
:105A300013325A64363A9A644332DA64613919652A
:105A400052395965573199652231D9658D391966B1
:105A5000363159669A66DE661E675E679E67DE6748
:105A600011329E505E4969440B600B234B60A627A0
:105A7000FF006F440822380007F0C2F82666666609
:105A8000A6663C687B685F00FF18BF00E619BA1085
:105A9000BB1818011B1818021B181804181840000E
:105AA00080184C4A974211D8002814D04A4A904294
:105AB0000FD843001818800007F0A8F8494B6B4432
:105AC0001860C719484B6B441F600AE043480DF04B
:105AD00065FA0DF03BFA0020F0E7030007CC07C39E
