:020000041000EA
:1000000000B5324B212058609868022188439860DF
:10001000D860186158612E4B002199600221596106
:100020000121F02299502B49196001219960352056
:1000300000F044F80222904214D00621196600F024
:1000400034F8196E01211966002018661A6600F04E
:100050002CF8196E196E196E052000F02FF8012189
:100060000842F9D1002199601B49196000215960AB
:100070001A491B48016001219960EB211966A021F2
:10008000196600F012F800219960164914480160C1
:100090000121996001BC002800D000471248134993
:1000A000086003C880F30888084703B5996A0420EC
:1000B0000142FBD001200142F8D103BD02B5186610
:1000C0001866FFF7F2FF186E186E02BD00000240BE
:1000D000000000180000070000035F00212200005C
:1000E000F4000018222000A00001001008ED00E03C
:1000F00000000000000000000000000074B24E7A12
:1001000000200420F7010010C3010010C5010010F9
:10011000C1010010C1010010C1010010C101001097
:10012000C1010010C1010010C1010010C701001081
:10013000C1010010C1010010C9010010CB01001065
:10014000CD010010CD010010CD010010CD01001037
:10015000CD010010CD010010CD010010CD01001027
:10016000CD010010CD010010CD010010CD01001017
:10017000CD010010CD010010CD010010CD01001007
:10018000CD010010CD010010CD010010CD010010F7
:10019000CD010010CD010010CD010010CD010010E7
:1001A000CD010010CD010010CD010010CD010010D7
:1001B000CD010010CD010010CD010010CD010010C7
:1001C00000BE00BE00BE00BE00BE00BE00F04BF888
:1001D000103800BEF2EB8871A8200210D020021067
:1001E0003402001090A31AE700202149086006C8D5
:1001F00081F3088810471F48006800282FD10DA4FC
:100200000ECC002902D000F012F8F9E71A491B4A77
:10021000002000E001C19142FCD1194988471949E9
:1002200088471949884700BEFDE701C901C29A42C3
:10023000FBD37047D0200210C0000020341A0020E9
:10024000503A02100000042000000420503A02102E
:1002500000100420001004200000000070470B482C
:1002600008F020FF0047EFF30580C0B270470000A0
:1002700008ED00E0000000D0401A00203C4F0020B4
:10028000697A00108D040010257A0010575600007E
:1002900006005250ABB3605368790110060052500B
:1002A000861C030278790110060052505422A29D48
:1002B0008479011005005250DE65F468503A02104E
:1002C000F8B5C04610B5064C2378002B07D1054B76
:1002D000002B02D0044800E000BF0123237010BDB2
:1002E000401B00200000000068690110044B10B59D
:1002F000002B03D00349044800E000BF10BDC046F6
:1003000000000000441B00206869011070B582B035
:1003100005000E1E0DD0941B01940F2C0ED82868DA
:10032000012C14D0002C14D0220031000AF06AFBFA
:100330000FE09142EFD00B480DF0CAFA002201A95C
:1003400028000DF0B7FB2860019BAB60E7E733782E
:100350000370019A6A602B689B1800221A7002B021
:1003600070BDC04668690110F8B504000D00012891
:1003700005D0002C02D1324B9D4259D0F8BD304BF4
:100380009942F6D100230B2235212E480CF0F6FAC3
:100390002D4E80235B003380813B7380371D2B4AB9
:1003A000002138000AF028FB294BF750294BF018A0
:1003B000102200210AF020FB274B0022F250274B8D
:1003C000274AF2520721274B002923DB00221A700B
:1003D000A520800058800120404298800226DE80BF
:1003E00004361E815881023098811F48D8811A82B4
:1003F0005A619A611A77DA831A625A629A62DA62E9
:100400003020023E1E5401301A5483301A50BC333F
:100410000139D9E70C4A154B0221D1541448030085
:10042000083303600023134A1349FFF76FFFA0E767
:100430000F480DF05DFB04480BF01EF89EE7C04628
:10044000FFFF0000C04C0020A42200201824000060
:100450001C2400002024000030240000342400006C
:10046000FF2F0000DC460020FF7F0000182A00005C
:100470005C1B0020986901109469011010B50249B5
:100480000120FFF771FF10BDFFFF000030B58BB0FA
:100490000AF07CFC25480BF03FF801A805F07EFD32
:1004A000234C29E0234921480BF092FD2AE0224900
:1004B0001E480BF08DFD2BE0204D00230022002173
:1004C00028000CF01CFA28000CF011FA211C002066
:1004D00009F0FBFE09F084FF010008900023099356
:1004E0002B00002201A800F0F3FA29000F480BF0BE
:1004F0007DFD0A2006F04EFE15210C480BF0D0FDC4
:100500000028CFD11A2109480BF0CAFD0028CED10E
:10051000FA218905201C09F0DDFE041C084909F0B8
:1005200033FF0028C8D0024CC6E7C046A4220020F2
:10053000000054C20AD7233C0AD723BCC04C002079
:1005400000009A4270B582B005000E1E0DD0941BBB
:1005500001940F2C0ED82868012C14D0002C14D034
:10056000220031000AF04EFA0FE09142EFD00B4822
:100570000DF0AEF9002201A928000DF09BFA2860C9
:10058000019BAB60E7E733780370019A6A602B68E0
:100590009B1800221A7002B070BDC0466869011035
:1005A00010B5080091000AF03FFA10BDF0B5D6462C
:1005B0004F464646C0B507008846924699468B008E
:1005C0000268D658002E26D0346819E053461868C1
:1005D0006168002A05D015F039F8002803D10123FD
:1005E00017E0012315E0002313E02568002D1AD041
:1005F0007968A86A08F0AAFD2600884511D12C0068
:10060000A36A9945F1D153465A68A3689A42DDD04E
:100610000023002BE9D03000E0BCBA46B146A84622
:10062000F0BD0026F7E72E00F5E7F0B583B0150022
:100630002C200AF0EDF906000400002308C42D6800
:1006400001950C3070602B682F000837BB4214D026
:100650007360AB68A3606B6863602F6000276F6096
:100660002F72200018300C2200210AF0C5F9A76172
:10067000E7612762300003B0F0BD102239000AF0B4
:10068000C1F9E8E7F8B5040016008D0003685B596E
:10069000002B05D01B68136003685B591A60F8BD16
:1006A0008368136082601368002B06D00768986A1D
:1006B000616808F04BFD89007E50236808345C5166
:1006C000EDE7F0B583B017002C200AF0A1F9040083
:1006D0000026050040C53B68019302000C324260D1
:1006E00019685A688A1800232800FFF72BFF20009A
:1006F0001C300C2200210AF07FF9AE61EE612E62FF
:10070000200003B0F0BD70B580239B0599420AD24A
:100710008C0020000AF07CF90500220000210AF07C
:100720006BF9280070BD0DF0C3F8F8B5CE4647460A
:1007300080B505000F00012907D0FFF7E4FF8046D0
:10074000AC680023AB6099460CE00023836118334A
:1007500098468044F4E7894603E0126822601B68EB
:100760001C603400002C18D026683900A06A08F0FC
:10077000EDFC8B0043441A68002AEED1AA6822607F
:10078000AC602A0008321A602368002BE3D04B4685
:100790009B004246D4508946E3E729686A682B00EB
:1007A0001833994202D02800FFF7FAFE6F604346E3
:1007B0002B60C0BCB946B046F8BD10B50022FFF7AB
:1007C000B4FF10BDF0B5C64600B586B00400904633
:1007D0001E000C9F4369059303AD010010310D9B72
:1007E0000093C368426828000DF0F6F82B78002BC0
:1007F0000DD1BE623A0041462000FFF743FFE36897
:100800000133E360380006B080BCB846F0BD05AAED
:1008100004992000FFF7D1FF6168300008F096FCD2
:100820008846E6E7F0B587B005000C00164A49682F
:1008300020680CF0BDFD0600696808F087FC0F0019
:10084000330022002800FFF7B1FE002805D0006821
:10085000002802D01C3007B0F0BD0494029505AB0F
:1008600004AA0A492800FFF7E0FE03900123019340
:10087000009033003A0021002800FFF7A3FF002377
:1008800003931C30E7E7C04607690FC7FC690110F6
:10089000F0B587B005000C00164A496820680CF0D6
:1008A00087FD0600696808F051FC0F003300220044
:1008B0002800FFF77BFE002805D00068002802D042
:1008C0001C3007B0F0BD0494029505AB04AA0A4998
:1008D0002800FFF7F6FE03900123019300903300F8
:1008E0003A0021002800FFF76DFF002303931C301E
:1008F000E7E7C04607690FC7FC690110F0B5D646A7
:100900004F464646C0B58EB000920193169DFFF744
:10091000BFFF0700436802689A1A921093009B1861
:1009200019015B181C021B191C041C196400A41873
:100930000023079308930993002C15D0634B9C4226
:1009400010D86000001980000AF062F806000796CF
:10095000089663001C19A400341909943B687A684E
:1009600090460FE00CF0A4FF0026F0E70CF0A0FF8B
:10097000002027E092CB92C28342FBD172605346A3
:100980000C330C369A4643452BD0B1465C681A6846
:10099000A21A921093009B181C011B191C021B1910
:1009A0001C041C196400A418002333607360B36036
:1009B000002CDDD0454B9C42D8D860000019800047
:1009C0000AF026F84B461860586063001C19A40012
:1009D00000194B469860326853461B685146486878
:1009E000CAE708960023994602E001239C46E144A9
:1009F000089B079A9A1A921093009B1819015B188A
:100A000019025B1819045B185B009B18CA469945CC
:100A100040D2002453465B0053449B00079A9446FF
:100A2000634459681A68891A89108B005B18180189
:100A30001B1818021B1818041B185B005B189C423B
:100A4000D3D263001B199B00D31804AA1100C1CB99
:100A5000C1C12B685B689846137A12790499C9B2B0
:100A60002800C0474B460C930D9402A96B460A0020
:100A700041CB41C2029B4B4402934B681B194B6014
:100A800008220AA809F0BEFF0AA928000BF0FEFE02
:100A90000134BFE7079C089D00E00C34A54207D055
:100AA0002068A368191A0028F7D009F0BDFFF4E701
:100AB0000798099B191A002801D009F0B5FF0EB05C
:100AC000E0BCBA46B146A846F0BDC046AAAAAA0AEA
:100AD00070B586B0050002A8029103921E0004AB17
:100AE00006C806C3AC680AE0211D0096049A059B5F
:100AF0002800FFF703FF049A0B3204922468002CAD
:100B0000F2D106B070BD704770470000F8B5CE4610
:100B1000474680B505000F00814231D04B689846AA
:100B20000C681E1BB01083001B181A019B181A02B8
:100B30009B181A049B185B001B182A689146AA6828
:100B40004946521AB24220D36B685A1AB24240D375
:100B50002000FFF7D8FF04004046FFF7D4FF07004E
:100B60004846FFF7D1FF3A1BBC4202D0210014F0E7
:100B700091FD4846FFF7C8FF2B689C4666446E60AF
:100B80002800C0BCB946B046F8BD002B0ED01B4AA9
:100B9000934209D85800C018800009F039FF8146F7
:100BA000210040464B4606E00CF082FE00239946A9
:100BB000F6E794C994C38142FBD12868AB68191A3F
:100BC000002801D009F030FF4B462B609F19AF6021
:100BD000D2E7A318A34203D02100484614F05AFDDF
:100BE0006A682B68D31A39688C466344786801E0D8
:100BF00092CB92C29842FBD1BEE7C046AAAAAA0AEB
:100C0000F0B5DE4657464E464546E0B583B0050092
:100C100001900C009046531A9B46981083001B18B5
:100C20001A019B181A029B181A049B185B001B18C8
:100C30002A002D689268521B59465A4500D374E029
:100C4000854A91420CD8002B0FD0844A93420AD88F
:100C50005800C018800009F0DBFE81464D4612E0C6
:100C60007F480CF04DFE0CF023FE00239946F5E77B
:100C70000CF01EFE002027E0C2CBC2C28342FBD193
:100C80006A600C340C35A0452AD02E0063682268B7
:100C90009A1A921093009B1819015B1819025B189D
:100CA00019045B185B009A469244524600232B605D
:100CB0006B60AB60002ADDD0684B9A42D8D85000F8
:100CC0005044800009F0A4FE3060706053465B0021
:100CD00053449B00C018B0602A6823686068CDE761
:100CE000019B1C685D6802E009F09EFE0C34A54281
:100CF00005D02068A368191A0028F5D1F6E7019BF2
:100D000018689B68191A002801D009F08DFE4B461F
:100D1000019A1360484658445060906003B0F0BC9C
:100D2000BB46B246A946A046F0BD019B5B685A1B74
:100D30005A452AD343461A1B921093009B18190157
:100D40005B181E029B191E049E197600B618002E11
:100D500007DD21002800FFF7D9FE0C340C35013ED9
:100D6000F5E7019B5E68AE42D8D02C0002E009F0A6
:100D70005BFE0C34A64205D02068A368191A00282F
:100D8000F5D1F6E7019B5D60C8E7019802689A1A01
:100D90009210910089180B01C9180B02C9180B0495
:100DA000C91849008A1853009B189B00E51802686F
:100DB00091469E109B1919015B1819025B181904C2
:100DC0005B185B009E19002E09DD21004846FFF7E5
:100DD0009DFE0C340C239C46E144013EF3E7019B4D
:100DE0005E6806E00CF064FD002021E072600C35C6
:100DF0000C36A8452DD0B1466B682A689A1A921015
:100E000093009B181C011B191C021B191C041C19A4
:100E10006400A418002333607360B360002CE3D037
:100E20000E4B9C42DED860000019800009F0F0FDF6
:100E30004B461860586063001C19A40000194B460B
:100E4000986032682B6868688342CFD092CB92C298
:100E5000FAE7019B5E6061E7F8FFFF7FAAAAAA0A92
:100E60009C690110F0B5D6464F464646C0B5B84C11
:100E7000A544050000240294039404940594069468
:100E80000794089409940A940B940C940D940923E4
:100E90000E9306330F93013B1093073B11930433DA
:100EA00012930A221392149415941694179418947A
:100EB00019941A941B941C941D941E941F942094AE
:100EC000219476326946082009188C50C821C9003F
:100ED000694402AA0A604B60A626F6006E44082206
:100EE000300009F08FFD9B4B6B441C60B723DB0087
:100EF0006B441C60984B6B441C60346873685F00E3
:100F0000FF18BF00E619BA10BB1818011B18180209
:100F10001B181804181840008018904A974217D8D8
:100F200000281AD08E4A904215D843001818800025
:100F300009F06EFD874B6B441860C719864B6B44F4
:100F40001F60A6420BD0030007CC07C31800F8E7C8
:100F500084480CF0D5FC0CF0ABFC0020EAE77D4E99
:100F60006E4470600024239424942594269427943E
:100F700028940E23299309332A93033B2B932A2287
:100F80002C9233332D93093B2E932F921F323092A4
:100F900031932A33329346333393163B3493773B62
:100FA000359317333693073B3793389439943A94F3
:100FB0003B943C943D943E943F944094419442949D
:100FC0004F336A468C215218D450C921C900694454
:100FD0000A600B234B60A627FF006F4408223800ED
:100FE00009F010FDF460346174613C687B685F0057
:100FF000FF18BF00E619BA10BB1818011B18180219
:101000001B181804181840008018544A974219D821
:1010100000281CD0524A904217D84300181880006C
:1010200009F0F6FCB823DB006B441860C719B9233C
:10103000DB006B441F60A6420BD0030007CC07C344
:101040001800F8E747480CF05BFC0CF031FC00207E
:10105000E8E7404E6E443061002444944594469441
:101060000523479305334893013B499326334A931D
:101070001F334B930B3B4C930E3B4D9324334E93BA
:101080000E3B4F931433509342335193163B52937C
:10109000503B5393273354930E3B5593123B569337
:1010A0002D3357930F3B589359945A945B945C9407
:1010B0005D945E945F946094619462946394203331
:1010C0006A46882149005218D450CA21C90069448F
:1010D0000A600B234B60A627FF006F4408223800EC
:1010E00009F090FCB461F46134623C687B685F0095
:1010F000FF18BF00E619BA10BB1818011B18180218
:101100001B181804181840008018144A974217D862
:1011100000281AD0124A904215D8430018188000AF
:1011200009F076FC104B6B441860C7190F4B6B44E9
:101130001F60A6421CD0030007CC07C31800F8E7C5
:1011400008480CF0DDFB0CF0B3FB0020EAE7C046DA
:1011500080F6FFFFB4050000BC050000F8FFFF7F2C
:10116000AAAAAA0A9C690110CC050000D4050000B7
:10117000BB4E6E44F0610123659301336693679320
:101180003F226892692169910D396A9146206B90DE
:1011900030306C9010386D906E913F316F911539F1
:1011A0007091443971912D3172910F39739174920C
:1011B000293275920E3A7692303A77921D327892B1
:1011C000093A79927A9302337B937C9300247D943D
:1011D0007E947F94809481948294839484947C33CD
:1011E0006A463531FF315218D450CB21C9006944C9
:1011F0000A600B234B60A627FF006F4408223800CB
:1012000009F000FC7462B462F4623C687B685F00C1
:10121000FF18BF00E619BA10BB1818011B181802F6
:101220001B1818041818400080188E4A974213D8CB
:10123000002816D08C4A904211D84300181880001C
:1012400009F0E6FBBB23DB006B441860C719BC2325
:10125000DB006B441F600AE084480CF051FB0CF08B
:1012600027FB0020EEE7030007CC07C31800A642C7
:10127000F9D17B4E6E44B0620024869487948894A2
:1012800089948A948B948C948D948E948F9490945A
:101290009194282392931C3393933A2294920B3A7D
:1012A00095921F3296929793253B98931633999374
:1012B000083B9A930A339B9325339C930C3B9D9355
:1012C000153B9E9327339F930C3BA093553BA193D3
:1012D0004C3AA292A393A494A5947F336A468621A4
:1012E00089005218D450CC21C90069440A600B23EC
:1012F0004B60A627FF006F440822380009F082FBEC
:1013000034637463B4633C687B685F00FF18BF009C
:10131000E619BA10BB1818011B1818021B1818047C
:101320001818400080184F4A974217D800281AD042
:101330004D4A904215D843001818800009F068FB08
:101340004B4B6B441860C7194A4B6B441F60A64255
:101350000BD0030007CC07C31800F8E743480CF094
:10136000CFFA0CF0A5FA0020EAE73D4E6E44706318
:101370000024A794A894A994AA94AB94AC94AD9497
:10138000AE94AF94B094B194B294B394B494B59431
:101390000623B6930733B793013BB8932633B9932B
:1013A0002233BA930B3BBB93023BBC932E33BD93CA
:1013B0000F3BBE932F3BBF932533C0930C3BC19390
:1013C000143BC2932733C3930D3BC493553BC59342
:1013D0000222C6927E326946A720800009188B50EF
:1013E000CD21C9006944A7AB0B600B234B60A62736
:1013F000FF006F440822380009F004FBF4633464F2
:1014000074643C687B685F00FF18BF00E619BA107F
:10141000BB1818011B1818021B18180418184000D4
:101420008018104A974213D8002816D00E4A9042CE
:1014300011D843001818800009F0EAFABE23DB0037
:101440006B441860C719BF23DB006B441F6017E0B3
:1014500006480CF055FA0CF02BFA0020EEE7C046D7
:10146000B4050000F8FFFF7FAAAAAA0A9C69011030
:10147000E4050000EC050000030007CC07C31800DA
:10148000A642F9D1B94E6E4430640024C894C99480
:10149000CA94CB94CC94CD94CE94CF94D094D19440
:1014A000D294D3942923D4934422D5921233D69341
:1014B0002F21D7911F31D891D992253ADA9215323E
:1014C000DB92063ADC920932DD922632DE920D3A48
:1014D000DF92E0932733E1930E3BE293533BE39398
:1014E0004E3AE492E593E694E7947F336A46C82146
:1014F00089005218D450CE21C90069440A600B23D8
:101500004B60A627FF006F440822380009F07AFAE2
:10151000B464F46434653C687B685F00FF18BF0006
:10152000E619BA10BB1818011B1818021B1818046A
:101530001818400080188E4A974211D8002814D0FD
:101540008C4A90420FD843001818800009F060FAC6
:10155000894B6B441860C719884B6B441F600AE0C5
:1015600087480CF0CDF90CF0A3F90020F0E7030058
:1015700007CC07C31800A642F9D17C4C6C44E06448
:10158000E9AB0122E99201325A609A604021D960A8
:101590002B3119610F395961143999613131D96190
:1015A000113919625E2058629C269E62143EDE62EA
:1015B000473E1E632C365E6398631F38D8631964F8
:1015C0000E3959642F3999641C31D9640A39196567
:1015D0005A6502329A65DA6500261E665E669E6668
:1015E000DE661E675E679E67DE677C329E50CF2197
:1015F000C90069440B600B234B60A627FF006F44B2
:101600000822380009F0FEF96665A665E6653C68C3
:101610007B685F00FF18BF00E619BA10BB181801FD
:101620001B1818021B181804181840008018504A7C
:10163000974219D800281CD04E4A904217D8430030
:101640001818800009F0E4F9C123DB006B4418602E
:10165000C719C223DB006B441F60A6420BD00300F6
:1016600007CC07C31800F8E745480CF049F90CF01F
:101670001FF90020E8E73D4C6C44A065FFAB2C331C
:1016800000261E605E609E600622DA6003321A61E8
:101690005A6124329A611F32DA610A3A1A6235219C
:1016A0005962243199620E39D96214311963423179
:1016B0005963163999635039D963263119640B3946
:1016C00059649A642D32DA640F3A1A655E659E6534
:1016D000DE651E665E669E66DE661E675E679E67E8
:1016E000DE6720329E50D021C90069440B600B2375
:1016F0004B60A627FF006F440822380009F082F9EA
:1017000026666666A6663C687B685F00FF18BF00B9
:10171000E619BA10BB1818011B1818021B18180478
:10172000181840008018124A974217D800281AD07B
:10173000104A904215D843001818800009F068F943
:10174000104B6B441860C7190F4B6B441F60A642C7
:101750001CD0030007CC07C31800F8E708480CF0BA
:10176000CFF80CF0A5F80020EAE7C046B405000069
:10177000F8FFFF7FAAAAAA0AFC05000004060000E1
:101780009C690110140600001C060000CD4C6C443E
:101790006066FFABB03300261E605E609E60DE6058
:1017A0001E615E610E229A610932DA61033A1A62A1
:1017B0002A205862472199622A32DA6218635963F3
:1017C0009A632A32DA6346321A64163A5A64783ACD
:1017D0009A641832DA64083A1A655E659E65DE65B9
:1017E0001E665E669E66DE661E675E679E67DE67D5
:1017F00050329E50D121C90069440B600B234B60CD
:10180000A627FF006F440822380009F0FBF8E666BF
:10181000266766673C687B685F00FF18BF00E619B3
:10182000BA10BB1818011B1818021B181804181836
:1018300040008018A44A974219D800281CD0A34A17
:10184000904217D843001818800009F0E1F8C4232B
:10185000DB006B441860C719C523DB006B441F60B5
:10186000A6420BD0030007CC07C31800F8E798483E
:101870000CF046F80CF01CF80020E8E7914C6C44A2
:101880002067A623DB006B4400261E605E609E601E
:10189000DE601E615E619E61DE611E625E629E624E
:1018A000DE6209221A6305325A63013A9A63063AE4
:1018B000DA6304321A640A2159649E64DE641E6588
:1018C0005E659E65DE651E665E669E66DE661E67FA
:1018D0005E679E67DE678027DE51D221C9006944BA
:1018E000A623DB006B440B604A60033A684609F0AC
:1018F00089F8A667E667E651009C019B5F00FF1828
:10190000BF00E619BA10BB1818011B1818021B18E3
:1019100018041818400080186B4A974219D80028FC
:101920001CD06A4A904217D843001818800009F06A
:101930006FF8684B6B441860C71980236A46614989
:101940005218D750A6420BD0030007CC07C318008B
:10195000F8E75F480BF0D4FF0BF0AAFF0020E8E7A0
:10196000C623DB006B441860C724E4006C44554F69
:101970006F4427600B236360D426F6006E44D323A4
:10198000DB006B441E60544A511F0023D320C0006B
:101990006844FEF7BBFCD323DB006B44190028002E
:1019A000FEF740FF804608222100684609F02AF829
:1019B0000023220039004046FFF722F9D323DB0041
:1019C0006B441868B04203D03368591C09F02CF8F6
:1019D000C724E4006C443B4B6B449C4208D00C3C55
:1019E0002068A368191A0028F5D009F01DF8F2E75D
:1019F000002402940394049405940694079401230C
:101A0000089309930A930B940C940D940E940F94DD
:101A1000109411941294139414941594169417948A
:101A2000189419941A931B931C931D941E941F943D
:101A3000209421947F336A4608215218D450D7212C
:101A4000C90069440A600B234B60A626F6006E4469
:101A50000822300008F0D6FF1A4B6B441C60B723F5
:101A6000DB006B441C601D4B6B441C603468736866
:101A70005F00FF18BF00E619BA10BB1818011B1849
:101A800018021B1818041818400080180E4A9742B4
:101A900011D8002814D00D4A90420FD843001818CE
:101AA000800008F0B5FF074B6B441860C7190B4B5B
:101AB0006B441F6018E006480BF022FF0BF0F8FEA5
:101AC0000020F0E7B4050000F8FFFF7FAAAAAA0AE9
:101AD0009C6901102C060000D5690110BC050000AE
:101AE000030007CC07C31800A642F9D1BC4E6E44D0
:101AF0007060002423942494259426942794289499
:101B00000E22299214232A9315212B912D312C91E9
:101B100017312D9106312E914E392F91063130918A
:101B200001313191329433943494122035903691AE
:101B3000013137912A3138911731399106313A9173
:101B40003B9205323C923D933E943F9440944194A5
:101B500042946C336A462C315218D450D821C900B3
:101B600069440A600B234B60A627FF006F440822DC
:101B7000380008F047FFF460346174613C687B68AA
:101B80005F00FF18BF00E619BA10BB1818011B1838
:101B900018021B181804181840008018914A974220
:101BA00013D8002816D0904A904211D84300181834
:101BB000800008F02DFFB823DB006B441860C719C4
:101BC000B923DB006B441F600AE088480BF098FEE5
:101BD0000BF06EFE0020EEE7030007CC07C31800F1
:101BE000A642F9D17E4E6E4430610024449445945F
:101BF000469447944894499411234A9306334B934F
:101C000001334C936E224D9295214E9109314F91A3
:101C1000493950911D315191073152915F3953919A
:101C20000931549102315591313156911D315791FD
:101C300007315891599226325A9209325B928D3A65
:101C40005C9206325D925E935F94609461946294BC
:101C5000639468336A4696315218D450D921C9002A
:101C600069440A600B234B60A627FF006F440822DB
:101C7000380008F0C7FEB461F46134623C687B68E8
:101C80005F00FF18BF00E619BA10BB1818011B1837
:101C900018021B181804181840008018514A97425F
:101CA00017D800281AD0504A904215D84300181867
:101CB000800008F0ADFE4E4B6B441860C7194D4BC9
:101CC0006B441F60A6420BD0030007CC07C318006B
:101CD000F8E746480BF014FE0BF0EAFD0020EAE7B7
:101CE0003F4E6E44F0610024659466946794689456
:101CF00069946A9409236B930C226C9204336D935C
:101D00003B336E931A336F93063370935020719068
:101D10006C2172910A3373931D2774970B37759753
:101D2000023776977790789179932B3B7A93193392
:101D30007B9306337C935E3B7D9303337E937F924C
:101D4000809481948294839484947432694645305B
:101D5000FF3009188C50DA21C900694465AA0A606D
:101D60004B60A627FF006F440822380008F04AFEA7
:101D70007462B462F4623C687B685F00FF18BF0065
:101D8000E619BA10BB1818011B1818021B18180402
:101D9000181840008018134A974219D800281CD000
:101DA000114A904217D843001818800008F030FEFE
:101DB000BB23DB006B441860C719BC23DB006B44FA
:101DC0001F60A64218D0030007CC07C31800F8E72D
:101DD00006480BF095FD0BF06BFD0020E8E7C046D0
:101DE000B4050000F8FFFF7FAAAAAA0A9C690110A7
:101DF000CC050000D4050000CC4C6C44A06201234B
:101E000086930133879388931A21899123228A929A
:101E100025268B963D208C902F328D9205328E9206
:101E20003C3A8F92093290922727919719379297CF
:101E30001637939705379497063F95971D379697D2
:101E400007379797373F98971737999706379A9795
:101E5000433F9B979C9603369D969E9016309F908D
:101E60000530A090A191A2920232A392A4930133D3
:101E7000A5935A326946C130FF3009188B50DB21D7
:101E8000C900694486AB0B600B234B60A626F600A5
:101E90006E440822300008F0B5FD0023236363631D
:101EA000A363346873685F00FF18BF00E619BA10B7
:101EB000BB1818011B1818021B181804181840002A
:101EC00080189B4A974217D800281AD0994A904206
:101ED00015D843001818800008F09AFD964B6B4403
:101EE0001860C719954B6B441F60A6420BD00300C6
:101EF00007CC07C31800F8E791480BF001FD0BF081
:101F0000D7FC0020EAE7894C6C4460631D21A7914F
:101F10002822A8922A239A46A9937027AA9797263F
:101F2000AB96A020AC903433AD932033AE930833FE
:101F3000AF93373BB0931B33B1930733B293203B3E
:101F4000B3931C33B4930733B593083B9846B693C9
:101F50002633B7930833B893433BB9931F33BA93EF
:101F600007339C46BB932D3BBC934346BD9306333E
:101F7000BE93153BBF936346C0930833C193C2978A
:101F8000C396C490C591C69258326B46A72189006A
:101F90005B1851469950DC21C90069440B600B2342
:101FA0004B60A626F6006E440822300008F02AFD99
:101FB0000023E36323646364346873685F00FF187D
:101FC000BF00E619BA10BB1818011B1818021B181D
:101FD0001804181840008018554A974219D800284C
:101FE0001CD0544A904217D843001818800008F0BB
:101FF0000FFDBE23DB006B441860C719BF23DB0055
:102000006B441F60A6420BD0030007CC07C3180027
:10201000F8E74B480BF074FC0BF04AFC0020E8E7B3
:10202000424C6C4420640223C8930322C992CA9292
:102030001A21CB912132CC922620CD901730CE9010
:102040005326CF960536D0963D3ED196D292033296
:10205000D3921932D4923B36D5961B32D692D7966C
:102060001D36D8960736D996373EDA96DB92063279
:10207000DC92453ADD920932DE921B3EDF96E0901B
:102080001530E1900530E290E3910931E491E59259
:10209000243AE692E7937F326946C8208000091807
:1020A0008B50DD21C9006944C8AB0B600B234B602A
:1020B000A626F6006E440822300008F0A3FC002398
:1020C000A364E3642365346873685F00FF18BF008E
:1020D000E619BA10BB1818011B1818021B181804AF
:1020E000181840008018124A974217D800281AD0B2
:1020F000104A904215D843001818800008F088FC58
:10210000104B6B441860C7190F4B6B441F60A642FD
:102110001CD0030007CC07C31800F8E708480BF0F1
:10212000EFFB0BF0C5FB0020EAE7C046B40500005A
:10213000F8FFFF7FAAAAAA0AE4050000EC05000048
:102140009C690110FC05000004060000BB4C6C44B7
:10215000E064E9AB0026E9965E609E60DE601E6189
:102160005E6108229A6103329146DA610C2119629C
:1021700047205862193098620630D8621638844673
:1021800018636C275F63223098631232DA630B3274
:102190001A6402325A6462469A64DF6418652A3807
:1021A00058651A3098650630D8655F3818665966E4
:1021B00001319966DE661E675E679E67DE67733172
:1021C0005E50DE21C90069440B604B464B60A62778
:1021D000FF006F44483A380008F014FC6665A665B5
:1021E000E6653C687B685F00FF18BF00E619BA101F
:1021F000BB1818011B1818021B18180418184000E7
:1022000080188F4A974213D8002816D08D4A9042E2
:1022100011D843001818800008F0FAFBC123DB0036
:102220006B441860C719C223DB006B441F600AE0CF
:1022300085480BF065FB0BF03BFB0020EEE703004D
:1022400007CC07C31800A642F9D17C4C6C44A065AA
:10225000FFAB2C3300261E605E609E60DE601E6158
:102260005E6110229A610632DA6102321A626E21D0
:102270005962942098620930D862473818631D303B
:102280005863073098636038D863093018640230A7
:102290005864303098641D30D8640730186559652B
:1022A000273199650931D9658D3919660631596625
:1022B0009A66DE661E675E679E67DE6768329E50BE
:1022C000DF21C90069440B600B234B60A627FF0088
:1022D0006F440822380008F095FB26666666A666FD
:1022E0003C687B685F00FF18BF00E619BA10BB1896
:1022F00018011B1818021B18180418184000801821
:102300004F4A974211D8002814D04E4A90420FD815
:1023100043001818800008F07BFB4C4B6B4418609E
:10232000C7194B4B6B441F600AE047480BF0E8FAB3
:102330000BF0BEFA0020F0E7030007CC07C318003B
:10234000A642F9D13D4C6C446066FFABB033002629
:102350001E605E609E60DE601E615E610E2199619E
:102360001322DA6101321A624320586217309862F0
:102370000630D8624E3818630630586319279F63B9
:10238000DE631E645E64083F9F640637DF64186581
:102390002A305865173098650630D86519665A6630
:1023A00001329A66DE661E675E679E67DE676B3285
:1023B0009E50E021C90069440B600B234B60A627A7
:1023C000FF006F440822380008F01CFBE666266711
:1023D00066673C687B685F00FF18BF00E619BA10AB
:1023E000BB1818011B1818021B18180418184000F5
:1023F0008018134A974219D800281CD0114A9042DD
:1024000017D843001818800008F002FBC423DB0033
:102410006B441860C719C523DB006B441F60A642DC
:1024200018D0030007CC07C31800F8E706480BF0E4
:1024300067FA0BF03DFA0020E8E7C046B40500005B
:10244000F8FFFF7FAAAAAA0A9C69011014060000DF
:102450001C060000D34C6C442067A623DB006B44B1
:1024600000261E605E609E60DE601E615E6101226D
:102470009A61DA611A625E629E62DE621E635E6368
:102480009E63DE631E645E649E64DE641E655E653C
:102490009E65DE651A665A669A66DE661E675E6728
:1024A0009E67DE678027DE51E121C9006944A623CB
:1024B000DB006B440B600B234B600822684608F07E
:1024C000A1FAA667E667E651009C019B5F00FF1832
:1024D000BF00E619BA10BB1818011B1818021B1808
:1024E0001804181840008018AF4A974213D80028E3
:1024F00016D0AE4A904211D843001818800008F058
:1025000087FAAB4B6B441860C71980236A46A5490C
:102510005218D7500AE0A7480BF0F2F90BF0C8F9AF
:102520000020EEE7030007CC07C31800A642F9D14C
:10253000C623DB006B441860D624E4006C44994F3A
:102540006F4427600B236360E326F6006E44E223AA
:10255000DB006B441E60984A111F0023E220C0007C
:102560006844FDF7D3FEE223DB006B44190028002A
:10257000FEF758F9804608222100684608F042FA22
:102580000023C722D2006A4439004046FEF738FBD8
:10259000E223DB006B441868B04203D03368591C57
:1025A00008F042FAC724E4006C447E4B6B449C4222
:1025B00008D00C3C2068A368191A0028F5D008F050
:1025C00033FAF2E7002402940394049405940694E9
:1025D000079404230893099302220A92033B0B9366
:1025E0000C930D940E940F941094053311930233B1
:1025F0001293139215321492043215921693179473
:10260000189419941A941B941C941D941E941F944E
:102610002094219478336A4608215218D450E62138
:10262000C90069440A600B234B60A626F6006E447D
:102630000822300008F0E6F95A4B6B441C60B723BF
:10264000DB006B441C605D4B6B441C60346873683A
:102650005F00FF18BF00E619BA10BB1818011B185D
:1026600018021B1818041818400080184E4A974288
:1026700017D800281AD04D4A904215D84300181890
:10268000800008F0C5F9474B6B441860C7194B4BE5
:102690006B441F60A6420BD0030007CC07C3180091
:1026A000F8E744480BF02CF90BF002F90020EAE7B8
:1026B0003C4E6E4470600024239424942594269408
:1026C00027942894252229922D232A93213B2B936A
:1026D00068212C9117312D912E92043A2F920732B6
:1026E000309231933D333293103333933F3B3493E5
:1026F000243335930C333693353B379338943994E0
:102700003A943B943C943D943E943F94409441943D
:1027100042946B336A460D315218D450E721C900F8
:1027200069440A600B234B60A627FF006F44082210
:10273000380008F067F9F460346174613C687B68C4
:102740005F00FF18BF00E619BA10BB1818011B186C
:1027500018021B181804181840008018124A9742D3
:1027600019D800281CD0114A904217D843001818D5
:10277000800008F04DF9B823DB006B441860C719DE
:10278000B923DB006B441F60A64219D0030007CCBD
:1027900007C31800F8E707480BF0B2F80BF088F809
:1027A0000020E8E7B4050000F8FFFF7FAAAAAA0A04
:1027B0002C0600009C69011098690110BC050000FE
:1027C000BC4E6E4430610024449445944694479432
:1027D000489449944A944B944C944B234D935A22D9
:1027E0004E92313B4F9332215091093151912B3907
:1027F000529106315391063154911439559141311A
:102800005691579258934333599313335A93503BED
:102810005B935C945D945E945F9460946194629425
:10282000639460336A46C7315218D450E821C90016
:1028300069440A600B234B60A627FF006F440822FF
:10284000380008F0DFF8B461F46134623C687B68FA
:102850005F00FF18BF00E619BA10BB1818011B185B
:1028600018021B181804181840008018924A974242
:1028700017D800281AD0914A904215D8430018184A
:10288000800008F0C5F88E4B6B441860C7198D4B5B
:102890006B441F60A6420BD0030007CC07C318008F
:1028A000F8E789480BF02CF80BF002F80020EAE773
:1028B000804E6E44F0610024659466946794689439
:1028C00069946A9402236B936C93013B6D9351332B
:1028D0006E9311336F93453B709348337193153367
:1028E0007293583B73935433749319337593653BC8
:1028F00076930E3377930D337893323B799333335A
:102900007A9310337B933D3B7C9317337D930B334A
:102910007E932A3B7F9380948194829483948494C1
:102920006E336A46CA2149005218D450E921C900C1
:1029300069440A600B234B60A627FF006F440822FE
:10294000380008F05FF87462B462F4623C687B6837
:102950005F00FF18BF00E619BA10BB1818011B185A
:1029600018021B181804181840008018524A974281
:1029700013D8002816D0514A904211D84300181895
:10298000800008F045F8BB23DB006B441860C719D2
:10299000BC23DB006B441F600AE04B480AF0B0FF29
:1029A0000AF086FF0020EEE7030007CC07C31800FB
:1029B000A642F9D13F4E6E44B062002486948794BB
:1029C00088940623899309218A9103228B920D33DF
:1029D0008C9318278D970C3B98468E935B208F9095
:1029E000123090904E3891901B339293063393930C
:1029F0001C3B9493959496949794989799909A9158
:102A000043469B9301339C9307399D9178319E9166
:102A10001B319F916A39A091A193A293A392A49490
:102A2000A59478336A46EE31FF315218D450EA212A
:102A3000C90069440A600B234B60A627FF006F445E
:102A40000822380007F0DEFF34637463B4633C6827
:102A50007B685F00FF18BF00E619BA10BB181801A9
:102A60001B1818021B181804181840008018124A66
:102A7000974217D800281AD0104A904215D8430020
:102A80001818800007F0C4FF104B6B441860C7197A
:102A90000F4B6B441F60A6421CD0030007CC07C33A
:102AA0001800F8E708480AF02BFF0AF001FF0020A1
:102AB000EAE7C046B4050000F8FFFF7FAAAAAA0A09
:102AC000CC050000D40500009C690110E40500005D
:102AD000EC050000BD4E6E4470630423A793A893D9
:102AE000023BA9938022AA929C21AB912E20AC900C
:102AF0000231AD912231AE918839AF913524B09435
:102B00000A34B1942E3CB2940024B394B494B59496
:102B1000B694B794B894B994BA94BB94BC94BD9449
:102B2000BE94BF90C0912839C1915831C2911431DF
:102B3000C3915739C491C593C693013B6946A720F9
:102B4000800009188B50EB21C9006944A7AB0B60CA
:102B50000B234B60A627FF006F440822380007F0C4
:102B600051FFF463346474643C687B685F00FF1851
:102B7000BF00E619BA10BB1818011B1818021B1861
:102B80001804181840008018914A974219D8002854
:102B90001CD0904A904217D843001818800007F0C4
:102BA00037FFBE23DB006B441860C719BF23DB006F
:102BB0006B441F60A6420BD0030007CC07C318006C
:102BC000F8E785480AF09CFE0AF072FE0020E8E76C
:102BD0007E4E6E4430640024C894C994CA9406237F
:102BE000CB930333CC930322CD921321CE910531A5
:102BF000CF911139D0915431D1911231D2914E39B6
:102C0000D3910331D4912920D5901D38D690D794F3
:102C1000D894D9940F30DA90DB91DC93013BDD93AB
:102C20001839DE910839DF917A31E0911931E1915B
:102C30006939E291E393E493E592E694E79478337B
:102C40006A46C82189005218D450EC21C900694451
:102C50000A600B234B60A627FF006F440822380050
:102C600007F0D0FEB464F46434653C687B685F00B0
:102C7000FF18BF00E619BA10BB1818011B1818027C
:102C80001B181804181840008018514A974217D88A
:102C900000281AD04F4A904215D8430018188000D7
:102CA00007F0B6FE4D4B6B441860C7194C4B6B4494
:102CB0001F60A6420BD0030007CC07C31800F8E73B
:102CC00045480AF01DFE0AF0F3FD0020EAE73F4CFC
:102CD0006C44E064E9AB0026E9965E609E60DE60CD
:102CE0001E615E6102229A61DA61013A1A62513212
:102CF0005A6211329A62453ADA6248321A631532E0
:102D00005A63563A9A635232DA631A321A64673A4D
:102D10005A6410329A640D32DA64323A1A653332E8
:102D20005A650F329A653E3ADA6519321A660A32E6
:102D30005A662A3A9A66DE661E675E679E67DE6797
:102D40006E329E50ED21C90069440B600B234B602D
:102D5000A627FF006F440822380007F053FE66657F
:102D6000A665E6653C687B685F00FF18BF00E61952
:102D7000BA10BB1818011B1818021B1818041818D1
:102D800040008018124A974219D800281CD0114AD6
:102D9000904217D843001818800007F039FEC1236D
:102DA000DB006B441860C719C223DB006B441F6053
:102DB000A64217D0030007CC07C31800F8E706485F
:102DC0000AF09EFD0AF074FD0020E8E7B40500005B
:102DD000F8FFFF7FAAAAAA0A9C690110FC0500005F
:102DE00004060000D84C6C44A065FFAB2C330026D1
:102DF0001E605E609E60DE601E615E619E61DE61DF
:102E00001E624A225A6211329A62403ADA621832DB
:102E10001A6309325A632A3A9A630532DA63053231
:102E20001A64153A5A6444329A640F32DA64403AAA
:102E30001A6543325A6513329A65503ADA651E664E
:102E40005E669E66DE661E675E679E67DE67603250
:102E50009E50EE21C90069440B600B234B60A627EE
:102E6000FF006F440822380007F0CCFD2666666636
:102E7000A6663C687B685F00FF18BF00E619BA10C1
:102E8000BB1818011B1818021B181804181840004A
:102E90008018AE4A974217D800281AD0AC4A904200
:102EA00015D843001818800007F0B2FDA94B6B44F9
:102EB0001860C719A84B6B441F60A6420BD00300D3
:102EC00007CC07C31800F8E7A4480AF019FD0AF078
:102ED000EFFC0020EAE79C4C6C446066FFABB0332B
:102EE00000261E605E609E60DE601E615E612522BF
:102EF0009A612D21D961213919625C3159621731EA
:102F00009962DA62063A1A6308325A631C3A9A6383
:102F10003639D963103119643F39596423319964C2
:102F20000D31D964353919655E659E65DE651E66AD
:102F30005E669E66DE661E675E679E67DE676B3155
:102F40005E50EF21C90069440B604A60A627FF006C
:102F50006F44033A380007F055FDE666266766675A
:102F60003C687B685F00FF18BF00E619BA10BB1809
:102F700018011B1818021B18180418184000801894
:102F8000724A974219D800281CD0714A904217D82B
:102F900043001818800007F03BFDC423DB006B449E
:102FA0001860C719C523DB006B441F60A6420BD015
:102FB000030007CC07C31800F8E768480AF0A0FC34
:102FC0000AF076FC0020E8E75F4C6C442067A623FB
:102FD000DB006B4400261E605E609E60DE601E614A
:102FE0005E6104229A61DA61023A1A620121596231
:102FF0009962DE621E635E639E630531D9630231AE
:1030000019645A6415329A640432DA64143A1A65FF
:103010005E659E65DE651E665E669E66DE661E6792
:103020005E679E67DE678027DE51F021C900694434
:10303000A623DB006B440B600B234B600822684621
:1030400007F0E0FCA667E667E651009C019B5F0085
:10305000FF18BF00E619BA10BB1818011B18180298
:103060001B181804181840008018384A974219D8BD
:1030700000281CD0364A904217D843001818800008
:1030800007F0C6FC364B6B441860C71980236A46AC
:103090002D495218D750A6420BD0030007CC07C3C6
:1030A0001800F8E72D480AF02BFC0AF001FC00207C
:1030B000E8E7C623DB006B441860E524E4006C44B9
:1030C000214F6F4427600B236360F226F6006E44A5
:1030D000F123DB006B441E60224A911F0023F12084
:1030E000C0006844FDF712F9F123DB006B441900BE
:1030F0002800FDF797FB804608222100684607F06C
:1031000081FC0023C722D2006A4439004046FDF703
:1031100077FDF123DB006B441868B04203D03368BD
:10312000591C07F081FCC724E4006C44064B6B4437
:103130009C4219D00C3C2068A368191A0028F5D0CD
:1031400007F072FCF2E7C046B4050000F8FFFF7F0D
:10315000AAAAAA0A140600001C0600009C69011015
:103160002C060000DE6901100024029403940494EC
:10317000059406940794089409940A940B940C946B
:103180000D940E940F94109411941294139414941B
:10319000159416941794189419941A941B941C94CB
:1031A0001D941E941F942094219480236A46082124
:1031B0005218D450F521C90069440A600B234B60B2
:1031C000A626F6006E440822300007F01BFCD64B02
:1031D0006B441C60B723DB006B441C60D34B6B4417
:1031E0001C60346873685F00FF18BF00E619BA10EE
:1031F000BB1818011B1818021B18180418184000D7
:103200008018CB4A974217D800281AD0C94A904252
:1032100015D843001818800007F0FAFBC24B6B4426
:103220001860C719C14B6B441F60A6420BD0030046
:1032300007CC07C31800F8E7BF480AF061FB0AF0A3
:1032400037FB0020EAE7B84E6E44706000242394F8
:1032500024942594269427942894022329932A932E
:103260002B9344332C9339222D9214322E923A32DE
:103270002F926D213091273131913292193A339248
:10328000273234923E3A359236931A333793483B7D
:103290003893063B399307333A933B943C943D94DF
:1032A0003E943F9440944194429467336A4608396F
:1032B0005218D450F621C90069440A600B234B60B0
:1032C000A627FF006F440822380007F09BFBF4603C
:1032D000346174613C687B685F00FF18BF00E619C9
:1032E000BA10BB1818011B1818021B18180418185C
:1032F000400080188E4A974219D800281CD08D4A69
:10330000904217D843001818800007F081FBB823BB
:10331000DB006B441860C719B923DB006B441F60E6
:10332000A6420BD0030007CC07C31800F8E7824879
:103330000AF0E6FA0AF0BCFA0020E8E77A4E6E449A
:1033400030610024449445944694479448944994A9
:1033500025234A93073B4B930B334C934A334D93AE
:10336000153B4E9321334F93073B5093163B51939C
:1033700023335293813B5393549301335593569483
:103380005794589459945A945B945C945D945E94C9
:103390005F9460946194629463947B336A4688215D
:1033A00049005218D450F721C90069440A600B2320
:1033B0004B60A627FF006F440822380007F022FB6D
:1033C000B461F46134623C687B685F00FF18BF0041
:1033D000E619BA10BB1818011B1818021B1818049C
:1033E000181840008018524A974211D8002814D06B
:1033F000504A90420FD843001818800007F008FB8D
:103400004E4B6B441860C7194D4B6B441F600AE06C
:1034100049480AF075FA0AF04BFA0020F0E7030079
:1034200007CC07C31800A642F9D13F4E6E44F061A5
:103430000024659466946794689469946A9415234B
:103440006B9311226C9206326D9297326E92213AF2
:103450006F92333270928F3A7192093A72920E32B1
:1034600073927494759476941D3A77927893083396
:10347000799322337A930B3B7B9312337C93433BB8
:103480007D937E9301337F93023B8093819382935C
:10349000839484947E336A46CA2149005218D450DA
:1034A000F821C90069440A600B234B60A627FF007E
:1034B0006F440822380007F0A5FA7462B462F4621F
:1034C0003C687B685F00FF18BF00E619BA10BB18A4
:1034D00018011B1818021B1818041818400080182F
:1034E000134A974219D800281CD0124A904217D884
:1034F00043001818800007F08BFABB23DB006B44F5
:103500001860C719BC23DB006B441F60A64219D0AA
:10351000030007CC07C31800F8E707480AF0F0F9E2
:103520000AF0C6F90020E8E7B4050000BC05000079
:10353000F8FFFF7FAAAAAA0A9C690110CC05000027
:10354000D4050000BB4E6E44B0620024869487947C
:10355000889489948A948B941F238C93063B8D9333
:1035600009338E9384338F931F3B90933033919321
:103570005E3B9293113B93931B339493623B9593E1
:10358000969397931F339893063B999309339A9395
:103590008C339B93213B9C9333339D93433B9E936E
:1035A000193B9F932633A093663BA193073BA293BD
:1035B0000B33A393A494A59457336A4686218900BC
:1035C0005218D450F921C90069440A600B234B609A
:1035D000A627FF006F440822380007F013FA34636F
:1035E0007463B4633C687B685F00FF18BF00E61932
:1035F000BA10BB1818011B1818021B181804181849
:10360000400080188C4A974211D8002814D08B4A69
:1036100090420FD843001818800007F0F9F9884B42
:103620006B441860C719874B6B441F600AE08648DB
:103630000AF066F90AF03CF90020F0E7030007CC35
:1036400007C31800A642F9D17A4E6E447063002475
:10365000A794A894A9940823AA930722AB92AC93A9
:10366000073BAD93AE930133AF932233B093083B46
:10367000B1930A33B293173BB393033BB493043330
:10368000B5937621B6915932B7927333B8933720F8
:10369000B9900A38BA900F30BB900230BC900B380A
:1036A000BD901130BE905E30BF90C0931130C1907C
:1036B000C291C392C493C594C694033B6A46A721A2
:1036C00089005218D450FA21C90069440A600B23BA
:1036D0004B60A627FF006F440822380007F092F9DC
:1036E000F463346474643C687B685F00FF18BF0057
:1036F000E619BA10BB1818011B1818021B18180479
:103700001818400080184C4A974219D800281CD03D
:103710004A4A904217D843001818800007F078F9F9
:10372000BE23DB006B441860C719BF23DB006B446A
:103730001F60A6420BD0030007CC07C31800F8E7B0
:1037400041480AF0DDF80AF0B3F80020E8E7394E06
:103750006E4430640024C894C994CA944A23CB931D
:103760000D3BCC931533CD93CE94CF94D094D1947C
:10377000D294D394D494D594D694163BD7930C3B3F
:10378000D8931133D993DA94DB94DC94DD94DE94EE
:10379000DF941433E093103BE1931833E2932C331E
:1037A000E3931A3BE4932833E593E694E794173BBD
:1037B0006A46C82189005218D450FB21C9006944C7
:1037C0000A600B234B60A627FF006F4408223800D5
:1037D00007F018F9B464F46434653C687B685F00F2
:1037E000FF18BF00E619BA10BB1818011B18180201
:1037F0001B1818041818400080180F4A974211D857
:10380000002814D00D4A90420FD8430018188000A9
:1038100007F0FEF80D4B6B441860C7190C4B6B4456
:103820001F601BE008480AF06BF80AF041F800201E
:10383000F0E7C046B4050000F8FFFF7FAAAAAA0A75
:10384000E4050000EC0500009C690110FC05000087
:1038500004060000030007CC07C31800A642F9D1F4
:10386000B94C6C44E064E9AB0026E9965E609E606A
:103870004C22DA600F3A1A6117325A6115329A6196
:10388000143ADA61742119624C3959620839996223
:103890000C31D9621A630F3A5A6318329A6336327E
:1038A000DA631D3A1A642B325A64753A9A64083AFC
:1038B000DA640D321A655E659E65DE651E321A6633
:1038C00016315966163199660F39D9660D3919675F
:1038D0005A679E67DE6730329E50FC21C9006944FA
:1038E0000B600B234B60A627FF006F4408223800B3
:1038F00007F088F86665A665E6653C687B685F004A
:10390000FF18BF00E619BA10BB1818011B181802DF
:103910001B1818041818400080188C4A974219D8B0
:1039200000281CD08A4A904217D8430018188000FB
:1039300007F06EF8C123DB006B441860C719C2237F
:10394000DB006B441F60A6420BD0030007CC07C30B
:103950001800F8E77F4809F0D3FF09F0A9FF00201D
:10396000E8E7794C6C44A065FFAB2C3300261E6061
:103970005E609E600322DA601A6101325A617B3216
:103980009A61173ADA6124321A6208325A621C3A92
:103990009A622A32DA62123A1A631A3A5A6329325E
:1039A0009A63393ADA63512119640A325A64683ADF
:1039B0009A640720D8641A65063A5A659A65DA65EA
:1039C0005D30186659661E319966DA661A675A675D
:1039D0009E67DE677E329E50FD21C90069440B6000
:1039E0000B234B60A627FF006F440822380007F026
:1039F00009F826666666A6663C687B685F00FF1865
:103A0000BF00E619BA10BB1818011B1818021B18C2
:103A100018041818400080184C4A974217D80028FC
:103A20001AD04B4A904215D843001818800006F06F
:103A3000EFFF494B6B441860C719484B6B441F603C
:103A4000A6420BD0030007CC07C31800F8E7414893
:103A500009F056FF09F02CFF0020EAE73A4C6C44CD
:103A60006066FFABB03300261E605E609E60DE6065
:103A70001E615E6102229A61DA611A6238325A620C
:103A80000B3A9A621132DA62323A1A630A215963A6
:103A90009A63DE631E645E649E64DE641E65023AA1
:103AA0005A6501399965DA65083A1A665A669A665E
:103AB000DE661E675E679E67DE677C329E50FE2173
:103AC000C90069440B600B234B60A627FF006F44BD
:103AD0000822380006F096FFE666266766673C68AF
:103AE0007B685F00FF18BF00E619BA10BB18180109
:103AF0001B1818021B181804181840008018134AC5
:103B0000974219D800281CD0114A904217D8430078
:103B10001818800006F07CFFC423DB006B4418609B
:103B2000C719C523DB006B441F60A64218D00300F1
:103B300007CC07C31800F8E7064809F0E1FE09F0D2
:103B4000B7FE0020E8E7C046B4050000F8FFFF7F9D
:103B5000AAAAAA0A9C690110140600001C0600000B
:103B6000CB4E6E443067A623DB006B4400241C6000
:103B70005C609C60DC601C615C619C61DC611C625F
:103B80005C629C62DC621C635C639C63DC631C643F
:103B90005C649C64DC641C655C659C65DC651C661F
:103BA0005C669C66DC661C675C679C67DC678027DC
:103BB000DC51FF21C90069440B600B234B600822D4
:103BC000684606F01FFFB467F467F451009C019B40
:103BD0005F00FF18BF00E619BA10BB1818011B18C8
:103BE00018021B181804181840008018A94A974298
:103BF00019D800281CD0A84A904217D8430018189A
:103C0000800006F005FFA54B6B441860C7198023A0
:103C10006A469F495218D750A6420BD0030007CCE2
:103C200007C31800F8E79E4809F06AFE09F040FE55
:103C30000020E8E7C623DB006B441860F424E400AE
:103C40006C44934F6F4427600B236360954E6E4422
:103C500080231B016B441E60934AD11F00238020E8
:103C600000016844FCF752FB80231B016B441900E0
:103C70002800FCF7D7FD804608222100684606F0A0
:103C8000C1FE0023C722D2006A4439004046FCF737
:103C9000B7FF80231B016B441868B04203D0336820
:103CA000591C06F0C1FEC724E4006C44784B6B44F9
:103CB0009C4208D00C3C2068A368191A0028F5D053
:103CC00006F0B2FEF2E700240294039404940594F3
:103CD00006940794089409940A940B940C940D94F8
:103CE0000E940F94109411941294139414941594A8
:103CF00016941794189419941A941B941C941D9458
:103D00001E941F942094219480236A4608215218FF
:103D1000D4508221090169440A600B234B60A62616
:103D2000F6006E440822300006F06CFE584B6B44DF
:103D30001C60B723DB006B441C605C4B6B441C6055
:103D4000346873685F00FF18BF00E619BA10BB182B
:103D500018011B1818021B181804181840008018A6
:103D60004C4A974211D8002814D04B4A90420FD8A1
:103D700043001818800006F04BFE454B6B4418605A
:103D8000C7194A4B6B441F600AE0454809F0B8FD6B
:103D900009F08EFD0020F0E7030007CC07C31800F0
:103DA000A642F9D13A4E6E447060002423942494C4
:103DB000259426942794289429942A942B942C941F
:103DC0002D942E9413232F93053B30930A3B31936C
:103DD00071333293213B33933E3B34930B3B35930A
:103DE00007223692063A3792389439943A943B94A3
:103DF0003C943D943E943F944094419442947F324D
:103E000069468C2009188C502949694423AA0A6004
:103E10004B60A627FF006F440822380006F0F2FD31
:103E2000F460346174613C687B685F00FF18BF0018
:103E3000E619BA10BB1818011B1818021B18180431
:103E4000181840008018134A974219D800281CD02F
:103E5000114A904217D843001818800006F0D8FD88
:103E6000B823DB006B441860C719B923DB006B442F
:103E70001F60A6421ED0030007CC07C31800F8E756
:103E8000074809F03DFD09F013FD0020E8E7C046B2
:103E9000B4050000F8FFFF7FAAAAAA0A2C060000BA
:103EA0009C69011008080000E7690110BC050000CA
:103EB00028080000BE4E6E443061002444944594AE
:103EC00046944794489449944A944B944C942123A3
:103ED0004D93093B4E93113B4F934C335093163BFC
:103EE00051932E3B5293AF335393353B5493633BE3
:103EF0005593AA335693383B57936F3B5893023BE5
:103F000059930A3B5A93153B5B935C945D945E9482
:103F10005F94609461946294639478336A468821D4
:103F200049005218D4508321090169440A600B23C7
:103F30004B60A627FF006F440822380006F062FDA0
:103F4000B461F46134623C687B685F00FF18BF00B5
:103F5000E619BA10BB1818011B1818021B18180410
:103F6000181840008018934A974217D800281AD092
:103F7000914A904215D843001818800006F048FD79
:103F80008E4B6B441860C7198D4B6B441F60A64263
:103F90000BD0030007CC07C31800F8E7894809F0E5
:103FA000AFFC09F085FC0020EAE7814E6E44F06129
:103FB0000024659466946794689469946A943A239B
:103FC0006B93103B6C931E3B6D93CF336E933C3BD6
:103FD0006F93743B7093B93371933E3B7293793B0B
:103FE000739320337493372275923F3B76934B2122
:103FF000779178927993BC337A93373B7B936A3B82
:104000007C930D337D930F3B7E931D3B7F93809478
:10401000819482948394849476336A464A31FF3142
:104020005218D450684969440A600B234B60A62794
:10403000FF006F440822380006F0E4FC7462B462AA
:10404000F4623C687B685F00FF18BF00E619BA1095
:10405000BB1818011B1818021B1818041818400068
:104060008018544A974213D8002816D0524A9042DA
:1040700011D843001818800006F0CAFCBB23DB00EF
:104080006B441860C719BC23DB006B441F600AE057
:104090004C4809F035FC09F00BFC0020EEE703006A
:1040A00007CC07C31800A642F9D1414E6E44B06256
:1040B00000248694879488942A2189911F238A93C7
:1040C00008228B9292208C9029388D904C388E90BB
:1040D00042308F901B389090313891907D30929083
:1040E000283893904C389490833095902C38969043
:1040F00097933D3098902F3899905F389A9016306A
:104100009B9010389C901E389D9093309E902B3839
:104110009F905238A090A191A293A392A494A594A9
:1041200061336A46EF31FF315218D45084210901BE
:1041300069440A600B234B60A627FF006F440822E6
:10414000380006F05FFC34637463B4633C687B68DA
:104150005F00FF18BF00E619BA10BB1818011B1842
:1041600018021B181804181840008018114A9742AA
:1041700017D800281AD0104A904215D843001818B2
:10418000800006F045FC114B6B441860C719104BBA
:104190006B441F60A6421DD0030007CC07C3180064
:1041A000F8E7084809F0ACFB09F082FB0020EAE7D9
:1041B000B4050000F8FFFF7FAAAAAA0ACC050000F8
:1041C000D40500009C69011038080000E4050000D7
:1041D000EC050000BF4E6E4470630024A794A894C1
:1041E000A99480239846AA93223BAB93453BAC937A
:1041F0000720AD900421AE91AF94BB33B0933A3B0E
:10420000B1936F3BB2933B27B397B493203BB593E5
:10421000B6970F3FB797B8933D22B992BA97BB9321
:10422000A937BC973A3FBD97713FBE97BF90C091E9
:10423000C1947B31C2912339C3914239C491C59451
:10424000C6946A46A7218900521841465450A24993
:1042500069440A604B60A627FF006F4408223800BB
:1042600006F0D0FBF463346474643C687B685F00E0
:10427000FF18BF00E619BA10BB1818011B18180266
:104280001B181804181840008018944A974219D82F
:1042900000281CD0924A904217D84300181880007A
:1042A00006F0B6FBBE23DB006B441860C719BF23C2
:1042B000DB006B441F60A6420BD0030007CC07C392
:1042C0001800F8E7874809F01BFB09F0F1FA002015
:1042D000E8E7804E6E4430640024C894C994CA94C0
:1042E0002A23CB930B3BCC930822CD929632CE92CD
:1042F0002A3ACF92D0933B3AD192113AD2921E3AB7
:10430000D392A632D4922F3AD5925F3AD6927D328A
:10431000D7922C3AD892D9932032DA92283ADB926B
:104320004F3ADC924432DD921B3ADE92333ADF920E
:104330008032E092293AE1924C3AE2920C32E392D6
:10434000E493183BE593E694E79479336A46C821F1
:1043500089005218D4508521090169440A600B2351
:104360004B60A627FF006F440822380006F04AFB86
:10437000B464F46434653C687B685F00FF18BF0078
:10438000E619BA10BB1818011B1818021B181804DC
:10439000181840008018514A974217D800281AD0A0
:1043A0004F4A904215D843001818800006F030FBA1
:1043B0004D4B6B441860C7194C4B6B441F60A642B1
:1043C0000BD0030007CC07C31800F8E7454809F0F5
:1043D00097FA09F06DFA0020EAE73E4C6C44E0647D
:1043E000E9AB0026E9965E609E60DE601E615E615C
:1043F000382199612822DA610A2080461862CB2789
:104400005F62383F9F62DA62463FBC461F63596372
:104410003F3F9F636046D863163818645F64D637A1
:104420009F643E3FDF64793F1F65AE375F653C3F69
:104430009F65743FDF6519665A6642469A66DE6676
:104440001E675E679E67DE6776329E502849694424
:104450000B600B234B60A627FF006F440822380037
:1044600006F0D0FA6665A665E6653C687B685F0085
:10447000FF18BF00E619BA10BB1818011B18180264
:104480001B181804181840008018144A974219D8AD
:1044900000281CD0124A904217D8430018188000F8
:1044A00006F0B6FAC123DB006B441860C719C223BB
:1044B000DB006B441F60A6421CD0030007CC07C37F
:1044C0001800F8E7074809F01BFA09F0F1F9002095
:1044D000E8E7C046B405000048080000F8FFFF7F89
:1044E000AAAAAA0A9C690110FC05000004060000A3
:1044F00058080000CD4C6C44A065FFAB2C3300265F
:104500001E605E609E60DE601E615E619E61DE61B7
:104510001E6227225A620A3A9A62153ADA62C83251
:104520001A63383A5A636F3A9A639632DA63343AC6
:104530001A64653A5A642D329A64163ADA642E3A4D
:104540001A6510325A65083A9A65123ADA651E669B
:104550005E669E66DE661E675E679E67DE677B320E
:104560009E508621090169440B600B234B60A627EE
:10457000FF006F440822380006F044FA266666669B
:10458000A6663C687B685F00FF18BF00E619BA109A
:10459000BB1818011B1818021B1818041818400023
:1045A0008018A34A974211D8002814D0A14A9042FB
:1045B0000FD843001818800006F02AFA9E4B6B446F
:1045C0001860C7199D4B6B441F600AE09C4809F0B6
:1045D00097F909F06DF90020F0E7030007CC07C355
:1045E0001800A642F9D1914C6C446066FFABB03321
:1045F00000261E605E609E60DE601E615E619E61E0
:10460000DE611E625E629E62DE620B221A63072119
:104610005963063999637331D963203919643D3977
:104620005964053999640639D964083919655E6594
:104630009E65DE651E665E669E66DE661E675E675A
:104640009E67DE677C315E507E4969440B604A603C
:10465000A627FF006F44033A380006F0D3F9E66658
:10466000266766673C687B685F00FF18BF00E61935
:10467000BA10BB1818011B1818021B1818041818B8
:10468000400080186A4A974219D800281CD0694A0D
:10469000904217D843001818800006F0B9F9C423D7
:1046A000DB006B441860C719C523DB006B441F6037
:1046B000A6420BD0030007CC07C31800F8E76048F8
:1046C00009F01EF909F0F4F80020E8E7574E6E44AF
:1046D0003067A623DB006B4400241C605C609C6098
:1046E000DC601C615C619C61DC611C625C629C62E0
:1046F000DC621C635C639C63DC631C645C649C64C0
:10470000DC641C655C659C65DC651C665C669C669F
:10471000DC661C675C679C67DC678027DC5187214F
:10472000090169440B600B234B600822684606F0C0
:1047300069F9B467F467F451009C019B5F00FF18AE
:10474000BF00E619BA10BB1818011B1818021B1875
:104750001804181840008018354A974219D80028C4
:104760001CD0344A904217D843001818800006F035
:104770004FF9354B6B441860C71980236A462B49A3
:104780005218D750A6420BD0030007CC07C318001D
:10479000F8E72B4809F0B4F809F08AF80020E8E7B8
:1047A000C623DB006B441860284C6C441F4F6F44D9
:1047B00027600B236360882636016E44244B6B44CC
:1047C0001E60244AD11E002321486844FBF79EFD49
:1047D0001F4B6B4419002800FCF724F88046082280
:1047E0002100684606F00EF90023C722D2006A4471
:1047F00039004046FCF704FA154B6B441868B04288
:1048000003D03368591C06F00FF9C724E4006C4448
:10481000064B6B449C421FD00C3C2068A368191ABD
:104820000028F5D006F000F9F2E7C046B405000014
:10483000F8FFFF7FAAAAAA0A140600001C060000BF
:104840009C690110680800002C0600001808000090
:1048500078080000EB69011000240294039404948A
:10486000059406940794089409940A940B940C9464
:104870000D940E940F941094119412941394149414
:10488000159416941794189419941A941B941C94C4
:104890001D941E941F942094219480236A4608211D
:1048A0005218D450DB4969440A600B234B60A6269A
:1048B000F6006E440822300006F0A4F8D64B6B4494
:1048C0001C60B723DB006B441C60D44B6B441C6042
:1048D000346873685F00FF18BF00E619BA10BB1890
:1048E00018011B1818021B1818041818400080180B
:1048F000CB4A974217D800281AD0CA4A904215D8F6
:1049000043001818800006F083F8C34B6B4418600E
:10491000C719C24B6B441F60A6420BD0030007CCE3
:1049200007C31800F8E7C04808F0EAFF08F0C0FF26
:104930000020EAE7B84E6E4470600024239424946B
:10494000259426942794289429942A942B9411230F
:104950002C931D332D930D332E9303222F92353B31
:1049600030930333319332213291503133912031DE
:1049700034913592369302333793389439943A947C
:104980003B943C943D943E943F9440944194429493
:104990007D3269468C2009188C508A2109016944AE
:1049A00023AA0A604B60A627FF006F440822380044
:1049B00006F028F8F460346174613C687B685F003D
:1049C000FF18BF00E619BA10BB1818011B1818020F
:1049D0001B181804181840008018914A974219D8DB
:1049E00000281CD08F4A904217D843001818800026
:1049F00006F00EF8B823DB006B441860C719B92322
:104A0000DB006B441F60A6420BD0030007CC07C33A
:104A10001800F8E7844808F073FF08F049FF002009
:104A2000E8E77D4E6E4430610024449445944694FA
:104A300047944894499428234A933F334B938022C8
:104A40004C921F3B4D9370334E932D334F93DA3B73
:104A500050931A21519108315291113953911C31BF
:104A600054910C31559156943839579158912331BE
:104A700059913B315A9117315B915C945D945E94EE
:104A80005F946094619462946394694688204000C6
:104A900009188C506549694444AA0A604B60A627EE
:104AA000FF006F440822380005F0ACFFB461F461E8
:104AB00034623C687B685F00FF18BF00E619BA10DB
:104AC000BB1818011B1818021B18180418184000EE
:104AD0008018534A974217D800281AD0514A90425A
:104AE00015D843001818800005F092FF504B6B4416
:104AF0001860C7194F4B6B441F60A6420BD00300D0
:104B000007CC07C31800F8E7474808F0F9FE08F09B
:104B1000CFFE0020EAE7404E6E44F0610024659429
:104B200066946794152368931E3369930D336A93D3
:104B30000B336B9375336C932F336D93DC3B6E9318
:104B40001D336F930C3370937194729473947494B7
:104B5000759476947794789479943A3B7A93033366
:104B60007B9301337C93023B7D9304337E93033329
:104B70007F9380931D228192083282928394849441
:104B80005B326946CA20400009188C508B2109010C
:104B9000694465AA0A604B60A627FF006F4408229B
:104BA000380005F02FFF7462B462F4623C687B68E1
:104BB0005F00FF18BF00E619BA10BB1818011B18D8
:104BC00018021B181804181840008018144A97423D
:104BD00019D800281CD0134A904217D8430018183F
:104BE000800005F015FFBB23DB006B441860C7197C
:104BF000BC23DB006B441F60A6421DD0030007CC22
:104C000007C31800F8E7084808F07AFE08F050FEDD
:104C10000020E8E798080000B4050000BC0500008B
:104C2000F8FFFF7FAAAAAA0A9C690110A808000041
:104C3000CC050000D4050000C44E6E44B0620024D0
:104C4000869487948894302389937B228A921E329B
:104C50008B9239218C915B318D9123318E91A739C3
:104C60008F91173190910B3191910A3192919392DA
:104C700025329492959496949794963A98924132CC
:104C8000999219329A929B934C339C931E339D9325
:104C9000783B9E9337339F931633A093563BA19353
:104CA0002A33A2931233A393A494A5942B336A4678
:104CB000DD31FF315218D450A54969440A600B23F5
:104CC0004B60A627FF006F440822380005F09AFECB
:104CD00034637463B4633C687B685F00FF18BF0093
:104CE000E619BA10BB1818011B1818021B18180473
:104CF000181840008018974A974217D800281AD0F1
:104D0000954A904215D843001818800005F080FE9F
:104D1000924B6B441860C719914B6B441F60A642BD
:104D20000BD0030007CC07C31800F8E78D4808F044
:104D3000E7FD08F0BDFD0020EAE7844E6E44706395
:104D40000024A794A894A9943923AA935B33AB9326
:104D50002333AC93893BAD934A33AE931E33AF9369
:104D60007A3BB0932E33B1931233B2931B3BB39380
:104D70006533B4932833B593B694B794B894883B0D
:104D8000B9936D33BA932C33BB93D23BBC93153399
:104D9000BD932B22BE921D3ABF92C0930833C1939C
:104DA0000C3BC2932E33C3931233C493C594C69461
:104DB00022336A46A72189005218D4508C21090158
:104DC00069440A600B234B60A627FF006F4408224A
:104DD000380005F017FEF463346474643C687B6843
:104DE0005F00FF18BF00E619BA10BB1818011B18A6
:104DF00018021B181804181840008018554A9742CA
:104E000019D800281CD0544A904217D843001818CB
:104E1000800005F0FDFDBE23DB006B441860C71960
:104E2000BF23DB006B441F60A6420BD0030007CCFE
:104E300007C31800F8E74B4808F062FD08F038FD9A
:104E40000020E8E7414E6E4430640024C894C994C1
:104E5000CA943123CB934B33CC931E33CD935D3B1C
:104E6000CE935E33CF932633D093B23BD193183396
:104E7000D2933022D3921B32D4927432D5922F32F5
:104E8000D692E23AD7921332D892D993DA933D333D
:104E9000DB931733DC93403BDD935B33DE932633A8
:104EA000DF93B73BE0930833E1930433E29310338D
:104EB000E3933333E4931433E593E694E7941833A0
:104EC0006A46C82189005218D450274969440A60AB
:104ED0000B234B60A627FF006F440822380005F023
:104EE00091FDB464F46434653C687B685F00FF182E
:104EF000BF00E619BA10BB1818011B1818021B18BE
:104F00001804181840008018124A974217D8002831
:104F10001AD0114A904215D843001818800005F0A5
:104F200077FD124B6B441860C719114B6B441F601F
:104F3000A6421FD0030007CC07C31800F8E70948B2
:104F400008F0DEFC08F0B4FC0020EAE7B40500003D
:104F5000B8080000F8FFFF7FAAAAAA0AE40500002B
:104F6000EC0500009C690110C8080000FC05000069
:104F700004060000B94C6C44E064E9AB0026E996F5
:104F80005E609E601321D96030221A610B325A6133
:104F90004C2098618732DA612F321A62D83A5A620D
:104FA00026329A624E27DF62233F1F6341375F63D9
:104FB0001B379F63443FDF6368371F642A375F6492
:104FC000B83F9F642D37DF6413371F65453F5F652A
:104FD00025379F65D8651D381866493058661C30DE
:104FE0009866D9661F3119675A679E67DE67413236
:104FF0009E508D21090169440B600B234B60A6274D
:10500000FF006F440822380005F0FCFC6665A665C9
:10501000E6653C687B685F00FF18BF00E619BA10C0
:10502000BB1818011B1818021B1818041818400088
:1050300080188B4A974213D8002816D0894A90428C
:1050400011D843001818800005F0E2FCC123DB00F2
:105050006B441860C719C223DB006B441F600AE071
:10506000814808F04DFC08F023FC0020EEE7030027
:1050700007CC07C31800A642F9D1784C6C44A06550
:10508000FFAB2C3300261E605E609E60DE601E61FA
:105090005E6126229A615F21D961183119622E3929
:1050A0005962733199622E31D9621A633A325A6366
:1050B00018329A635A3ADA6331321A6413325A64F4
:1050C000363A9A644332DA6461391965523959655E
:1050D000573199652231D9658D391966363159664E
:1050E0009A66DE661E675E679E67DE6711329E50B7
:1050F0005E4969440B600B234B60A627FF006F4499
:105100000822380005F07EFC26666666A6663C68C6
:105110007B685F00FF18BF00E619BA10BB181801C2
:105120001B1818021B1818041818400080184C4A45
:10513000974211D8002814D04A4A90420FD8430011
:105140001818800005F064FC494B6B441860C719BF
:10515000484B6B441F600AE0434808F0D1FB08F05D
:10516000A7FB0020F0E7030007CC07C31800A64206
:10517000F9D13A4C6C446066FFABB03300261E6038
:105180005E609E60DE601E615E619E61DE611E6229
:1051900012225A621C329A623821D9621A6348324A
:1051A0005A631D329A635A3ADA635B321A642332C5
:1051B0005A64873A9A644C32DA641E321A65873A26
:1051C0005A651E329A650D32DA651E665E669E6607
:1051D000DE661E675E679E67DE6742329E508E21E6
:1051E000090169440B600B234B60A627FF006F4445
:1051F0000822380005F006FCE666266766673C680C
:105200007B685F00FF18BF00E619BA10BB181801D1
:105210001B1818021B181804181840008018104A90
:10522000974213D8002816D00E4A904211D8430056
:105230001818800005F0ECFBC423DB006B441860F9
:10524000C719C523DB006B441F6019E0064808F04E
:1052500057FB08F02DFB0020EEE7C046B405000028
:10526000F8FFFF7FAAAAAA0A9C690110D8080000CB
:10527000140600001C060000030007CC07C318003A
:10528000A642F9D1CA4E6E443067A623DB006B44B8
:1052900000241C605C609C60DC601C615C619C6143
:1052A000DC611C625C629C62DC621C635C639C630C
:1052B000DC631C645C649C64DC641C655C659C65EC
:1052C000DC651C665C669C66DC661C675C679C67CC
:1052D000DC678027DC51B74969440B600B234B60C6
:1052E0000822684605F08EFBB467F467F451009C11
:1052F000019B5F00FF18BF00E619BA10BB18180128
:105300001B1818021B181804181840008018AA4A05
:10531000974219D800281CD0A84A904217D84300B9
:105320001818800005F074FBA54B6B441860C71972
:1053300080236A469E495218D750A6420BD00300DC
:1053400007CC07C31800F8E79E4808F0D9FA08F020
:10535000AFFA0020E8E7C623DB006B44186089241D
:1053600024016C44924F6F4427600B236360964E78
:105370006E448F231B016B441E60944A511F00230F
:105380008F2000016844FAF7C1FF8F231B016B4493
:1053900019002800FBF746FA8046082221006846DB
:1053A00005F030FB0023C722D2006A443900404692
:1053B000FBF726FC8F231B016B441868B04203D017
:1053C0003368591C05F030FBC724E4006C44784B6B
:1053D0006B449C4208D00C3C2068A368191A002832
:1053E000F5D005F021FBF2E7002402940394049425
:1053F000059406940794089409940A940B940C94C9
:105400000D940E940F941094119412941394149478
:10541000159416941794189419941A941B941C9428
:105420001D941E941F942094219480236A46082181
:105430005218D4509121090169440A600B234B6032
:10544000A626F6006E440822300005F0DBFA584B21
:105450006B441C60B723DB006B441C605C4B6B44EB
:105460001C60346873685F00FF18BF00E619BA104B
:10547000BB1818011B1818021B1818041818400034
:1054800080184D4A974211D8002814D04B4A9042B8
:105490000FD843001818800005F0BAFA444B6B444B
:1054A0001860C7194A4B6B441F600AE0454808F072
:1054B00027FA08F0FDF90020F0E7030007CC07C346
:1054C0001800A642F9D13A4E6E447060002423942D
:1054D0002494259426942794289429942A942B94F0
:1054E0002C942D942E942F9430943194062332933F
:1054F000033B3393023B349349333593263B369336
:10550000133B37932A3338931D3B3993103B3A931F
:105510003B943C943D943E943F94409441944294F7
:1055200072336A468C215218D4502A4969440A6061
:105530000B234B60A627FF006F440822380005F0BC
:1055400061FAF460346174613C687B685F00FF1845
:10555000BF00E619BA10BB1818011B1818021B1857
:105560001804181840008018134A974219D80028C8
:105570001CD0124A904217D843001818800005F03A
:1055800047FAB823DB006B441860C719B923DB0066
:105590006B441F60A6421FD0030007CC07C318004E
:1055A000F8E7084808F0ACF908F082F90020E8E7CD
:1055B000B4050000E8080000F8FFFF7FAAAAAA0AC5
:1055C0002C0600009C690110F8080000F169011028
:1055D000BC05000018090000BA4E6E44306100247A
:1055E0004494459446944794489449944A944B94DF
:1055F0004C944D944E944F941D2350930F3B5193D4
:1056000007225292913253924C3A5492293A55922F
:1056100061325692423A5792243A589275215991E2
:105620003B395A9120395B9121315C915D925E93B7
:105630005F94609461946294639472336A46D53146
:105640005218D4509221090169440A600B234B601F
:10565000A627FF006F440822380005F0D3F9B46193
:10566000F46134623C687B685F00FF18BF00E61994
:10567000BA10BB1818011B1818021B1818041818A8
:1056800040008018904A974217D800281AD08F4AB5
:10569000904215D843001818800005F0B9F98C4BDA
:1056A0006B441860C7198B4B6B441F60A6420BD02C
:1056B000030007CC07C31800F8E7874808F020F973
:1056C00008F0F6F80020EAE77E4E6E44F061002410
:1056D000659466946794689469946A946B946C94E6
:1056E0006D9429236E93143B6F930B3B7093D133CE
:1056F00071936C3B72933C3B7393B3337493713BE4
:105700007593362276924F327792433A7892233AC3
:1057100079925F327A923D3A7B92243A7C927D93E1
:105720003B3B7E93203B7F93143B8093023B8193D2
:10573000023B8293839484947E336A46CA21490053
:105740005218D450654969440A600B234B60A62760
:10575000FF006F440822380005F054F97462B46207
:10576000F4623C687B685F00FF18BF00E619BA105E
:10577000BB1818011B1818021B1818041818400031
:105780008018514A974213D8002816D04F4A9042A9
:1057900011D843001818800005F03AF9BB23DB004C
:1057A0006B441860C719BC23DB006B441F600AE020
:1057B000494808F0A5F808F07BF80020EEE7030060
:1057C00007CC07C31800A642F9D13E4E6E44B06222
:1057D000002486948794889489948A948B94622375
:1057E0008C93313B8D931B3B8E93C0228F925F3AFB
:1057F0009092343A919264329292473A9392283A34
:1058000094925A3295923D3A9692233A9792183250
:105810009892193A99920F3A9A928C329B924C3AFA
:105820009C92293A9D923A329E922F3A9F92A0934F
:105830005233A193333BA2931E3BA393A494A5940C
:1058400069336A46862189005218D4509321090190
:1058500069440A600B234B60A627FF006F440822AF
:10586000380005F0CFF834637463B4633C687B6838
:105870005F00FF18BF00E619BA10BB1818011B180B
:1058800018021B1818041818400080180E4A974276
:1058900011D8002814D00D4A90420FD84300181890
:1058A000800005F0B5F80E4B6B441860C7190D4B1E
:1058B0006B441F601CE0084808F022F807F0F8FF6E
:1058C0000020F0E7B4050000F8FFFF7FAAAAAA0AAB
:1058D000CC050000D40500009C69011028090000D7
:1058E000E4050000EC050000030007CC07C3180026
:1058F000A642F9D1C14E6E4470630D23A793063BB7
:10590000A893043BA993AF33AA93583BAB93313B85
:10591000AC93E622AD92713AAE923F3AAF926232C8
:10592000B0924C3AB192293AB2928C32B392573A31
:10593000B492B593083AB692B793173BB89329320D
:10594000B9923C3ABA92213ABB920024BC94BD94DD
:10595000BE940E32BF92153AC0920B3AC192653294
:10596000C292383AC3921E3AC4920C32C592C69380
:105970006E331C3A6946A72080000918CA50A04916
:105980006944A7AB0B600B234B60A627FF006F4455
:105990000822380005F036F8F463346474643C6817
:1059A0007B685F00FF18BF00E619BA10BB1818012A
:1059B0001B1818021B181804181840008018914A68
:1059C000974219D800281CD08F4A904217D843001C
:1059D0001818800005F01CF8BE23DB006B4418602B
:1059E000C719BF23DB006B441F60A6420BD0030026
:1059F00007CC07C31800F8E7844807F081FF07F0D9
:105A000057FF0020E8E77D4E6E4430640024C894C0
:105A1000C994CA940D23CB93063BCC93043BCD93FE
:105A20001F33CE93123BCF93083BD0936033D19377
:105A3000333BD2931C3BD3937E33D4934B3BD593D0
:105A4000283BD6937221D7913922D892093BD9931A
:105A5000AC20DA905638DB902E38DC904830DD9060
:105A60003838DE90DF931730E0902838E190153811
:105A7000E290E391E492E593E694E79465336A4615
:105A8000C82189005218D4509421090169440A6040
:105A90000B234B60A627FF006F440822380004F058
:105AA000B1FFB464F46434653C687B685F00FF1840
:105AB000BF00E619BA10BB1818011B1818021B18F2
:105AC00018041818400080184E4A974217D800282A
:105AD0001AD04D4A904215D843001818800004F09F
