:020000041000EA
:1000000000B5324B212058609868022188439860DF
:10001000D860186158612E4B002199600221596106
:100020000121F02299502B49196001219960352056
:1000300000F044F80222904214D00621196600F024
:1000400034F8196E01211966002018661A6600F04E
:100050002CF8196E196E196E052000F02FF8012189
:100060000842F9D1002199601B49196000215960AB
:100070001A491B48016001219960EB211966A021F2
:10008000196600F012F800219960164914480160C1
:100090000121996001BC002800D000471248134993
:1000A000086003C880F30888084703B5996A0420EC
:1000B0000142FBD001200142F8D103BD02B5186610
:1000C0001866FFF7F2FF186E186E02BD00000240BE
:1000D000000000180000070000035F00212200005C
:1000E000F4000018222000A00001001008ED00E03C
:1000F00000000000000000000000000074B24E7A12
:1001000000200420F7010010C3010010C5010010F9
:10011000C1010010C1010010C1010010C101001097
:10012000C1010010C1010010C1010010C701001081
:10013000C1010010C1010010C9010010CB01001065
:10014000CD010010CD010010CD010010CD01001037
:10015000CD010010CD010010CD010010CD01001027
:10016000CD010010CD010010CD010010CD01001017
:10017000CD010010CD010010CD010010CD01001007
:10018000CD010010CD010010CD010010CD010010F7
:10019000CD010010CD010010CD010010CD010010E7
:1001A000CD010010CD010010CD010010CD010010D7
:1001B000CD010010CD010010CD010010CD010010C7
:1001C00000BE00BE00BE00BE00BE00BE00F04BF888
:1001D000103800BEF2EB88710C2506103025061091
:1001E0003402001090A31AE700202149086006C8D5
:1001F00081F3088810471F48006800282FD10DA4FC
:100200000ECC002902D000F012F8F9E71A491B4A77
:10021000002000E001C19142FCD1194988471949E9
:1002200088471949884700BEFDE701C901C29A42C3
:10023000FBD3704730250610C00000201C1D002095
:100240008C41061000000420000004208C410610A0
:1002500000100420001004200000000070470B482C
:1002600004F094FB0047EFF30580C0B27047000034
:1002700008ED00E0000000D0201D002010630020E9
:10028000353300108D040010F13200105756000075
:1002900006005250ABB3605318D2041006005250FF
:1002A000861C030228D20410060052505422A29D3C
:1002B00034D2041005005250DE65F4688C410610FB
:1002C000F8B5C04610B5064C2378002B07D1054B76
:1002D000002B02D0044800E000BF0123237010BDB2
:1002E000201E00200000000048C20410044B10B57E
:1002F000002B03D00349044800E000BF10BDC046F6
:1003000000000000241E002048C2041070B582B016
:1003100005000E1E0DD0941B01940F2C0ED82868DA
:10032000012C14D0002C14D02200310006F0B4FBB4
:100330000FE09142EFD00B481DF07AFC002201A99A
:10034000280028F08BFC2860019BAB60E7E733783E
:100350000370019A6A602B689B1800221A7002B021
:1003600070BDC04648C20410F8B504000D00012855
:1003700005D0002C02D1324B9D4259D0F8BD304BF4
:100380009942F6D100230B2235212E4808F048FE71
:100390002D4E80235B003380813B7380371D2B4AB9
:1003A0000021380006F072FB294BF750294BF0185A
:1003B0001022002106F06AFB274B0022F250274B47
:1003C000274AF2520721274B002923DB00221A700B
:1003D000A520800058800120404298800226DE80BF
:1003E00004361E815881023098811F48D8811A82B4
:1003F0005A619A611A77DA831A625A629A62DA62E9
:100400003020023E1E5401301A5483301A50BC333F
:100410000139D9E70C4A154B0221D1541448030085
:10042000083303600023134A1349FFF76FFFA0E767
:100430000F4828F031FC044807F028FA9EE7C04630
:10044000FFFF00008C6000207036002018240000A0
:100450001C2400002024000030240000342400006C
:10046000FF2F0000A85A0020FF7F0000182A00007C
:100470003C1E002078C2041074C2041010B502495A
:100480000120FFF771FF10BDFFFF000010B58EB017
:1004900006F0CAFC1F4807F049FA05A800F044F826
:1004A00005A800F011FE27E01B491A4807F09AFF43
:1004B00028E01A49174807F095FF194CA023972206
:1004C0007021200008F06CFD00230C930D93013384
:1004D00001220292002201928022D20500925B4208
:1004E0000CAA1049200008F0F5FC2100094807F08B
:1004F00087FF0A2002F0B4FA1521064807F0DAFF58
:100500000028D1D11A21034807F0D4FF0028D0D108
:10051000D3E7C046703600200AD7233C0AD723BC55
:100520008C6000203C1E0020030018330360012370
:10053000436000238360C360FE2292050261436131
:1005400083617047F0B583B006000F0014001D00F2
:100550003DF030FB036800933DF02CFB002303606B
:10056000089A01A92000B0470600019BA34211D0C0
:100570003DF020FB0368222B0FD0002D02D0019B01
:100580001C1B2C603DF016FB0368002B08D03000CC
:1005900003B0F0BD38001DF063FB38001DF090FB88
:1005A000009C3DF007FB0460F1E77047F0B5DE46C4
:1005B00057464E464546E0B583B005000F0016008D
:1005C0000123009342680368D11A89108B005B18DD
:1005D0001C011B191C021B191C041C196400641843
:1005E000374B0121A34250D001948C4250D301AB30
:1005F0001B68E4182B68D21A921093009B181901FB
:100600005B1819025B1819045B185B009B189C426D
:1006100040D32B4B9C423FD82B6899466B689A4637
:100620004B46FB1A9B46002C3AD0254B9C4235D8B2
:1006300060000019800006F035FA80465B464344AE
:1006400007CE07C34B46FE1A002E2CDC46440C3660
:100650005346DB1B9A46002B2BDC5644AB684A46BC
:10066000991A002A02D0484606F02CFA43462B601D
:100670006E606000001980004044A86003B0F0BCC8
:10068000BB46B246A946A046F0BD0E481DF000FB91
:100690006B46ADE70A4CBFE7094CBDE71DF0A8FA71
:1006A00000239846CAE73200494640463FF0FAF830
:1006B000CCE71A00390030003FF0F4F8CDE7C0462F
:1006C000AAAAAA0A7CC2041070B582B005000E1E48
:1006D0000DD0941B01940F2C0ED82868012C14D037
:1006E000002C14D02200310006F0D6F90FE0914220
:1006F000EFD00B481DF09CFA002201A9280028F039
:10070000ADFA2860019BAB60E7E733780370019A8C
:100710006A602B689B1800221A7002B070BDC04638
:1007200048C20410F0B5DE4657464E464546E0B591
:1007300085B08146140001230293030040681B68C2
:10074000C51AED10AA0052191301D2181302D218BB
:100750001304D3185B005B195B4E01229E423DD00F
:10076000039393423DD303AA1268984690444B46A4
:100770001B68C21AD21093009B1818011B1818028C
:100780001B1818041B185B009B1898452BD34E4B65
:1007900098452BD84B461B689B464B465B689A4650
:1007A0000D005B46CE1A4346002B24D0464B98459D
:1007B0001FD8434658004044C00006F073F901902A
:1007C000019FB819030008330360216862688A1822
:1007D0000023FFF779FF3C005E4616E03B481DF022
:1007E00057FA02AAC0E7384B9846D3E7364B9846EB
:1007F000D0E71DF0FDF900230193E1E71022390055
:1008000006F04AF90EE018361834B5421AD0200026
:1008100008302060336837000837BB42EED02360D1
:10082000B368A360736863603760002373603B70D4
:100830003068330008339842E5D0B368591C06F09D
:1008400041F9E0E7183406E01022310006F024F9FF
:100850000EE018351834AA451AD020000830206060
:100860002B682E000836B342EED02360AB68A3603D
:100870006B6863602E6000236B60337028682B0008
:1008800008339842E5D0AB68591C06F01BF9E0E745
:100890004B469B685A46991A002A02D0584606F0E1
:1008A00011F94A46019B136054604246500040448F
:1008B000C0009C4660444B46986005B0F0BCBB4607
:1008C000B246A946A046F0BD555555057CC2041058
:1008D00010B50800910006F0F5F810BDF0B5D64649
:1008E0004F464646C0B507008846924699468B005B
:1008F0000268D658002E26D0346819E0534618688E
:100900006168002A05D03EF0A9FF002803D1012329
:1009100017E0012315E0002313E02568002D1AD00D
:100920007968A86A04F086F82600884511D12C0061
:10093000A36A9945F1D153465A68A3689A42DDD01B
:100940000023002BE9D03000E0BCBA46B146A846EF
:10095000F0BD0026F7E72E00F5E7F0B583B01500EF
:100960002C2006F09FF806000400002308C42D6820
:1009700001950C3070602B682F000837BB4214D0F3
:100980007360AB68A3606B6863602F6000276F6063
:100990002F72200018300C22002106F077F8A76192
:1009A000E7612762300003B0F0BD1022390006F085
:1009B00073F8E8E7F8B5040016008D0003685B598A
:1009C000002B05D01B68136003685B591A60F8BDE3
:1009D0008368136082601368002B06D00768986AEA
:1009E000616804F027F889007E50236808345C5160
:1009F000EDE77047704770B580239B0599420AD296
:100A00008C00200006F04EF805002200002106F0C0
:100A10003DF8280070BD1DF0EBF8F8B5CE4647460E
:100A200080B505000F00012907D0FFF7E4FF8046DD
:100A3000AC680023AB6099460CE000238361183357
:100A400098468044F4E7894603E0126822601B68F8
:100A50001C603400002C18D026683900A06A03F00E
:100A6000E9FF8B0043441A68002AEED1AA6822608D
:100A7000AC602A0008321A602368002BE3D04B4692
:100A80009B004246D4508946E3E729686A682B00F8
:100A90001833994202D02800FFF71AFF6F604346CF
:100AA0002B60C0BCB946B046F8BD10B50022FFF7B8
:100AB000B4FF10BDF0B5C64600B586B00400904640
:100AC0001E000C9F4369059303AD010010310D9B7F
:100AD0000093C368426828001DF0DAF92B78002BD8
:100AE0000DD1BE623A0041462000FFF763FFE36884
:100AF0000133E360380006B080BCB846F0BD05AAFB
:100B000004992000FFF7D1FF6168300003F092FFE5
:100B10008846E6E7F0B587B005000C00164A49683C
:100B2000206809F065F90600696803F083FF0F008B
:100B3000330022002800FFF7D1FE002805D000680E
:100B4000002802D01C3007B0F0BD0494029505AB1C
:100B500004AA0A492800FFF700FF0390012301932C
:100B6000009033003A0021002800FFF7A3FF002384
:100B700003931C30E7E7C04607690FC7A8C20410FB
:100B800070470000F0B5DE4657464E464546E0B594
:100B900085B0804692460123029342680368D01ACA
:100BA000801083001B181D015B191D025B191D04B9
:100BB0005D196D002D185D4C0123AC426CD003957E
:100BC0009D426CD303AB1B68ED1843461B68D21AD9
:100BD000921093009B1818011B1818021B18180478
:100BE0001B185B009B189D425BD3504B9D425AD80B
:100BF00043461B689B4643465B6899460C005B4630
:100C0000CF1A002D53D0494B9D424ED86800401951
:100C1000800005F047FF0090009B9C4667445346C8
:100C20005A681B68D21A921093009B181E019B19D8
:100C30001E029B191E049E197600B61800233B6005
:100C40007B60BB60002E37D0384B9E4232D870009C
:100C50008019800005F026FF3860786073009E19C7
:100C6000B6008019B860534618685E683B689A46BB
:100C7000FFF786FF01903000FFF782FF019BC61A45
:100C8000834204D03200190050463EF00BFE564419
:100C90007E60009E5B461DE025481CF0F9FF02AB1C
:100CA00091E7224DA4E7214DA2E71CF0A1FF00230C
:100CB0000093B1E71CF09CFF0020CDE71A6832607A
:100CC0005A6872609A68B26000229A605A601A602C
:100CD0000C330C369C42F1D10C360BE023683360A8
:100CE00063687360A368B3600023A36063602360DC
:100CF0000C340C36A145F1D143469B685A46991AEB
:100D0000002A02D0584605F0DDFE4246009B1360E3
:100D100056606800401980009C466044906005B0B1
:100D2000F0BCBB46B246A946A046F0BDAAAAAA0A94
:100D30007CC2041070470000F8B5CE46474680B527
:100D400004000D00814231D04B6898460F68DE1BCD
:100D5000B01083001B181A019B181A029B181A0462
:100D60009B185B001B1822689146A2684946521ADC
:100D7000B24220D363685A1AB24244D33800FFF714
:100D8000FFFE05004046FFF7FBFE07004846FFF761
:100D9000D1FF7A1BBD4202D029003EF083FD4846B8
:100DA000FFF7C8FF23689C46664466602000C0BC0D
:100DB000B946B046F8BD002B23D01D4A93421ED839
:100DC0005800C018800005F06DFE05003800FFF7E0
:100DD000D7FE07004046FFF7D3FEC21B874203D071
:100DE000390028003EF05EFD2068A368191A00282B
:100DF00001D005F067FE2560AD19A560D2E71CF0B3
:100E0000F7FE0025E2E7BB18BB4203D03900484695
:100E10003EF048FD60682368C11A2B689C46614417
:100E20006B685A1A9942BDD03EF03CFDBAE7C04605
:100E3000AAAAAA0AF0B5DE4657464E464546E0B590
:100E400083B005000C00814200D1AFE04E680F680E
:100E5000F31B9B46981083001B181A019B181A025B
:100E60009B181A049B185B001B182A689046AA68F6
:100E70004146521A594691421FD86B6842469A1A07
:100E8000914200D9B7E0C1463800FFF7B2FD070034
:100E90003000FFF7AEFD04004046FFF7ABFD060053
:100EA000E41BA21093009B181C011B191C021B19A8
:100EB0001C041C196400A41887E0002B0ED0814A82
:100EC000934209D85800C018800005F0EBFD01904E
:100ED0003B00B246019C0EE01CF08AFE0023019309
:100EE000F6E71CF085FE002025E043464B44636096
:100EF0003B000C330C341F0053453AD0A0465E68CB
:100F00001A68B21A921093009B181E019B191E02B8
:100F10009B191E049E197600B61800232360636097
:100F2000A360002EDFD0674B9E42DAD87000801994
:100F3000800005F0B7FD43461860586073009E19A5
:100F4000B6008019434698607B68994623689846A6
:100F50003868FFF715FE06004846FFF711FE831BB1
:100F600099468642C1D01A00310040463EF09AFCB4
:100F7000BBE72C686E6800E00C34A64207D02068FE
:100F8000A368191A0028F7D005F09CFDF4E728683B
:100F9000AB68191A002801D005F094FD019B2B6065
:100FA00018005844A8602B685B446B60280003B0AD
:100FB000F0BCBB46B246A946A046F0BD39003000A1
:100FC000FFF7BAFE0C370C36013C002CF6DC484625
:100FD000FFF710FD361A4E446F6801E00C3426000E
:100FE0003400BE42DFD03068B168091A0028F5D05D
:100FF00005F068FDF2E7921093009B181E019B1903
:101000001E029B191E049E197600B61808E03900CE
:101010004046FFF791FE0C370C239C46E044013E0E
:10102000002EF4DC6E682B68F71A23689C46674430
:101030006368994608E01CF0DBFD002023E043468E
:10104000534473600C370C36B945ACD0B0467B685E
:101050003A689A1A921093009B181C011B191C02E3
:101060001B191C041C196400A4180023336073604E
:10107000B360002CE1D0134B9C42DCD86000001917
:10108000800005F00FFD43461860586063001C198E
:10109000A4000019434698607B689A4633689846D6
:1010A0003868FFF76DFD04005046FFF769FD031B2C
:1010B0009A468442C3D01A00210040463EF0F2FB1B
:1010C000BDE7C046AAAAAA0AF0B5DE4657464E4674
:1010D0004546E0B5EA4CA5448246EA48FFF765FA82
:1010E00004003FF069FFB0AAB090B19455AB19006D
:1010F00021CA21C11100180060C860C1190021CAAD
:1011000021C11100180060C860C103CA03C398ABB5
:101110009693559BE2180023210096A8FFF7F6F856
:101120009CA832F093FD96A832F0D0FD0023002257
:1011300096A9AEA832F07EFAAE9A9D92AF9B9E938E
:10114000002B02D0596801315960059200210691A7
:101150009E9106939D919F92AF9CA094002C02D0EB
:10116000636801336360002307930893002C00D168
:10117000DCE26368013B6360002B00D0D6E22368A9
:101180009B6820009847A368013BA360002B00D018
:10119000CCE22368DB6820009847C7E2559B0C3BF4
:1011A0001868AC4660440421436919431CF0F6FEFC
:1011B00010E31CF02DFD38000FF0CEFB3B689B695F
:1011C0000A21380098470200BBE01837BE4209D018
:1011D00038683B0008339842F7D0BB68591C05F0CB
:1011E00071FCF2E70D9504E01BAA01000CA8FFF7C3
:1011F00099FA2C221BA921A809F094F803680C3B4A
:101200001B68C018436905221A4213D10D980E9B22
:101210009842E9D00300083303601B9A1C9B9C464C
:10122000624400231B99FFF74FFA0D9B0393183379
:101230000D93DEE70C9B1A68934E944F0A25009598
:10124000002331003800FFF77DF912900C9B9A695A
:101250000095002331003800FFF774F913900C9BC0
:101260001A6B0095002331003800FFF76BF91490DA
:101270001099119B994200D1FDE012AB25CB25C1FD
:10128000109B03930C331093814B21931A00283247
:101290003392143323937F4B24932D982FAB984292
:1012A00003D02F9B591C05F00DFC7B4B24932BA8DE
:1012B00009F0D4F9794B5A6821920C3A1268BA2194
:1012C0008900521802A884466244754884466244E4
:1012D00098691060DA6923921A6923920C3A1268AD
:1012E000521802A8844662446E4884466244586993
:1012F00010609A6821920C3A1268521802A98C4622
:10130000624467498C466244DB6813600023229381
:10131000654B339333A81CF0E1FE01340A2C00DD49
:10132000C4E0559B0C3B1B6855AA94466344DF6F91
:10133000002F00D13DE73B7F002B00D13BE7272367
:10134000FA5C15A955A808F0EDFF33A81CF088FE3B
:10135000554B33930027B82302A97C228918CF501C
:10136000043302A98918CF54013302A98918CF5434
:10137000033302A98918CF50043302A98918CF502A
:10138000043302A98918CF50043302A98A18D75010
:10139000424DAB6821930C3B1B68BA26B6009B19E3
:1013A0008C4663443E4A94466344EA681A60229736
:1013B000219B0C3B186821AB9C46604400211CF02B
:1013C0003BFE2B6923930C3B1B689B1902AA944696
:1013D0006344344A944663446A691A60239B0393C6
:1013E0000C3B186823AB9C46604400211CF024FE93
:1013F0006B6821930C3B1B689B1902AA94466344BB
:10140000274A94466344AA691A60EB6903932393BD
:101410001F4B21931A0028323392143323931E4B0F
:101420002493259726972797289729972A972BA8BB
:1014300009F02AFF174B24932C972FAB2D93159A65
:10144000169B9C466244002315992DA8FEF75EFF6B
:1014500018232C932D990023002224A827F0C8F9E3
:1014600024A933A81CF0E8FD0C9D0D9EB54200D1C7
:10147000BFE62F00AAE612AA0FA8FFF797F803E726
:101480000CFDFFFF98C20410A0C2041041220410FA
:10149000F48A0510FC890510B88B0510C08A051068
:1014A00094FDFFFF9CFDFFFFFC8105100A9F0B9B35
:1014B0009F4251D0109B0F9A9A1A921093009B183A
:1014C00019015B181C021B191C041C196400A418C8
:1014D00000233B607B60BB60002C3BD0C54B9C4233
:1014E00036D860000019800005F0DCFA38607860BA
:1014F00063001C19A4000019B8603B6898460F9857
:10150000FFF73EFB04001098FFF73AFB061B8442EE
:1015100004D03200210040463EF0C4F9320042447B
:101520007A600A9B03930C330A930F98119B191A44
:10153000002801D005F0C6FA01239C46E3445B462F
:101540000A2B0FDC00230F93109311930024E5E680
:101550001CF04EFB0020C9E70FAA390009A8FFF7CD
:1015600011FBE2E7494621A832F074FB219A002AD8
:1015700002D0229B002B49D1A7ABA9AAA792002297
:10158000A8921A72ADA832F061FBA3ACA194A79AFD
:10159000A89B9C4662440023A799A1A8FEF7B6FE2B
:1015A000A1A95046FFF7B6FA09A9FFF743FCA19895
:1015B000A04203D0A39B591C05F084FAAD990029E1
:1015C00002D0ADA832F0DAFA0023AD93A798A9AB08
:1015D000984203D0A99B591C05F074FA57A81BF038
:1015E00099FE002843D01B981DAB984203D01D9B49
:1015F000591C05F067FA159817AB984203D0179B52
:10160000591C05F05FFA0C9C0D9D3DE0B8A9B69100
:1016100011685268934200D21A008A180023B6A8B3
:10162000FEF774FEA9ABA793B69BB8AA934218D055
:10163000A793B89BA993B6ABB79AA892B8ACB69447
:101640000022B7921A72ADA832F000FBA7A832F0C0
:101650003DFBB698A04298D0B89B591C05F032FAD1
:1016600093E7A9AB13CA13C312681A60E3E7559B4B
:101670000C3B186855AB9C466044042143691943F0
:101680001CF08CFCAFE71834A54209D02068230079
:1016900008339842F7D0A368591C05F013FAF2E713
:1016A0000C980E9B191A002801D005F00BFA524B2A
:1016B000559314337493514B579357A81BF02AFE3C
:1016C00060A808F025FD4E4B57935EA808F0C6FFB2
:1016D0004C4A536855930C3B1B68BA2189005B1830
:1016E00002A98C4663449D3BFF3B92681A6000232D
:1016F0005693454B749374A81CF0F0FC099C0A9D0A
:1017000000E00C34A54207D02068A368191A00280D
:10171000F7D005F0D7F9F4E709980B9B191A0028C0
:1017200001D005F0CFF905A831F014FF069C002C7C
:101730006CD005A831F000FF8146002409940A947A
:101740000B9474A81CF08CFC55AD2F4B7493EC23B8
:10175000EC500433EC540133EC540333EC500433B9
:10176000EC500433EC500433EC50264A5368559344
:101770000C3B1B68BA2189005B1802A98C466344A4
:101780009D3BFF3B92681A605694559B0C3B186832
:10179000AC46604400211CF04FFC174B55931433AA
:1017A000749357A81BF044FC57A974A81CF044FC80
:1017B00008224B46196857A81BF020FE002800D1CC
:1017C000ECE4559B0C3B186855AB9C4660440021EB
:1017D0001CF0E4FB00230C930D930E9315AA17A99C
:1017E0001591169313721BAA1DA91B911C931372BA
:1017F0009B46A4E6AAAAAA0AFC7C0510807C0510D8
:10180000B88B0510E07C0510FC810510002C11D070
:101810006368013B6360002B0CD123689B68200048
:101820009847A368013BA360002B03D12368DB68C2
:1018300020009847AF9C002C11D06368013B636087
:10184000002B0CD123689B6820009847A368013BBC
:10185000A360002B03D12368DB68200098479C9984
:10186000002902D09CA832F089F900239C93969815
:1018700098AB984203D0989B591C05F023F9BD23DF
:101880009B009D44F0BCBB46B246A946A046F0BDB5
:1018900010B58300084A944663441C6840226240A5
:1018A000C02414408022520113431C60C000034B2B
:1018B0009C466044416010BD04C0014000400140AE
:1018C00080000B4B9C46604400290DD00823002A61
:1018D0000CD004221343026853400C221340802290
:1018E00052011043036070470023F0E70022F1E744
:1018F00004C00140002909D08000094B9C46604487
:1019000080239B0118434023036070478000044BF1
:101910009C466044C0239B01184340230360F4E7C6
:1019200004C0014010B501238340D0221206936207
:1019300093610521FFF7ACFF10BD0000EFF31080AD
:1019400072B6034B1B68002BFBD0BFF35F8F704751
:101950002C0100D0BFF35F8F024B00221A6080F38E
:10196000108870472C0100D0F8B506000C00150057
:10197000FFF7E4FFE308F718F15C07222240012398
:1019800093400B4205D1DBB20B433B70FFF7E2FF04
:10199000F8BD2100280001F049FDF0B583B0060034
:1019A000019114001F00FFF7C9FF00E00134BC42A1
:1019B0000CD8E308F518F35C0721214001228A4086
:1019C0001A42F3D1D2B21A432A7001E001246442D0
:1019D000FFF7C0FF002C02DB200003B0F0BD019B2D
:1019E000002BF9D0089801F021FD000070B505002A
:1019F0000C00FFF7A3FFE308EE18EA5C07210C4098
:101A00000123A340134204D09A433270FFF7A2FF90
:101A100070BD034B034A2C31034801F06DFCC046F6
:101A2000ACC2041018C30410CCC20410034B1B68D2
:101A300002201840431E9841C0B2704700C00640C3
:101A4000002307E0054A9A189200BFF35F8F002138
:101A5000116001331F2BF5D97047C0464000003498
:101A6000054A1078431CDBB21370172B02D9130000
:101A700010221A707047C04674110020074B9B68F3
:101A8000103080001950BFF35F8FBFF35F8F044B9E
:101A90000021196082F310887047C04600ED00E015
:101AA000240100D010B5091A081F0A4B9C46614456
:101AB000094A914208D8C30706D440104005400D9A
:101AC000064B184380B210BD054B064A99210648C3
:101AD00001F012FCFC070000FE0F000000E0FFFF19
:101AE00028C3041074C5041058C3041010B5091A93
:101AF00004394C08090B08D14905490D064A114320
:101B00000180064B2343438010BD054B054AA121AC
:101B1000054801F0F1FBC04600F0FFFF00F8FFFFB1
:101B2000A0C3041048C5041058C304100123834007
:101B3000034A10681840431E9841C0B27047C0461F
:101B400000E100E0002904D0034B1860034B18604B
:101B50007047034B1860FBE780E200E000E100E023
:101B600080E100E010B5012383401800FFF7EAFF91
:101B700010BD0000024B9B6810308000C0587047B9
:101B800000ED00E070B504000D00EFF3108672B6B2
:101B90000C4B1B68002BFBD0BFF35F8F2000FFF7BF
:101BA000E9FF094B984201D0A84205D13200290033
:101BB0002000FFF763FF70BD044B054A7C210548F8
:101BC00001F09AFB240100D0CD010010B0C3041035
:101BD000A8C5041058C30410F0B5DE4657464E465B
:101BE0004546E0B589B0814601911500EFF3108AB2
:101BF00072B6744B1B68002BFBD0BFF35F8F724B28
:101C00000027DF57002F40DB7C00E419A4006F4859
:101C100024180622A2566C4B1A706D4B9A684B46DC
:101C200010339B00D35898461E001B1A2F2B38D90F
:101C3000684B98452FD105AE674B33807B009B46A0
:101C4000D8198000614B9846404402306349FFF741
:101C500029FF7080624BB380FF23B371F571019B44
:101C600007935F44BF0047440ECE0EC701231C43B9
:101C7000A046524641464846FFF700FF09B0F0BC77
:101C8000BB46B246A946A046F0BD564B564ACD21AA
:101C9000564801F031FB564B534AD421534801F0CA
:101CA0002BFBC04340440C2102F0C4FE002912D19A
:101CB00001239E43B34633000026DA79AA4211D9A4
:101CC0000621595600290CDB4A00521892001E00CA
:101CD0003E4B9B18F1E7474B434AE021434801F054
:101CE0000BFB1E00002E3BD005AB434A1A80813A05
:101CF0005A800623F3560293002B18DABD20000207
:101D000005AB9B469880029A9A71DD71019A079201
:101D1000301D2100FFF7C6FEB080B7717B00DB19D4
:101D20009B002A4FFF185B4607CB07C7A1E7780047
:101D3000C0198000254BC0180430321DB388D90A61
:101D40001C2907D15B055915023149005118FFF7CD
:101D5000A9FED5E7294B2A4AA721244801F0CCFA4D
:101D600005AE1D4B33807B000293D8198000174AC3
:101D70009046020042440392901C1849FFF792FEDD
:101D80007080039A101D5946FFF78CFEB0801D4BE2
:101D90005A464146521A524153431B0DB371F571D5
:101DA000019A0792029B9C466744BF0047440ECEAF
:101DB0000EC7114B5A461380813B538001231C43AD
:101DC000A04656E7240100D00D63002078110020C2
:101DD00000ED00E0CD01001000A1FFFFA8110020E0
:101DE00000BDFFFFE8C3041090C5041058C30410E1
:101DF00010C4041038C4041001480000ACC404101E
:101E000080C50410AAAA0000F0B5CE46474680B5AA
:101E100083B006000D00EFF3108872B6564B1B68B6
:101E2000002BFBD0BFF35F8F544B9A683400103403
:101E3000A300D758524B9F4207D0AF4200D199E040
:101E40000197504BFB1A2F2B09D94246390030001D
:101E5000FFF714FE03B0C0BCB946B046F0BD300079
:101E6000FFF764FE814600213000FFF77BFEBFF3E1
:101E70005F8FFEF7F8F9002801D0844211D10123C9
:101E8000019C9C430022A368AB4212D00622A256BA
:101E9000002A0DDB53009B189B002200394CE418EC
:101EA000F1E72C21384B394AFF31394801F024FA47
:101EB0002200AB4257D106256557002D39DB6B0058
:101EC0005B199A002F4B9B189A68A260DA79E2712D
:101ED00006229A56A2719B795BB2002B10DABD20C4
:101EE0000002A0806B005B199B00264AD318294A88
:101EF00011789971157049463000FFF733FEA4E759
:101F0000201D6B005B199B001E4A9B181A1D9B88A5
:101F1000D90A1C2907D15B055B15023359005118FA
:101F2000FFF7C0FDDDE71C4B1C4AA721184801F054
:101F3000E3F9002812D1002A0ED0FF239371184B29
:101F40009380144A1378A371164B0E49641A6441A6
:101F500063431B0D1370CEE7094FF2E7201D1249B2
:101F6000FFF7C4FDC7E76021104B084AFF3108485E
:101F700001F0C2F9024F68E7240100D000ED00E053
:101F8000CD01001078110020C4C4041060C50410F5
:101F900058C304100D630020ACC4041080C50410A5
:101FA00000BDFFFFAAAA0000B2110020E8C404107F
:101FB00070B50400012606432D4BF31A2F2B28D8A9
:101FC000FEF751F900282BD0EFF3108C72B6294B95
:101FD0001B68002BFBD0BFF35F8F274D22002449E5
:101FE000521A524155432D0D6DB2244B9B6880000F
:101FF0001B58B3421BD00022032A32D853009B182F
:102000009B001B49CB189B795BB2AB421FD00132BE
:10201000F2E7C2211A4B1B4A49001B4801F06CF938
:1020200088211A4B174AFF31174801F065F9134B05
:102030009B68174A1A50174B1A78A2711D70BFF38C
:102040005F8F0C4B00221A608CF3108870BD080063
:102050005300991889004118FF268E710E4A8A8014
:10206000E9E7CC210D4B074A4900074801F044F944
:1020700078110020240100D0AAAA000000ED00E0A1
:10208000F0C404102CC5041058C3041018C5041063
:10209000CD0100100D63002000BDFFFF24C504101A
:1020A0000022044B02E0044902C30132072AFAD994
:1020B0007047C04600E400E080808080024B9C4670
:1020C00061448900016070474000003470B505002C
:1020D0000C00080000F014FD200000F01DFE08496F
:1020E000200000F05DFDFFF7BBFC064B9C46604402
:1020F000800068602C75A400034BE55070BDC0469D
:102100001124001040000034D46000200A4B1A68EB
:10211000EFF3108172B61368002BFCD0BFF35F8F12
:10212000054B1B68BFF35F8F00221A6081F3108894
:1021300040BF002000217047EC62002010B500294C
:1021400022D003681B7B99421ED8174B9C466144E2
:10215000090183689C4661440C684968002A19D0CB
:1021600003681B7B9A4215D883680F4884466244F3
:1021700012019A1810685368020001208B4201D89E
:102180000ED00020C0B210BD084B094A3B210948BF
:1021900001F0B2F8054B064A3B21064801F0ACF8C5
:1021A000A242EFD8EDE7C046FFFFFF0F18C60410AC
:1021B000ACC80410D8C5041010B500291ED0037B8C
:1021C00099421BD84B005B18033B0468A446634448
:1021D000002919D0002A1DD0914221D0002A25D0F3
:1021E000047BA24222D804685000801803382018CB
:1021F0008170197800291FD11A7010BD104B114A37
:102200006821114801F078F8104B114A6F310E48DF
:1022100001F072F80F4B0E4A70210B4801F06CF878
:102220000D4B0B4A7121084801F066F8044B054A32
:102230006821054801F060F841701A70DDE7C0467A
:102240004CC6041018C9041068C60410BCC604109B
:10225000F4C80410C8C60410D4C6041070B5060033
:102260000D001400002914D0002A14D0806873686F
:102270009847002806D0220029003000FFF79CFF75
:10228000280007E02A0021003000FFF795FF20001A
:1022900000E0100070BD0800FCE70000F0B583B05E
:1022A0000500009201930AAB1C780BAB1F78002C41
:1022B00026D003685A7B944207D10123002B19D101
:1022C000002C3BD1200003B0F0BD002C0CD01A7BB9
:1022D000944209D81A6863001B19033BD3189B78F2
:1022E000002BEBD00123E9E73E4B3F4A68213F48F2
:1022F00001F002F83E4B3F4A65213F4800F0FCFFE9
:1023000003689C7B002CDBD012D01A7B94420FD840
:1023100062001219033A19688C4662445178997325
:10232000002900D1D9730023937053701370C7E74D
:102330002C4B2D4A68212D4800F0DEFF002C3AD0AE
:102340002B681B7B9C4236D82C4BE3181B01AA68D8
:1023500094466344009A1A60019A5A60089A9A60F7
:10236000099ADA602E68002C2BD030D0337B9C4247
:102370002DD863001B19033B326894466344002246
:102380009A705A701A70717B22003000FFF766FF56
:102390007073844200D095E7287D009A019B00F07D
:1023A00047FC061E01D0002F17D00C9B002B00D13C
:1023B00088E71E7086E7124B124A3B210E4800F058
:1023C0009BFF114B114AA521084800F095FF054BD2
:1023D000054A6821054800F08FFF2868210000F0B9
:1023E0004FFEE2E74CC6041018C9041068C604107A
:1023F000ECC6041024C90410D8C50410FFFFFF0F59
:1024000018C60410ACC80410D4C5041008C90410C0
:10241000F0B5DE4657464E464546E0B58BB00990CE
:10242000002308938200B24BD658370032E0B14BFC
:10243000B14A3F21B14800F05FFFB14BB14A3B21A7
:10244000B14800F059FFB14BB14A8C21AE4800F0C1
:1024500053FFB04BAE4A9021AB4800F04DFFA84B64
:10246000AD4A4021A84800F047FF2A686B680998E8
:1024700000F0DEFB00239A4698467B68BFF35F8F2F
:1024800000221A6086F310884346002B51D10028A1
:1024900000D126E100F040FB02000B1EC7DB00204C
:1024A0000021069007917868EFF3108672B60168F4
:1024B0000029FCD0BFF35F8F396888464C7B002C25
:1024C00032D0BAD0097B8C42B7D8944965182D0117
:1024D000B9688C46654428686968801A9941002962
:1024E000C3DC01D10028C0D10021404600F0BEFD70
:1024F000A042A8D12A686B6806920793AB689846F9
:10250000EB689A464346002BA3D0002CA7D03B682B
:102510001B7B9C42A3D8631EFA68D35C08931B0202
:10252000184338610020A8E700239A469846002007
:10253000A3E7089B1B022343994651461800C04756
:1025400005000E007A68EFF3108B72B613685942DB
:102550004B41D9B2002BF9D1BFF35F8F002E26DBA0
:10256000002E52DD3B69002B53D04B4572D100F059
:10257000D3FA02000B1E73DB0100180052197341DD
:10258000984202D804D1914202D901225242D31773
:10259000002B6BDB00210491013103910294514621
:1025A0000191414600913800FFF778FE49E03B6910
:1025B000002BD5D04B451CD1069A079B1000190063
:1025C000521BB341994202D804D1904202D9012250
:1025D0005242D317002B12DB0021049101310391E9
:1025E000029451460191414600913800FFF756FE92
:1025F00027E04B4B464A9F21434800F07DFE3D4B70
:102600003D4A3F213D4800F077FE002E01D1002DCC
:10261000A8D13A68002C45D0537B9C422CD1012193
:1026200000293FD1D37B002B42D1D473002C52D050
:102630003B681B7B9C424ED8FA68013C135D01331A
:10264000135500233B617A68BFF35F8F13608BF3F0
:1026500010881FE7324B2E4AA2212B4800F04CFE77
:10266000244B254A3F21254800F046FE214B224AB3
:102670003F21224800F040FE002C0DD0137B9C42ED
:102680000AD863001B19033B1068844663449B7897
:10269000002BC5D00121C3E7224B234A68212348E0
:1026A00000F02AFE224B234AF621204800F024FEA7
:1026B000002B0AD0117B8B4207D85900CB18033B63
:1026C00011688C4663445C70AFE7164B164A68216C
:1026D000164800F011FE0A4B0F4A40210A4800F04C
:1026E0000BFE0BB0F0BCBB46B246A946A046F0BDFF
:1026F000D460002014C7041078C8041030C7041038
:1027000018C60410ACC80410D8C5041080C7041043
:1027100090C8041098C70410D0C80410FFFFFF0F22
:10272000A4C704104CC6041018C9041068C60410CD
:10273000E0C70410E4C8041010B50A4B5B68002B16
:1027400004D00A210848FFF7B9FC10BD054C23004E
:10275000064A1021206800F0A9FB03212000FFF7A2
:10276000B5FCEEE7C0110020EC6200203D21001016
:1027700010B5064B5B68002B01D0044810BD044B1C
:10278000044A5C21044800F0B7FDC046C011002097
:1027900004C80410B8C80410D8C50410F0B5DE464B
:1027A00057464E464546E0B58BB0804616001F00A2
:1027B000149B9A46159B994616AB1B789B461F2384
:1027C00002AA9446634400221A7032E0002809D01D
:1027D00042461268127B904204D8421E4146C968A4
:1027E0008A5C48E0434B444A4021444800F084FD61
:1027F0000798002B75D05B46002B72D04946D04716
:1028000004000D0003000B4300D171E0002946DBFA
:1028100000F082F906000F1E55DB36196F41B942F0
:1028200002D804D1B04202D901267642F717002F10
:102830004FDB43465A68EFF3108472B6136859426F
:102840004B41D9B20791002BF8D1BFF35F8F1F33F3
:1028500002AA9446634404930023039302934B46D5
:1028600001935346009332003B004046FFF716FDAC
:10287000031EABD1020041464968BFF35F8F0025BC
:102880000D6084F31088002B29D01F2302A98C46E9
:1028900063441B78002BABD112021043A9E732002E
:1028A0003B00361BAF41BB4202D804D1B24202D931
:1028B00001267642F717002FBBDA114B114A3F2150
:1028C000114800F019FD0E4B0E4A3F210E4800F052
:1028D00013FD0B4B0B4A3F210B4800F00DFD01206F
:1028E00040420BB0F0BCBB46B246A946A046F0BD84
:1028F0000798F6E718C60410D0C80410D8C504100D
:1029000014C7041078C8041030C70410F0B587B09D
:1029100006000F00FDF7A7FC00281FD10624644223
:10292000E517A4197D41BD4202D803D1B44201D9B3
:1029300000240025002D14DB0494059500F0ECF82C
:1029400002000B1E13DBA41A9D41002D17DC14D0CE
:102950003000390000F0ECF807B0F0BD234800F07B
:1029600065FD234B234A3F21234800F0C5FC204B43
:10297000204A3F21204800F0BFFC002CE8D0FFF7A0
:10298000F7FE0023029301931C4B0093049A059BCE
:10299000FFF704FF002818DADAE7002300E000233D
:1029A000002BD5D1164B1A68EFF3108172B613685D
:1029B000002BFCD0BFF35F8F114B1B68BFF35F8F01
:1029C00000221A6081F3108820BF0499059A0D4BEC
:1029D0005B6A9A42E3D80B48806A884203D29A42E3
:1029E000DBD00123DCE70123DAE7C04628C8041066
:1029F00014C7041078C8041030C704100D2100104B
:102A0000EC62002000400540F8B504000D0000F025
:102A100083F802000B1E10DB2000290080185941AA
:102A20008B4202D804D1824202D901204042C11710
:102A3000002908DBFFF76AFFF8BD064B064A3F2175
:102A4000064800F059FC034B034A3F21034800F0BD
:102A500053FCC04614C7041078C8041030C70410D3
:102A600010B5FA2292000023002103F047FCFFF783
:102A7000CBFF10BD70B5EFF305833F201840103831
:102A8000EFF3108C72B6194B1B68002BFBD0BFF311
:102A90005F8F012319008140154A5163154A12784E
:102AA0001400C440234214D0114B5C6A8300124DC1
:102AB0005B599C4206D38300104C1B598A430D4935
:102AC0000A7007E00A4A031D9B0099589950002399
:102AD00000E00023BFF35F8F044A002111608CF3F4
:102AE0001088002B00D0984770BDC046280100D048
:102AF000004005400E630020F0620020EC3500200D
:102B000010B50100024A0348FEF72EFF10BDC04673
:102B100048C904100B630020044B5B6A034A906AA7
:102B20001900536A9942F9D17047C04600400540E8
:102B3000084B5B6A01E0074B5B6A8B42FBD301E009
:102B4000044B5B6A8B4203D1024B9B6A8342F7D3EF
:102B50007047C0460040054070B504000D00FFF707
:102B6000DBFF02000B0020002900801859418B4236
:102B700002D804D1824202D901204042C117002963
:102B800002DBFFF7D5FF70BD024B034A3F2103482C
:102B900000F0B2FB14C70410F8C9041030C70410C9
:102BA00070B504000D00EFF3108672B61B4B1B6866
:102BB000002BFBD0BFF35F8F002D1CD02000FEF751
:102BC000D9FF174B83420BD019002000FEF7DAFF24
:102BD00001212000FEF7C6FF0123A340114A136024
:102BE000A400114BE550BFF35F8F0C4B00221A601D
:102BF00086F3108870BDA2000B4B0021D15001223A
:102C0000A2400A490B7893430B7005492000FFF757
:102C1000FBF800212000FEF7A5FFE4E7280100D023
:102C2000752A001038600540EC3500200E63002046
:102C3000F0B5DE4600B584B00400150001921E0018
:102C40000293FFF769FF03958E4202D84ED1854269
:102C50004CD9EFF3108B72B6274B1B68002BFBD0BF
:102C6000BFF35F8F254A17780125A540EBB23B43A0
:102C70001370234B5D63221D92000199D150A20075
:102C80002049029850501B6A2B4212D11C4B1B6CDE
:102C90002B4208D00020BFF35F8F174B00221A6031
:102CA0008BF3108823E0184B184AC121184800F014
:102CB00023FBFFF731FF8E4214D802D1039B8342DE
:102CC00010D80E4B1B78BB420ED00D4B1D625D63BE
:102CD0001F2004400123A3400E4A1360074B1F70BE
:102CE0001E38D8E70020D6E70120D4E7012004B041
:102CF00080BCBB46F0BDC046280100D00E6300205A
:102D000000400540F06200206CC90410DCC90410CA
:102D100090C9041080E200E0EFF3108C72B60B4B08
:102D20001B68002BFBD0BFF35F8F01238340084A51
:102D3000136208490A789A430A70BFF35F8F034B06
:102D400000221A608CF310887047C046280100D01A
:102D5000004005400E63002010B500291ED0037B03
:102D600099421BD84B005B18033B0468A44663449C
:102D7000002919D0002A1DD0914221D0002A25D047
:102D8000047BA24222D8046850008018033820181F
:102D90008170197800291FD11A7010BD104B114A8B
:102DA0006821114800F0A8FA104B114A6F310E4803
:102DB00000F0A2FA0F4B0E4A70210B4800F09CFA6B
:102DC0000D4B0B4A7121084800F096FA044B054A56
:102DD0006821054800F090FA41701A70DDE7C0469E
:102DE0004CC6041008CB041068C60410BCC60410FE
:102DF000F4CA0410C8C60410D4C6041070B5060086
:102E00000D001400002914D0002A14D080687368C3
:102E10009847002806D0220029003000FFF79CFFC9
:102E2000280007E02A0021003000FFF795FF20006E
:102E300000E0100070BD0800FCE7000010B50023A2
:102E4000437301338373037BC3730123027B9A4271
:102E500014D9002B0CD0027B934209D85A00D21807
:102E6000033A01688C4662440133DBB25370EDE7EC
:102E70000B4B0C4A68210C4800F03EFA002A09D09E
:102E8000924207D8016853009A18033A8A1800231F
:102E9000537010BD024B034A6821034800F02CFA1E
:102EA0004CC6041008CB041068C6041010B501739A
:102EB00042608360FFF7C2FF10BD000070B50400E0
:102EC000081E00D170BD002934D0237B994231D82F
:102ED0004B005B18033B2268944663445A78002AEF
:102EE000F0D02DD0237B9A422AD853009B18033B65
:102EF00021688C4663445D7800215970002825D0F4
:102F0000237B984222D843001B18033B21688C4640
:102F100063440021597001002000FFF76FFF060095
:102F200029002000FFF7CAFF020031002000FFF750
:102F300065FFC7E7084B094A6821094800F0DCF93A
:102F4000054B064A6821064800F0D6F9024B034AB1
:102F50006821034800F0D0F94CC6041008CB0410D7
:102F600068C6041070B505000C001600002928D0B2
:102F70002DD0037B99422AD84B005B18033B026893
:102F8000944663445A78002A27D19A78002A2AD195
:102F90001978FFF793FF0300002E03D0EA7B002A85
:102FA00027D1EC73002B37D1002C49D02B7B9C42CE
:102FB00046D82B6861000C19033C1C190023637070
:102FC00070BD224B224A3821224800F095F9224B4D
:102FD000224A6821224800F08FF9224B1C4A3A21EC
:102FE0001C4800F089F9204B194A3B21194800F090
:102FF00083F9002A0AD0297B8A4207D851008A180F
:10300000033A29688C4662445470CAE7124B134A4B
:103010006821134800F070F9002B0BD02A7B9342F3
:1030200008D843001B18033B2A68944663440022D7
:103030009A70B9E7084B094A6821094800F05CF921
:10304000054B064A6821064800F056F910CA0410DC
:10305000E0CA041018CA04104CC6041008CB0410AF
:1030600068C604105CCA041084CA041070B5040059
:103070000A00457B2900FFF775FF6073280070BDCB
:1030800070B50400002967D0437B8B420ED0002925
:1030900011D0037B99420ED84B005B18033B0268AA
:1030A000D0188378002B0CD1002056E00121FFF7C7
:1030B000DDFF012051E0294B294A6821294800F011
:1030C0001BF9002B20D0227B93421DD85A00D31825
:1030D000033B2268D2182568EB5C8B421AD0002B88
:1030E0001BD0227B934218D85A00D318033B226886
:1030F000D21853788B4216D0002BF0D11A4B1B4AB2
:1031000067211B4800F0F8F8144B154A6821154850
:1031100000F0F2F84378137007E0104B104A682172
:10312000104800F0E9F8437853700023837043702F
:1031300001222000FFF716FF0200617B814205D0CB
:103140002000FFF75BFE6073012006E0094B074A91
:103150006D21074800F0D0F8002070BD4CC6041067
:1031600008CB041068C6041024C50410C8CA041093
:1031700018CA0410A8CA041010B50400FEF770FCA9
:1031800001002000FEF79AFFFF232371BFF35F8F3A
:1031900010BD10B50400FEF763FC01002000FEF72F
:1031A0008DFFFF23237100236371BFF35F8F10BD79
:1031B00070B504000D00062000F052FAC00029008E
:1031C00001F038FCC60908D00E4B9E4217D87F2369
:1031D000184001303500460800E001256562A6620E
:1031E0002C3480208001044300232360062000F05B
:1031F00037FA8000A901891901F01CFC70BD002676
:10320000014DEBE7FEFF0000FFFF0000002909D0A1
:103210000A22064B9C466044434258414000044BFE
:10322000C252704780225200F3E7C0460080FCBFC4
:103230000063002070B505000C00062000F010FAB5
:10324000002829D0164B9D4227D08022D203154B4F
:103250001A60154B1A60154B9B6811009943FAD1FF
:1032600000212800FFF7D2FF21002800FFF7A0FF70
:103270002C002C34E96A60224A406E2111408022E1
:103280005201224311600A4B2B6380239B0123438D
:1032900010221A600323AB6470BD80221204D6E7AB
:1032A0000080034000E0004000F0004000C000400B
:1032B0000103000000BEFDE703000A4A1268002A6D
:1032C00008D0084A1068C318074A9A4206D3054A2C
:1032D00013607047034A05491160F2E7012040423C
:1032E000F7E7C046CC6000200000042010630020F7
:1032F00010B5FFF7DFFF000010B582B00C00190019
:10330000002A0CD0084B002A0BD001920093230016
:103310000200064803F07CFD0120FFF7CBFF044BC1
:10332000F1E7034AF1E7C046B8CB0410C8CB04105C
:10333000E489051070B52B4B2B4A1A602B4B2C4A95
:103340001A602C4B9A682A4B9343FAD12A4C01E01D
:1033500008CC9847294B9C42FAD300F001F9234B43
:10336000274A1A60234B9B68DB43DB01FAD1254BCC
:1033700040229A675A671A67DA66234C09E0234BA2
:10338000234A83212348FFF7B7FF2000FFF7F4FE0D
:103390000834214B9C4209D22368002BF5D0012B25
:1033A000EDD12000FFF7F5FE0834F2E71B4CA168D1
:1033B0001B4DC022280003F06FFBA560FCF753FFF4
:1033C000002800D000BEFEF73BFBFEF769FEFFF7CA
:1033D000B3F9144C01E008CC9847134B9C42FAD344
:1033E00070BDC04600E00040BFCDFBFE00F00040D5
:1033F000FE7F3C0000C00040E41C0020F41C0020C4
:10340000FFFFFF0100F00140DC1C0020F8CB04109E
:1034100074CC041018CC0410E41C002000ED00E073
:1034200000000020F41C00201C1D00200FB400B57B
:1034300083B0084803F0BAFC049B002B07D005A911
:103440000191180003F0C2FC034803F0AFFC012017
:10345000FFF730FF64CC041084570510F8B5DE4642
:1034600057464E464546E0B505000F0092460A9A7B
:1034700093424ED31A0E91461E020A9A0023300040
:10348000494601F019FB80466C006419A4002F4BDB
:103490009C4664446368834200D260602B1FDBB2A9
:1034A0009B46012B3BD9C0239B0123438022120161
:1034B0001A60AB00264A9958002905D0506901F0DE
:1034C000B9FA01300138FDD153465A0123685A40F8
:1034D000E0231A4080235B0123431A605A46012AE5
:1034E00028D980239B012343802212011A6043467E
:1034F0006360424600233000494601F0DDFAAD002A
:10350000134B58510120F0BCBB46B246A946A04619
:10351000F8BD104B104A2D211048FFF7EDFE012F8A
:10352000C1D1C0239B01234303221A60A368DB0798
:10353000FCD5C9E72168794003220A401A60A268D5
:103540000123BB401342FAD0CBE7C04600800040C5
:10355000FC35002084CC0410E4CC041098CC04107A
:1035600030B583B00C2000F021F9FEF75FFA002897
:103570000DD0002304E099002D4A2E4888500133D5
:10358000092BF8D92A4B2C4A5A6203B030BD2B4B79
:1035900000229A6700F012F9294B01221A60274B8A
:1035A0005B6C012BFBD1274B03221A60234B9B6BD7
:1035B000012BFBD1013300930433234A012123481B
:1035C00000F054F805230093214A0121214800F01E
:1035D0004DF8214B0093002202210420FFF73EFF0B
:1035E0001E4D00952B00002201210520FFF736FF1C
:1035F000104C00942300002200210720FFF72EFF2B
:1036000000942300002200210820FFF727FF0A4B27
:1036100000932300002200210920FFF71FFF0095DF
:103620002B00002200210620FFF718FFADE7C0465F
:10363000FC350020006CDC021BB70000008000405D
:103640003CB0004030B00040002F6859008002407C
:10365000008C864700C00240001BB700405973072A
:103660008000014BC0587047FC350020F0B5C646BD
:1036700000B504000F0090461D000C2001F0DAF99F
:1036800006003D4A42443D4B9A4243D843011B1A2F
:103690009901C91AC90009188901404601F0CAF9FF
:1036A0000200103A98235B009A4239D86B1E062B11
:1036B0003CD8069B013B062B38D8069B9D423BD34A
:1036C00043461A09B2423DD32D04069B1E033543DF
:1036D0002368002B3CDB2A4B9C424AD080225201BB
:1036E000284B1A60284B1A60284B9B68110099439D
:1036F000FAD12760A060231DC02292011A43212322
:1037000013602368002BFCDAE5600823136080BC9B
:10371000B846F0BD1E4B1F4A11211F48FFF7ECFDB4
:103720001E4B1C4A19211C48FFF7E6FD1C4B194A89
:103730001C211948FFF7E0FD1A4B164A22211648B2
:10374000FFF7DAFD184B134A25211348FFF7D4FD84
:1037500022683F231340BB42BDD1A3681B051B0D4C
:103760008342B8D1E368EE22D2021340AB42B2D119
:10377000CDE780229201B3E780E84BD380F8A932ED
:1037800000C0024000E0004000F0004000C00040E7
:10379000F4CC041038CE041054CD04109CCD041089
:1037A000B8CD041004CE04101CCE041080239B005E
:1037B0000343014AD362704700800540064BAA22AA
:1037C00012011A602F22DA60044B054A1A60024B7C
:1037D0005B68002BFBDA704700400240006002404B
:1037E00000B0FA009A4200D288547047704710B572
:1037F000002802D00B684968984710BD01000020DE
:1038000007E083001B185B00501C08601078C0188C
:1038100030380A681378303BDBB2092BF1D9704796
:10382000F0B5DE4657464E464546E0B583B0934672
:103830001F000C9B9A460D9C0E9B99460F9B9B0765
:1038400003D0B8460F00060022E00192A346884646
:103850004E46B9460700B44207D2551C4B46414676
:103860002020B84701342A00F5E73D004F465C466A
:10387000019B9B46B1464646B84637002E0007E0FE
:10388000013C551C5346185D43463900B0472A0099
:10389000002CF5D135003E0047460F9B9B0707D40F
:1038A000100003B0F0BCBB46B246A946A046F0BD2E
:1038B000B0464E46B9462F005D46531BB342EFD289
:1038C000541C4B4641462020B8472200F5E7F0B58E
:1038D000CE46474680B585B0944698460C9D0D9CD3
:1038E0000EAB1B789946109A119B129EB7071CD4F9
:1038F000002B0CD0F7070AD54F46002F02D10C370A
:10390000374204D0013B02E030272F550134944266
:1039100001D21F2CF8D9F70707D59C4205D21F2CDE
:1039200003D830272F550134F5E7F70615D577056D
:1039300005D4002C03D0944224D09C4222D00F9A6C
:10394000102A2BD00F9A102A30D00F9A022A35D085
:103950001F2C02D830222A5501341F2C05D84A4684
:10396000002A31D02D222A55013403960293019466
:10397000009543466246FFF753FF05B0C0BCB94609
:10398000B046F0BD621E012C06D00F9F102F01D053
:103990001400D4E7023CD2E71400D0E7B206D1D439
:1039A0001F2CCFD878222A550134D1E7B206CCD5C6
:1039B0001F2CCAD858222A550134C9E71F2CC7D852
:1039C00060322A550134C3E7720703D52B222A55EA
:1039D0000134CAE73207C8D520222A550134C4E78A
:1039E000F0B5DE4657464E464546E0B593B08146B3
:1039F0008A46089209931CAB10CB1B789B461E9DF0
:103A0000219B9846002C03D1102342469A439046AE
:103A10008023DB0046461E4042461A4212D0002C4C
:103A200022D000260EE03033D9B2771C0AAB99556C
:103A30002900200000F0FEFFAC4216D31F2F14D83F
:103A40003E0004002900200000F0F4FFCBB2092B57
:103A5000E9D94246920605D54121C918C9B20A39A9
:103A6000C9B2E2E76121F8E7270043460693209BAD
:103A700005931F9B049303955B46029301970AAB42
:103A80000093099B089A51464846FFF720FF13B060
:103A9000F0BCBB46B246A946A046F0BDF0B5DE4636
:103AA00057464E464546E0B595B0089009910A92B2
:103AB0000B931E9E1F9C20AB1B789B46229B994616
:103AC000239D269B9A463300234303D1103352464D
:103AD0009A4392468023DB0057461F4052461A42C3
:103AE00019D0330023432DD0002714E03033DAB24D
:103AF0007B1C98460CABDA554A462B00300021005F
:103B000000F0DAFFA5421FD819D043461F2B1BD85F
:103B1000474606000C004A462B003000210000F00A
:103B2000CBFFD3B2092BE1D95246920605D54122EB
:103B3000D218D2B20A3AD2B2DAE76122F8E7B14536
:103B4000E3D901E00023984653460693259B05934D
:103B5000249B04934B4603935B4602934346019395
:103B60000CAB00930B9B0A9A09990898FFF7AFFEDC
:103B700015B0F0BCBB46B246A946A046F0BD000059
:103B8000F0B5DE4657464E464546E0B591B0834611
:103B90008A460C9298461A9C08941B9D099522000F
:103BA0002B002000290001F02AFA002800D0E5E0CF
:103BB00001225242D74B2000290001F01BFA0028B5
:103BC00000D0DBE001225242D34B2000290001F05B
:103BD000FBF9002800D0D1E000220023089E30002D
:103BE000099D290001F0F0F9002800D0DDE00898D7
:103BF0000999069007918023DB001E9A1A400D92C6
:103C00001E9A1A4201D106231C93069807990400B4
:103C10000D000A000600024300D1D1E0080D400566
:103C2000400DBE4CA44660440A03120BBC4B134328
:103C30001F0001F0F7F9BB4ABB4B01F07AF9BB4A10
:103C4000BB4B01F04FF904000D000022B94B3000CE
:103C5000390001F03EF9B84AB84B01F06AF90200A8
:103C60000B002000290001F03DF901F0F3F9814635
:103C700001F0D8F904000D00B14AB24B01F059F936
:103C80000022B14B01F02EF901F0E4F90600AF4A31
:103C9000AF4B2000290001F04CF904000D0030006A
:103CA00001F0C0F9AB4AAC4B01F043F902000B0044
:103CB0002000290001F00DF904000D0002000B00A6
:103CC00001F037F90A900B91A44BF31800261F0559
:103CD00022002B002000290001F004F90E900F9122
:103CE00022002B0000208021C90501F0F2F8040019
:103CF0000D0000229A4B0A980B9901F0FCF8002263
:103D0000984B01F0EFF802000B000A980B9901F0B4
:103D1000F2F80022944B01F0E5F802000B000A983B
:103D20000B9901F0E8F802000B002000290001F0D7
:103D3000D9F802000B000E980F9901F0DCF8002270
:103D4000774B01F0CFF832003B0001F0F2F80600AB
:103D50000F0004000D00069A079B01F04BF90028A4
:103D600030D001235B429C46E14400227D4B300071
:103D7000390001F0C0F804000D0023E01E9B0493FD
:103D80001D9B03931C9B0293089A099B009201932D
:103D900043460C9A5146584600F0FCF811B0F0BC6E
:103DA000BB46B246A946A046F0BD002300240693B8
:103DB0000794069680231B069C46654407951AE7E0
:103DC000002399464B466333C62B1ED804261E9B00
:103DD0001B0526D52B0023430FD0644A644B06985D
:103DE000079901F0FFF8002879D00022614B06986E
:103DF000079901F0E9F8002871D01C9B4B4506DDBE
:103E00004A46981A431E1C9303E00526DFE7002369
:103E10001C938023DB001E9A1A431E920026002367
:103E200099461D9B9E4264D29F1B02231E9A1A40F4
:103E30000A921E9A134202D0002E00D000274B4651
:103E4000002B07D022002B000698079901F053F8A9
:103E500006900791002200230898099901F0B4F810
:103E6000002848D1444B1E9A1340049303971C9B8F
:103E70000293069B079C0093019443460C9A51467B
:103E8000584600F087F8002E00D187E71E9B9B065E
:103E90003DD54525441C4346020051462800D847DD
:103EA0004B46DA179B18534005220592013E0496B3
:103EB000002203920A3202924A46D00F01900093E8
:103EC0004346220051465846FFF78AFD0A9B002BC5
:103ED00000D163E702005F460C9E1D9D54E01C9BD1
:103EE000002B9ED00D9B002B9BD01C9B013B1C9359
:103EF00097E7002799E7069C079D2200290080206C
:103F00000006844661440B0006920793AAE76525E4
:103F1000C0E7C046FFFFEF7FFFFFEFFF01FCFFFFA1
:103F20000000F03FFB799F501344D33FB3C8608B30
:103F3000288AC63F0000F83F61436F63A787D23FDE
:103F400071A379094F930A400000E03F1655B5BBB5
:103F5000B16B0240EF39FAFE422EE63FFF0300004C
:103F600000002C4000002440000018402D431CEBB2
:103F7000E2361A3F80842E41FFF7FFFF541C434670
:103F800051462020B8472200931BAB42F6D31000C5
:103F900004E7C046F0B5DE4657464E464546E0B516
:103FA00095B00690079193469946209F1E9A1F9BB5
:103FB0001000190001F023F8002831D101225242EB
:103FC000BF4B1E981F9900F0FFFF002837D1012238
:103FD0005242BC4B1E981F9901F00CF800283DD1AD
:103FE0000022B94B1E981F9901F004F8002850D107
:103FF0000022B64B1E981F9900F0E6FF002848D11A
:10400000002200231E981F9900F0DEFF002850D1E7
:1040100000239846229B5B0500D4B6E0002458E0BC
:10402000229B0393219B029303230193A84B0093AC
:104030004B465A4607990698FFF7F2FB0EE1229B82
:104040000393219B029304230193A24B00934B46BD
:104050005A4607990698FFF7E3FBFFE00423229AEC
:104060001A4022990B4210D09B4B002A0FD00422F9
:104070002299039121990291019200934B465A464D
:1040800007990698FFF7CCFBE8E0944BEDE7032295
:10409000EEE7229B0493219B039302971E9B1F9C98
:1040A000009301944B465A4607990698FFF768FD1E
:1040B000D4E01E9A1F9B0020002100F00AFF1E90F2
:1040C0001F9101239846A5E70CAB30221A55013FFA
:1040D00001341F2C01D8092FF6D81E981F9900F023
:1040E000B9FF050000F09EFF02000B001E981F990B
:1040F00000F0EFFEFA007A4B9B181A685B680A9290
:104100000B9300F016FF0890099100F0C7FF06001E
:1041100000F084FF02000B000898099900F0D9FE16
:104120000890099100226F4B00F064FF00282ED008
:104130000136300000F072FF02000B000A980B9964
:1041400000F048FF002801D001350026002F2CD1B7
:10415000280000F067FF02000B001E981F9900F076
:10416000B8FE06000F0000225E4B00F02DFF002875
:1041700046D100225B4B3000390000F03BFF0028A5
:104180003ED1EB073CD501353AE0062746E7002251
:10419000544B0898099900F017FF0028D6D1002E3B
:1041A00001D0F307D2D50136D0E7AA461F2C11D88B
:1041B000013F0A21300000F03DFC651C30310CABA2
:1041C00019550A21300000F035FC092E0ED90600E1
:1041D0002C00EBE755461F2C0CD87B1E002F09D076
:1041E0000CAA302111551F000134F4E72B0055466D
:1041F0001C00F0E71F2C03D80CAB2E221A550134FB
:104200001F2C10D80A21280000F0ECFB661C30316E
:104210000CAB19550A21280000F0E4FB051E01D063
:104220003400EDE734000323229A1340012B1CD005
:104230001F2C06D84346002B32D00CAB2D221A552A
:104240000134229B0393219B029301940CAB0093B6
:104250004B465A4607990698FFF7E2FA15B0F0BCAC
:10426000BB46B246A946A046F0BD219B002B13D009
:104270004346002B02D10C3313420FD0219B013B4C
:104280002193190003E00CAB30221A5501348C4203
:10429000CED21F2CF7D9CBE72199F8E72199F6E781
:1042A000229B5B0704D50CAB2B221A550134C8E7BF
:1042B000229B1B07C5D50CAB20221A550134C0E741
:1042C000FFFFEFFFFFFFEF7F65CDCD4165CDCDC196
:1042D00050CE041054CE041048CE041044CE041026
:1042E00040D004100000E03FF0B5DE4657464E4691
:1042F0004546E0B593B082468B469046119300291F
:1043000000D1EBE200275546119B1878002800D118
:10431000E7E2252809D07C1C43463A005946A847C5
:10432000119B013311932700EEE701331193002411
:10433000119A11780B00203BD8B2102803D88300C3
:10434000D048C3589F460B00303BDBB2092B2CD919
:104350002A292FD000230A93119B1A782E2A39D0AC
:1043600000239A46119A1378683BD9B2122976D85D
:104370008B00C549CB589F4601231C430132119243
:10438000D6E702231C4301321192D1E704231C43D8
:1043900001321192CCE708231C4301321192C7E786
:1043A00010231C4301321192C2E711A8FFF726FA2D
:1043B0000A90D1E71C9B1A1D1C921868002804DB88
:1043C0000A90119B01331193C6E702231C43434219
:1043D0000A93F6E78022D20014435A1C11925A78AD
:1043E0001300303BDBB2092B04D92A2A07D0002363
:1043F0009A46B7E711A8FFF701FA8246B2E71C9B7D
:104400001A1D1C921868002804DB8246119B013398
:104410001193A7E70020F8E780235B002343511C9A
:10442000119152786C2A01D01C0018E0C0239B0027
:104430001C430131119112E080232343511C11913F
:104440005278682A01D01C0009E0C0231C430131C6
:10445000119104E080235B001C4301321192119BF7
:1044600018780300253BDAB2532A00D92CE29300D6
:10447000864AD3589F4680239B001C4301321192E9
:10448000EDE780235B001C4301321192E7E77828B7
:1044900009D0582838D06F2838D0622838D0102357
:1044A0009C430A2600E01026582833D0692803D000
:1044B000642801D00C229443630501D50122944362
:1044C00069282AD0642828D0A30500D59FE0E305F9
:1044D00000D5B8E0630600D4CAE01C9A111D1C91F7
:1044E0001168FF220A4005940A9B049353460393E4
:1044F000029600230193009243463A005946280051
:10450000FFF76EFA070027E01026CDE70826CBE775
:104510000226C9E720221443C8E7A30520D4E305F7
:1045200050D4630666D51C9A111D1C911168FF2298
:104530000A40D317D118594005940A9B0493534657
:1045400003930296D20F0192009143463A005946D6
:104550002800FFF745FA0700119B01331193D3E6BA
:104560001C9BDA1D07218A43110008311C91116838
:1045700053689C46DB170C930D930C9A0D9B10000F
:1045800048400E90624653400F930E980F990C9A34
:104590000D9B801A99410E900F9108940A9B0793E6
:1045A000534606930496002305936346DA0F02925E
:1045B0000090019143463A0059462800FFF76EFAF1
:1045C0000700C9E71C9A111D1C911268D317D11856
:1045D000594005940A9B0493534603930296D20FC5
:1045E0000192009143463A0059462800FFF7F8F936
:1045F0000700B1E7230605D51C9A111D1C91002365
:10460000D25E96E71C9A111D1C91126891E71C9BC3
:10461000DA1D07218A43110008311C9108940A9B76
:104620000793534606930496002305930293136859
:1046300054680093019443463A0059462800FFF716
:104640002DFA070088E71C9A111D1C9105940A9BFE
:104650000493534603930296002301931368009337
:1046600043463A0059462800FFF7BAF9070073E7B6
:1046700023060DD51C9A111D1C9112681204120CF0
:1046800031E7C0465CCE0410A0CE0410ECCE04107E
:104690001C9A111D1C91126825E746281AD01C9BF4
:1046A0000733072293431A0008321C9204940A9A93
:1046B0000392524602925C681B6800930194434641
:1046C0003A0059462800FFF765FC0700119B0133AB
:1046D000119319E620231C43E1E7672801D04728FE
:1046E00002D180231B011C43452801D0472801D15A
:1046F00020231C431C9B0733072293431A000832D4
:104700001C9204940A9A0392524602925C681B68B7
:104710000093019443463A0059462800FFF730FAC7
:104720000700119B01331193EEE502231A0022408A
:10473000924623421FD001241C9B1A1D1C927A1CF6
:104740009146187843463A005946A8475346002BED
:1047500016D1119B013311934F46D5E5561C4346A4
:1047600059462020B847230032005C1C9D42F5D8F2
:104770003D001700E0E701233A002F000A9DF4E70F
:104780004A46A9460A9D06E0571C43465946202042
:10479000C84734003A00661CA542F5D84D469146FC
:1047A000D7E71C9B1A1D1C921B6899465346002B89
:1047B00000D1013B4E4601E0013613003278002A59
:1047C00002D05A1E002BF7D14B46F21A10928023CA
:1047D000DB0026001E401C4203D0524501D953463F
:1047E000109302231A0022400B92234205D03A0074
:1047F00037004C46A946554620E03A00109B5F46DC
:10480000B3462E0006E0551C434639002020B04731
:1048100023002A005C1C0A999942F4D835005E46B0
:10482000BB46109437004C46A946554606E01D008D
:104830000134561C43465946C847320020780028A8
:1048400004D0002FF4D06B1E002DF0D117004D4680
:104850000B9B002B03D1119B0133119354E50A9F4D
:10486000109B06E0561C434659462020A8472300CB
:1048700032005C1C9F42F5D81700ECE721231C4353
:104880001C9B1A1D1C921B6800930594082304931B
:1048900053460393102302930023019343463A00A7
:1048A00059462800FFF79CF80700119B013311932C
:1048B0002AE57C1C43463A0059462520A847119B0F
:1048C0000133119327001FE57C1C43463A005946EB
:1048D000A847119B01331193270015E50A4B9A460F
:1048E00010E5AA46474502D343465A1E00E03A0067
:1048F000434659460020D047380013B0F0BCBB46B1
:10490000B246A946A046F0BDED3700100EB410B572
:1049100085B0010007AC08CC0394012200945242F8
:104920000348FFF7E1FC05B010BC08BC03B0184712
:10493000E537001000B583B0009313000A000100B2
:104940000248FFF7D1FC03B000BDC046E5370010B8
:1049500000B585B0029003910121009313004A42F3
:1049600002A90248FFF7C0FC05B000BDEF370010F8
:1049700001480421014B1847F0110020AD490010F7
:10498000014B9B6818470000F011002010B5010092
:1049900018231B8814221088984710BD10B50100F9
:1049A00018231B8816221088984710BDF0B5C646FC
:1049B00000B507000E0000250123984600E00135F0
:1049C000B5420AD2AC003C192068FFF7DFFF206037
:1049D0000028F4D100239846F1E7404680BCB84651
:1049E000F0BD0000124A936F9B0815D29066D16605
:1049F000002905D0FFE7FFE7FFE7516F106F704711
:104A000004B580210906C2175140002800D0C843D0
:104A100047F0C2FB002104BDF0B5146E556E576F10
:104A2000166FFFF7E3FF1466556657671667F0BD0C
:104A3000000000D0114A936F9B0813D21066516694
:104A4000002905D0FFE7FFE7FFE7516F106F7047C0
:104A500004B5002801D00020C04347F09DFB002191
:104A600004BDC046F0B5146E556E576F166FFFF754
:104A7000E5FF1466556657671667F0BD000000D065
:104A800094464E4A926F9208624601D230E0C04688
:104A9000F0B54A4EB56F6D08FCD3346E756E776F06
:104AA000366F00F025F89446444A146655665767F9
:104AB00016676246F0BDC0469446404A926F92081F
:104AC000624601D258E0C046F0B53C4EB56F6D0865
:104AD000FCD3346E756E776F366F00F04DF89446E8
:104AE000364A14665566576716676246F0BDC0467B
:104AF000002B24DB11D000293EDA00B5C943404227
:104B000000D1013100F038F8C943404200D10131F1
:104B1000DB43524200D1013300BD002AEBD1002813
:104B200001D1002905D00020C90FC90701D1C04318
:104B3000410800B547F008FB0022002300BD00B586
:104B400000290ADBDB43524200D1013300F014F8A4
:104B5000C943404200D1013100BDC943404200D1A8
:104B60000131DB43524200D1013300F005F8DB4351
:104B7000524200D1013300BD002923D1002B18D1AE
:104B8000002A0CD0BC460D4F38667A6600210023FF
:104B9000FFE7FFE7FFE77A6F386F67467047002847
:104BA00001D00748010000B547F0CEFA00220023EB
:104BB00000BD02000B00002000217047000000D063
:104BC000FFFFFFFF002B00D0BFE0130C28D1002A0D
:104BD000E7D080B4114F39667A66FFE7FFE730B45B
:104BE000040C7B6F396F1B0423433B667A66FFE737
:104BF000FFE7FFE7C04684B27B6F3D6F1B04234392
:104C00003B667A66FFE7FFE7C04600232C042D0CC5
:104C10007A6F386F00196941B0BC7047000000D04E
:104C2000F0B594460025140E01D112020835140F78
:104C300001D112010435940F01D192000235D40F35
:104C400001D152000135D40B0134254F7C66254C2F
:104C50003C660E0C93B2FFE7FFE7FFE73C6F66434D
:104C6000360C7703BE467343DF0B5B04C01AB941B1
:104C7000130C7343DB18C91ACE086643360CB644CE
:104C800093B273431F0F1B01C01AB941130C734336
:104C90001F0B1B05C01AB941860D8F023E436643A8
:104CA000360C092D24DB520A7243801A7703460A18
:104CB0006643360C16235B1BDE40DF40BF1964469B
:104CC0006643821B7046043506330100D940A84074
:104CD000C01900D30131A24206D20023F0BD00006A
:104CE000000000D0FFFFFFFF121B0130F3D3F1E7FC
:104CF00009277F1BFE406446A2B27243801A00D28D
:104D00000139220C7243130C1204821A99410B00D0
:104D10007046043513370100F940A840801900D3CC
:104D20000131002B02D1A2420AD2F0BD013000D3E2
:104D30000131121BFAD2013BF8D1A24200D2F0BDE0
:104D4000013000D30131121BF7E7F0B51C0C00D085
:104D500080E00CB400251C0A04D11B02160E33435C
:104D6000120208351C0B04D11B01160F334312012C
:104D700004359C0B04D19B00960F334392000235FF
:104D8000DC0B02D192185B4101351C00971864417D
:104D90000134464F7C66464C3C660E0CFFE7FFE74D
:104DA000FFE7C0463C6F6643360C7703BE4697B2BA
:104DB0007743C01B00D20139C01B00D201399FB21A
:104DC0007743C91BC91B170C77437E04FF0B801B5D
:104DD000B941CE086643360C0C2D33DBB644120BBA
:104DE0001F053A431B0B97B27743C01B00D2013912
:104DF0009FB27743C91B170C77433E043F0C801BBF
:104E0000B941860D8F023E43664329277F1BFE4032
:104E10000C3D7746AF40BF1930BCA2B2ABB2724373
:104E20007343801A9941220C7243130C1204801AA6
:104E3000994102000B000137001BA941F9D2781EED
:104E40000021F0BD0C277F1BFE4077467F0BAF4053
:104E5000FF19E0E700245D1C07D0144F7D6639661A
:104E6000FFE7FFE7FFE7FFE73C6F95B29EB26543C0
:104E70006643401BB141150C1E0C65436643360466
:104E80002F0C3E432D04401BB141994204D2020035
:104E90000B0020000021F0BD01D19042F7D3801A11
:104EA000994101349942F2D3F6E70000000000D0A6
:104EB000FFFFFFFF44464D4656465F46F0B470473D
:104EC000F0BCA046A946B246BB46704748404140A8
:104ED000484018B41B4B5B68FC46019308BD04DFD7
:104EE0004B56001018B4174B1B68FC46019308BDC5
:104EF00000DF555600109446134A926F920809D26B
:104F0000624618B40F4BDB68FC46019308BD0CDF0A
:104F10000D5900100C4AF0B5146E556E576F166F90
:104F20006246FFF7EEFF084A146655665767166734
:104F3000F0BD18B4034B9B68FC46019308BD08DF25
:104F4000B1570010E8600020000000D0FFB55040CD
:104F50004240504059404B40594000E0FFB5154F8A
:104F60004C00640D03D0BC4204D10C0314D80020C3
:104F7000090D09055C00640D03D0BC4204D11C037B
:104F80000AD800221B0D1B0501264B4009D44B40BB
:104F900003D58B4200D18242FFBD9942FCD19042A1
:104FA000FFBD0B43DB1803431343F5D0C943491836
:104FB000FFBD0000FF07000000B5FFF7CFFF01D0E5
:104FC000002000BD012000BD00B5FFF7C7FF8041F4
:104FD00000BDC04600B5FFF7C1FF01D9002000BDEC
:104FE000012000BD00B5FFF7B1FF01D9002000BDD1
:104FF000012000BD00B5FFF7A9FF804100BD0120E1
:1050000040054A00121804D85A00121801D800208E
:1050100070470120704700207047000000210028E1
:1050200005D17047C1174840401AFAD0C90713B5D7
:10503000064B1B6898470CBC441CA2401005120B81
:105040000349091B09051943114310BDE8610020FC
:105050001F04000010B54C00620D8023D218DB0045
:10506000D21A5B057E2A10DD9E3A13DACC170903AB
:10507000490819435242D140640001341532202AB4
:1050800005DAD0400843604310BD002010BD08463B
:10509000604310BDC80FC018013810BD18B4044BD0
:1050A0005B6AFC46019308BD24DF415B00100000F1
:1050B000E860002018B4044B1B6EFC46019308BD49
:1050C00060DF4F5C00100000E860002018B4044B63
:1050D000DB6DFC46019308BD5CDF4D5C00100000F9
:1050E000E8600020C94211D300B5490049080022F8
:1050F00000F018F8002904D4002240428A411146E9
:1051000000BD80210906002000BD000018B4044B3A
:10511000DB6EFC46019308BD6CDF4F5B00100000A6
:10512000E860002018B4044B9B6FFC46019308BD57
:1051300078DF6B5B00100000E860002018B4044BBF
:10514000DB6FFC46019308BD7CDFD95B00100000DB
:10515000E8600020024A034B00B500F051FA00BDA0
:10516000182D4454FB2119408A0002D3920D092ABC
:1051700008DA18B4064BDB6BFC46019308BD3CDF34
:10518000835D001000B5FFF7E5FF04BC9646F0E72D
:10519000E86000208A0002D3920D092A08DA18B4C8
:1051A000064B1B6CFC46019308BD40DF935D00106D
:1051B00000B5FFF7CFFF04BC9646F0E7E86000209B
:1051C00018B4044BDB6CFC46019308BD4CDF9560C2
:1051D00000100000E860002018B4044B1B6DFC4672
:1051E000019308BD50DF316100100000E86000202D
:1051F00070B513231C78012C14D0012C14DC022C64
:1052000002DC1F4A1F4B9A641F48FFF7BFFB1F4B6E
:10521000186070BD99001A481A4A885001331F2B34
:10522000F8D9EAE70023FAE71948FFF7B7FB0500CA
:105230001848FFF7B3FB023803789B007F2B19DD7A
:10524000802229000F4801F027FC022CD7D1124BF5
:105250001A88B5231B029A4209D1104B1A88104BA9
:105260009A4204D10F4B1A880F4B9A42C7D00020A4
:10527000FEF7DCF80D4B0E4A32210E48FEF73CF8E3
:1052800011560010E86000204C330000E861002057
:10529000534400005346000054380000D838000042
:1052A000494600009C3800005946000090D0041088
:1052B00044D10410F0D00410F0B5DE4657464E46F7
:1052C0004546E0B585B004000D00009201930E9BA9
:1052D0009A46002B45DD019B191101204042FFF742
:1052E000A9FB039000239B4629E00C239946AB11B0
:1052F000039A53431D224946521A134101335B104E
:105300009846202252428B1821D422009A4017003E
:1053100023004A4693401E004346D917009A019B3A
:10532000404600F0EBFF34003D00241A8D415B46FF
:105330004A46934043449B4653469B1A9A465346DB
:10534000002B11DD53460C2BCFDCD146CFE72023B9
:105350005B1A2200DA4013002A008A4017001F431C
:10536000D6E700230393BDE7009A019BAB4209DC1B
:1053700001D1A24206D8009A019BA41A9D410123A3
:105380009C46E344009A019BAB4209DC01D1A24256
:1053900006D8009A019BA41A9D4101239C46E34430
:1053A000002D0FDB002D16DB0F9B002B01D05A4682
:1053B0001A602000290005B0F0BCBB46B246A946E1
:1053C000A046F0BD009A019BA4185D4101235B42F9
:1053D0009C46E344E6E7009A019BA4185D41012343
:1053E0005B429C46E344DFE7F0B5C64600B50600E5
:1053F0000F000B0D5B055A0D002B27D01F4BD21849
:105400002CD43424A31A9846002B24DD203B9C4640
:1054100029D401256446A5402B0001254446A5401A
:105420002A0001246442E517A4185D41002903DA2B
:1054300024184D4126002F00002554429D41330081
:10544000234018003B002B40190004E00022C90F44
:10545000CB071000190080BCB846F0BD002909DA5E
:1054600000200749F7E720254346ED1A0124EC40C8
:105470002300D2E700200021EDE7C04601FCFFFF3A
:105480000000F0BFF0B5C64600B58AB007900F0027
:1054900011001A00FE0F3B0D5B055B0D3D032D0B4C
:1054A00080246403049025430595D50FA846150D67
:1054B0006D056D0D1203120B029114430394109AA3
:1054C000002A02D0002210990A604A4A934200D171
:1054D0007DE0002D00D17DE0002B00D182E09542DF
:1054E00000D182E06A1E9A4200DD80E044D0002EA6
:1054F00006D0049E059F00227142BA410491059294
:1055000009AA01925B1B0093029A039B04980599D8
:10551000FFF7D2FE06000F0003000C009B197C4130
:105520002200029803998C420BDC01D1834208D8F7
:1055300002998B420CD1039B9A4209D1099BDB074C
:1055400006D5029B039CF61AA741099B01330993D8
:105550004346002B02D0099B5B420993109B002B12
:1055600001D0099A1A60244A521B30003900FFF713
:10557000A1FD06000F002FE0039B059999420FDD66
:10558000002E17D1029C039D24196D4104980599A2
:10559000001BA94106000F00012309931500D7E75E
:1055A000029B039C0598A04202D104999942E7D836
:1055B000079E11E0029E039FB6197F41049B059C44
:1055C000F61AA74101235B4209931500C0E70026A4
:1055D0000A4F01E00026094F300039000AB080BCB4
:1055E000B846F0BD00260027F6E7079EF4E7079EC1
:1055F000F2E7C046FF070000330400000000F07F20
:1056000010B582B000240094FFF73CFF02B010BD3B
:1056100007B56046002800D100BE01880A0A0230A2
:10562000DF2AFAD1C9B2820804D302884088000474
:10563000104300E00068024A5050039007BD00008C
:10564000E86000200FB403BC0CBCF0B50124E407F3
:10565000634000E0F0B50C0DCF0F661E3605891BC8
:10566000640503D3C943404200D30131640D03D024
:10567000661CF60A07D0E41B00207F00791C89070E
:105680008912803C24031D0DDF0F6E1E36059B1B07
:105690006D0503D3DB43524200D301336D0D03D0BC
:1056A0006E1CF60A07D0ED1B00227F007B1C9B07B7
:1056B0009B12803D2D032F1B661B58D4A446202E21
:1056C00046DA20371400BC401D00BD40F240334193
:1056D0002A4380185941CB0F05D0C943C04300224B
:1056E00064425041514162464D0D28D10D0D07D104
:1056F00000281FD0241940414941013A0D0DF9D02D
:10570000640006D3013000D30131002C01D14008E0
:105710004000013A0BD4941CE40A04D11205114450
:10572000DB071944F0BDD907204B194300E0D90726
:105730000020F0BD0029DDD1002CDBD1F0BD01320D
:10574000C6074008CD0728434908002EE1D0D9E715
:105750003C2E29DA203E40371400BC4000D0012402
:10576000F24014431A00BB401C43D317ACE7AC46CD
:10577000202F08DA20360400B4400D00B540F84070
:1057800039412843A5E73C2F0CDA203F403604007E
:10579000B44000D00124F84004430800B1400C4359
:1057A000C117EAE710001900002494E70000F07F19
:1057B000F0B50C0D661E3605891BE60A6405640DFE
:1057C00002D0651CED0A04D0002001210905803CAF
:1057D0002403A4461C0D671E3F05DB1BE70A640576
:1057E000640D02D0651CED0A04D0002201231B05C4
:1057F000803C24037740644497B484B296B27443E7
:10580000070C7E43150C6F4380B26843361802D3F1
:10581000012000043F183004350C00197D418446F6
:1058200088B29AB250430C0C62431F0C7C438EB278
:105830007E43921902D301263604A4191604170CCC
:105840003618674101BC81B29AB25143040C6243DD
:105850001B0C5C4380B25843121802D30120000491
:1058600024181004130C401863412D185E410020C9
:10587000474106BC88B293B258430C0C6343120CE8
:10588000544389B251435B1802D3012109046418BF
:1058900019041A0C091862416D185641002047413D
:1058A00018BCF902720D1143F0026A0D1043ED02AB
:1058B0000A0D03D16D1940414941013B124E9B1B1A
:1058C0007600B3420ED26D0007D30130002671413D
:1058D0006646354301D1400840001B05C918E4075E
:1058E0002144F0BD0BDA013306D1013004D101317E
:1058F0004F0D01D04908F2E7E1070020F0BD013665
:1059000031050020EBE70000FF030000F0B51C0D9F
:10591000671E3F05DB1BE70A6405640D02D0661CA9
:10592000F60A04D0002201231B05803C2403D02565
:105930002D060026F6432E661E096E66CE0FF6195A
:10594000B44649004F0D02D07E1CF60A03D0002059
:105950000021403F3F033E1BB600B444013F7F059A
:10596000C91B49082E6F013676089C02950D254308
:105970007543ED137543AD1301356D10F603761BBA
:105980000CB4CC02450D2C43A2B2B3B25A43270C3F
:105990007B43350C6F43A4B26C431B1902D3012423
:1059A00024043F191C041D0CA4187D4124196D41C9
:1059B000009A91B2ACB26143170C7C432B0C5F434D
:1059C00092B25A43A41802D301221204BF1822042F
:1059D000230C52187B41019C6C431B19520ED901B8
:1059E0000A434401A01A81B2B2B2514303145A438C
:1059F000360C734387B27743D617D21900277E41FE
:105A000036049B191704160C7F185E417316ED18A7
:105A1000F301002680337541A90F06D16400690A9D
:105A2000E8055B0A184309D22FE00422944480332E
:105A30007541A90AA8059B0A184326D3404149414C
:105A40002404009A019B0D005543641B4343E41A50
:105A500095B286B27543170C7E43030C5F4392B236
:105A60005A43B61802D301221204BF183204330C71
:105A700052197B4152429C41002C02D40022013039
:105A800051414008CA071043490802B06246D7078F
:105A90009210084BD218084B9A4203D2120589186B
:105AA000C919F0BD0020002A01DC3900F0BD013326
:105AB0001905F5E7FD030000FE070000624618CA5D
:105AC00094465A46002A20DB04E0624618CA9446EF
:105AD00000291ADAC01861415B463B415C46B4407C
